{"contracts/DiscountV1.sol":{"DiscountV1":{"abi":[{"inputs":[],"stateMutability":"nonpayable","type":"constructor"},{"inputs":[],"name":"EnforcedPause","type":"error"},{"inputs":[],"name":"ExpectedPause","type":"error"},{"inputs":[],"name":"InvalidInitialization","type":"error"},{"inputs":[],"name":"NotInitializing","type":"error"},{"inputs":[{"internalType":"address","name":"owner","type":"address"}],"name":"OwnableInvalidOwner","type":"error"},{"inputs":[{"internalType":"address","name":"account","type":"address"}],"name":"OwnableUnauthorizedAccount","type":"error"},{"anonymous":false,"inputs":[{"indexed":false,"internalType":"uint64","name":"version","type":"uint64"}],"name":"Initialized","type":"event"},{"anonymous":false,"inputs":[{"indexed":true,"internalType":"address","name":"previousOwner","type":"address"},{"indexed":true,"internalType":"address","name":"newOwner","type":"address"}],"name":"OwnershipTransferred","type":"event"},{"anonymous":false,"inputs":[{"indexed":false,"internalType":"address","name":"account","type":"address"}],"name":"Paused","type":"event"},{"anonymous":false,"inputs":[{"indexed":false,"internalType":"address","name":"account","type":"address"}],"name":"Unpaused","type":"event"},{"inputs":[{"internalType":"uint256","name":"_amount","type":"uint256"},{"internalType":"address","name":"_curvePoolAddress","type":"address"},{"internalType":"uint256","name":"_IBTindexInCurve","type":"uint256"},{"internalType":"uint256","name":"_PTindexInCurve","type":"uint256"},{"internalType":"uint256","name":"_minAmountOut","type":"uint256"}],"name":"buyDiscountedAsset","outputs":[],"stateMutability":"nonpayable","type":"function"},{"inputs":[{"internalType":"address","name":"_curvePool","type":"address"},{"internalType":"uint256","name":"_inputTokenIndex","type":"uint256"},{"internalType":"uint256","name":"_outputTokenIndex","type":"uint256"},{"internalType":"uint256","name":"_dx","type":"uint256"},{"internalType":"uint256","name":"_min_dy","type":"uint256"}],"name":"claimPTEarly","outputs":[],"stateMutability":"nonpayable","type":"function"},{"inputs":[{"internalType":"address","name":"_token","type":"address"},{"internalType":"uint256","name":"_amount","type":"uint256"}],"name":"collectFee","outputs":[],"stateMutability":"nonpayable","type":"function"},{"inputs":[{"internalType":"address","name":"_IBT","type":"address"}],"name":"getBuyFee","outputs":[{"internalType":"uint256","name":"","type":"uint256"}],"stateMutability":"view","type":"function"},{"inputs":[{"internalType":"address","name":"_PT","type":"address"}],"name":"getSellEarlyFee","outputs":[{"internalType":"uint256","name":"","type":"uint256"}],"stateMutability":"view","type":"function"},{"inputs":[{"internalType":"address","name":"_initialOwner","type":"address"},{"internalType":"address","name":"_registry","type":"address"}],"name":"initialize","outputs":[],"stateMutability":"nonpayable","type":"function"},{"inputs":[],"name":"owner","outputs":[{"internalType":"address","name":"","type":"address"}],"stateMutability":"view","type":"function"},{"inputs":[],"name":"pause","outputs":[],"stateMutability":"nonpayable","type":"function"},{"inputs":[],"name":"paused","outputs":[{"internalType":"bool","name":"","type":"bool"}],"stateMutability":"view","type":"function"},{"inputs":[{"internalType":"uint256","name":"_amount","type":"uint256"},{"internalType":"address","name":"_curvePoolAddress","type":"address"},{"internalType":"uint256","name":"_IBTindexInCurve","type":"uint256"},{"internalType":"uint256","name":"_PTindexInCurve","type":"uint256"}],"name":"previewBuyDiscountedAsset","outputs":[{"internalType":"uint256","name":"","type":"uint256"}],"stateMutability":"view","type":"function"},{"inputs":[{"internalType":"address","name":"_curvePool","type":"address"},{"internalType":"uint256","name":"_inputTokenIndex","type":"uint256"},{"internalType":"uint256","name":"_outputTokenIndex","type":"uint256"},{"internalType":"uint256","name":"_dx","type":"uint256"}],"name":"previewClaimPTEarly","outputs":[{"internalType":"uint256","name":"","type":"uint256"}],"stateMutability":"view","type":"function"},{"inputs":[{"internalType":"address","name":"_ptToken","type":"address"},{"internalType":"uint256","name":"_amount","type":"uint256"}],"name":"redeemDiscountedAsset","outputs":[],"stateMutability":"nonpayable","type":"function"},{"inputs":[],"name":"registry","outputs":[{"internalType":"contract IRegistry","name":"","type":"address"}],"stateMutability":"view","type":"function"},{"inputs":[],"name":"renounceOwnership","outputs":[],"stateMutability":"nonpayable","type":"function"},{"inputs":[{"internalType":"address","name":"_IBT","type":"address"},{"internalType":"uint256","name":"_newFee","type":"uint256"}],"name":"setBuyFee","outputs":[],"stateMutability":"nonpayable","type":"function"},{"inputs":[{"internalType":"address","name":"_PT","type":"address"},{"internalType":"uint256","name":"_newFee","type":"uint256"}],"name":"setSellEarlyFee","outputs":[],"stateMutability":"nonpayable","type":"function"},{"inputs":[{"internalType":"address","name":"newOwner","type":"address"}],"name":"transferOwnership","outputs":[],"stateMutability":"nonpayable","type":"function"},{"inputs":[],"name":"unpause","outputs":[],"stateMutability":"nonpayable","type":"function"},{"inputs":[{"internalType":"address","name":"_newRegistry","type":"address"}],"name":"updateRegistry","outputs":[],"stateMutability":"nonpayable","type":"function"}],"evm":{"bytecode":{"linkReferences":{},"object":"608060405234801561001057600080fd5b5061001961001e565b6100d0565b7ff0c57e16840df040f15088dc2f81fe391c3923bec73e23a9662efc9c229c6a00805468010000000000000000900460ff161561006e5760405163f92ee8a960e01b815260040160405180910390fd5b80546001600160401b03908116146100cd5780546001600160401b0319166001600160401b0390811782556040519081527fc7f505b2f371ae2175ee4913f4499e1f2633a7b5936321eed1cdaeb6115181d29060200160405180910390a15b50565b6116ae806100df6000396000f3fe608060405234801561001057600080fd5b50600436106101215760003560e01c8063637777ef116100ad5780638da5cb5b116100715780638da5cb5b146102625780639f3254061461026a578063cbdadba01461027d578063ee63250f146102a6578063f2fde38b146102b957600080fd5b8063637777ef14610201578063715018a6146102145780637b1039991461021c5780638456cb59146102475780638662fac21461024f57600080fd5b806334161658116100f457806334161658146101875780633f4ba83a1461019a578063485cc955146101a25780635237cf58146101b55780635c975abb146101de57600080fd5b8063029354321461012657806318d3af281461013b5780631a5da6c8146101615780632ec0ff6c14610174575b600080fd5b610139610134366004611343565b6102cc565b005b61014e610149366004611387565b610689565b6040519081526020015b60405180910390f35b61013961016f3660046113c4565b6107bc565b6101396101823660046113e8565b6107e6565b6101396101953660046113e8565b61087b565b6101396108fb565b6101396101b0366004611414565b61090d565b61014e6101c33660046113c4565b6001600160a01b031660009081526002602052604090205490565b6000805160206116598339815191525460ff166040519015158152602001610158565b61014e61020f36600461144d565b610a41565b610139610b5e565b60005461022f906001600160a01b031681565b6040516001600160a01b039091168152602001610158565b610139610b70565b61013961025d366004611488565b610b80565b61022f610d79565b6101396102783660046113e8565b610da7565b61014e61028b3660046113c4565b6001600160a01b031660009081526001602052604090205490565b6101396102b43660046113e8565b610dcb565b6101396102c73660046113c4565b610def565b6102d4610e32565b60405163c661065760e01b8152600481018590526000906001600160a01b0387169063c661065790602401602060405180830381865afa15801561031c573d6000803e3d6000fd5b505050506040513d601f19601f8201168201806040525081019061034091906114d0565b6040516323b872dd60e01b8152336004820152306024820152604481018590529091506001600160a01b038216906323b872dd906064016020604051808303816000875af1158015610396573d6000803e3d6000fd5b505050506040513d601f19601f820116820180604052508101906103ba91906114ed565b5060405163095ea7b360e01b81526001600160a01b0387811660048301526024820185905282169063095ea7b3906044016020604051808303816000875af115801561040a573d6000803e3d6000fd5b505050506040513d601f19601f8201168201806040525081019061042e91906114ed565b506001600160a01b03811660009081526002602052604081205490036104e15760405163ce7d650360e01b815260048101869052602481018590526044810184905260648101839052600060848201523360a48201526001600160a01b0387169063ce7d65039060c4016020604051808303816000875af11580156104b7573d6000803e3d6000fd5b505050506040513d601f19601f820116820180604052508101906104db919061150f565b50610681565b60405163ce7d650360e01b8152600481018690526024810185905260448101849052606481018390526000608482018190523060a4830152906001600160a01b0388169063ce7d65039060c4016020604051808303816000875af115801561054d573d6000803e3d6000fd5b505050506040513d601f19601f82011682018060405250810190610571919061150f565b6001600160a01b03831660009081526002602052604081205491925090610599908390610e63565b60405163c661065760e01b8152600481018890529091506000906001600160a01b038a169063c661065790602401602060405180830381865afa1580156105e4573d6000803e3d6000fd5b505050506040513d601f19601f8201168201806040525081019061060891906114d0565b60405163a9059cbb60e01b8152336004820152602481018490529091506001600160a01b0382169063a9059cbb906044016020604051808303816000875af1158015610658573d6000803e3d6000fd5b505050506040513d601f19601f8201168201806040525081019061067c91906114ed565b505050505b505050505050565b60008060008061069d888888886000610ea7565b5092509250925060008060009054906101000a90046001600160a01b03166001600160a01b031663b0f479a16040518163ffffffff1660e01b8152600401602060405180830381865afa1580156106f8573d6000803e3d6000fd5b505050506040513d601f19601f8201168201806040525081019061071c91906114d0565b90506b033b2e3c9fd0803ce800000082826001600160a01b03166369dfa6c287876040518363ffffffff1660e01b815260040161075a92919061156e565b602060405180830381865afa158015610777573d6000803e3d6000fd5b505050506040513d601f19601f8201168201806040525081019061079b919061150f565b6107a591906115f6565b6107af919061160d565b9998505050505050505050565b6107c461111f565b600080546001600160a01b0319166001600160a01b0392909216919091179055565b6107ee61111f565b816001600160a01b031663a9059cbb610805610d79565b6040516001600160e01b031960e084901b1681526001600160a01b039091166004820152602481018490526044016020604051808303816000875af1158015610852573d6000803e3d6000fd5b505050506040513d601f19601f8201168201806040525081019061087691906114ed565b505050565b610883610e32565b604051635d043b2960e11b815260048101829052336024820181905260448201526001600160a01b0383169063ba087652906064016020604051808303816000875af11580156108d7573d6000803e3d6000fd5b505050506040513d601f19601f82011682018060405250810190610876919061150f565b61090361111f565b61090b611151565b565b7ff0c57e16840df040f15088dc2f81fe391c3923bec73e23a9662efc9c229c6a008054600160401b810460ff16159067ffffffffffffffff166000811580156109535750825b905060008267ffffffffffffffff1660011480156109705750303b155b90508115801561097e575080155b1561099c5760405163f92ee8a960e01b815260040160405180910390fd5b845467ffffffffffffffff1916600117855583156109c657845460ff60401b1916600160401b1785555b6109ce6111b1565b6109d7876111c1565b600080546001600160a01b0319166001600160a01b0388161790558315610a3857845460ff60401b19168555604051600181527fc7f505b2f371ae2175ee4913f4499e1f2633a7b5936321eed1cdaeb6115181d29060200160405180910390a15b50505050505050565b60405163c661065760e01b81526004810184905260009081906001600160a01b0387169063c661065790602401602060405180830381865afa158015610a8b573d6000803e3d6000fd5b505050506040513d601f19601f82011682018060405250810190610aaf91906114d0565b60405163556d6e9f60e01b81526004810187905260248101869052604481018590529091506000906001600160a01b0388169063556d6e9f90606401602060405180830381865afa158015610b08573d6000803e3d6000fd5b505050506040513d601f19601f82011682018060405250810190610b2c919061150f565b6001600160a01b038316600090815260026020526040902054909150610b53908290610e63565b979650505050505050565b610b6661111f565b61090b60006111d2565b610b7861111f565b61090b611243565b610b88610e32565b600080600080610b9b8989898989610ea7565b6040516323b872dd60e01b8152336004820152306024820152604481018e9052939750919550935091506001600160a01b038216906323b872dd906064016020604051808303816000875af1158015610bf8573d6000803e3d6000fd5b505050506040513d601f19601f82011682018060405250810190610c1c91906114ed565b5060008060009054906101000a90046001600160a01b03166001600160a01b031663b0f479a16040518163ffffffff1660e01b8152600401602060405180830381865afa158015610c71573d6000803e3d6000fd5b505050506040513d601f19601f82011682018060405250810190610c9591906114d0565b60405163095ea7b360e01b81526001600160a01b038083166004830152602482018690529192509083169063095ea7b3906044016020604051808303816000875af1158015610ce8573d6000803e3d6000fd5b505050506040513d601f19601f82011682018060405250810190610d0c91906114ed565b506040516324856bc360e01b81526001600160a01b038216906324856bc390610d3b908890889060040161156e565b600060405180830381600087803b158015610d5557600080fd5b505af1158015610d69573d6000803e3d6000fd5b5050505050505050505050505050565b7f9016d09d72d40fdae2fd8ceac6b6234c7706214fd39c1cd1e609a0528c199300546001600160a01b031690565b610daf61111f565b6001600160a01b03909116600090815260016020526040902055565b610dd361111f565b6001600160a01b03909116600090815260026020526040902055565b610df761111f565b6001600160a01b038116610e2657604051631e4fbdf760e01b8152600060048201526024015b60405180910390fd5b610e2f816111d2565b50565b6000805160206116598339815191525460ff161561090b5760405163d93c066560e01b815260040160405180910390fd5b6000670de0b6b3a7640000610e7a8361271061162f565b610e8490856115f6565b610e9490655af3107a40006115f6565b610e9e919061160d565b90505b92915050565b6060806000806000886001600160a01b031663c6610657896040518263ffffffff1660e01b8152600401610edd91815260200190565b602060405180830381865afa158015610efa573d6000803e3d6000fd5b505050506040513d601f19601f82011682018060405250810190610f1e91906114d0565b9050806001600160a01b03166338d52e0f6040518163ffffffff1660e01b8152600401602060405180830381865afa158015610f5e573d6000803e3d6000fd5b505050506040513d601f19601f82011682018060405250810190610f8291906114d0565b60405160006020820152600160fa1b6021820152600360f81b602282015290925060230160408051808303601f190181526003808452608084019092529650816020015b6060815260200190600190039081610fc65750506001600160a01b038216600090815260016020526040902054909450611001908b90610e63565b604080516001600160a01b03851660208201529081018290529093506060016040516020818303038152906040528460008151811061104257611042611642565b602090810291909101810191909152604080516001600160a01b03841692810192909252600160ff1b9082015260e060608201526080016040516020818303038152906040528460018151811061109b5761109b611642565b602090810291909101810191909152604080516001600160a01b038c1692810192909252810189905260608101889052600160ff1b608082015260a081018790523360c082015260e0016040516020818303038152906040528460028151811061110757611107611642565b60200260200101819052505095509550955095915050565b33611128610d79565b6001600160a01b03161461090b5760405163118cdaa760e01b8152336004820152602401610e1d565b61115961128c565b600080516020611659833981519152805460ff191681557f5db9ee0a495bf2e6ff9c91a7834c1ba4fdd244a5e8aa4e537bd38aeae4b073aa335b6040516001600160a01b03909116815260200160405180910390a150565b6111b96112bc565b61090b611305565b6111c96112bc565b610e2f81611326565b7f9016d09d72d40fdae2fd8ceac6b6234c7706214fd39c1cd1e609a0528c19930080546001600160a01b031981166001600160a01b03848116918217845560405192169182907f8be0079c531659141344cd1fd0a4f28419497f9722a3daafe3b4186f6b6457e090600090a3505050565b61124b610e32565b600080516020611659833981519152805460ff191660011781557f62e78cea01bee320cd4e420270b5ea74000d11b0c9f74754ebdbfc544b05a25833611193565b6000805160206116598339815191525460ff1661090b57604051638dfc202b60e01b815260040160405180910390fd5b7ff0c57e16840df040f15088dc2f81fe391c3923bec73e23a9662efc9c229c6a0054600160401b900460ff1661090b57604051631afcd79f60e31b815260040160405180910390fd5b61130d6112bc565b600080516020611659833981519152805460ff19169055565b610df76112bc565b6001600160a01b0381168114610e2f57600080fd5b600080600080600060a0868803121561135b57600080fd5b85356113668161132e565b97602087013597506040870135966060810135965060800135945092505050565b6000806000806080858703121561139d57600080fd5b8435935060208501356113af8161132e565b93969395505050506040820135916060013590565b6000602082840312156113d657600080fd5b81356113e18161132e565b9392505050565b600080604083850312156113fb57600080fd5b82356114068161132e565b946020939093013593505050565b6000806040838503121561142757600080fd5b82356114328161132e565b915060208301356114428161132e565b809150509250929050565b6000806000806080858703121561146357600080fd5b843561146e8161132e565b966020860135965060408601359560600135945092505050565b600080600080600060a086880312156114a057600080fd5b8535945060208601356114b28161132e565b94979496505050506040830135926060810135926080909101359150565b6000602082840312156114e257600080fd5b81516113e18161132e565b6000602082840312156114ff57600080fd5b815180151581146113e157600080fd5b60006020828403121561152157600080fd5b5051919050565b6000815180845260005b8181101561154e57602081850181015186830182015201611532565b506000602082860101526020601f19601f83011685010191505092915050565b6040815260006115816040830185611528565b6020838203818501528185518084528284019150828160051b85010183880160005b838110156115d157601f198784030185526115bf838351611528565b948601949250908501906001016115a3565b50909998505050505050505050565b634e487b7160e01b600052601160045260246000fd5b8082028115828204841417610ea157610ea16115e0565b60008261162a57634e487b7160e01b600052601260045260246000fd5b500490565b81810381811115610ea157610ea16115e0565b634e487b7160e01b600052603260045260246000fdfecd5ed15c6e187e77e9aee88184c21f4f2182ab5827cb3b7e07fbedcd63f03300a264697066735822122077aa3520b3c429d09df916d491fc6d110e100ae09419b835e4171277698379ff64736f6c63430008180033","opcodes":"PUSH1 0x80 PUSH1 0x40 MSTORE CALLVALUE DUP1 ISZERO PUSH2 0x10 JUMPI PUSH1 0x0 DUP1 REVERT JUMPDEST POP PUSH2 0x19 PUSH2 0x1E JUMP JUMPDEST PUSH2 0xD0 JUMP JUMPDEST PUSH32 0xF0C57E16840DF040F15088DC2F81FE391C3923BEC73E23A9662EFC9C229C6A00 DUP1 SLOAD PUSH9 0x10000000000000000 SWAP1 DIV PUSH1 0xFF AND ISZERO PUSH2 0x6E JUMPI PUSH1 0x40 MLOAD PUSH4 0xF92EE8A9 PUSH1 0xE0 SHL DUP2 MSTORE PUSH1 0x4 ADD PUSH1 0x40 MLOAD DUP1 SWAP2 SUB SWAP1 REVERT JUMPDEST DUP1 SLOAD PUSH1 0x1 PUSH1 0x1 PUSH1 0x40 SHL SUB SWAP1 DUP2 AND EQ PUSH2 0xCD JUMPI DUP1 SLOAD PUSH1 0x1 PUSH1 0x1 PUSH1 0x40 SHL SUB NOT AND PUSH1 0x1 PUSH1 0x1 PUSH1 0x40 SHL SUB SWAP1 DUP2 OR DUP3 SSTORE PUSH1 0x40 MLOAD SWAP1 DUP2 MSTORE PUSH32 0xC7F505B2F371AE2175EE4913F4499E1F2633A7B5936321EED1CDAEB6115181D2 SWAP1 PUSH1 0x20 ADD PUSH1 0x40 MLOAD DUP1 SWAP2 SUB SWAP1 LOG1 JUMPDEST POP JUMP JUMPDEST PUSH2 0x16AE DUP1 PUSH2 0xDF PUSH1 0x0 CODECOPY PUSH1 0x0 RETURN INVALID PUSH1 0x80 PUSH1 0x40 MSTORE CALLVALUE DUP1 ISZERO PUSH2 0x10 JUMPI PUSH1 0x0 DUP1 REVERT JUMPDEST POP PUSH1 0x4 CALLDATASIZE LT PUSH2 0x121 JUMPI PUSH1 0x0 CALLDATALOAD PUSH1 0xE0 SHR DUP1 PUSH4 0x637777EF GT PUSH2 0xAD JUMPI DUP1 PUSH4 0x8DA5CB5B GT PUSH2 0x71 JUMPI DUP1 PUSH4 0x8DA5CB5B EQ PUSH2 0x262 JUMPI DUP1 PUSH4 0x9F325406 EQ PUSH2 0x26A JUMPI DUP1 PUSH4 0xCBDADBA0 EQ PUSH2 0x27D JUMPI DUP1 PUSH4 0xEE63250F EQ PUSH2 0x2A6 JUMPI DUP1 PUSH4 0xF2FDE38B EQ PUSH2 0x2B9 JUMPI PUSH1 0x0 DUP1 REVERT JUMPDEST DUP1 PUSH4 0x637777EF EQ PUSH2 0x201 JUMPI DUP1 PUSH4 0x715018A6 EQ PUSH2 0x214 JUMPI DUP1 PUSH4 0x7B103999 EQ PUSH2 0x21C JUMPI DUP1 PUSH4 0x8456CB59 EQ PUSH2 0x247 JUMPI DUP1 PUSH4 0x8662FAC2 EQ PUSH2 0x24F JUMPI PUSH1 0x0 DUP1 REVERT JUMPDEST DUP1 PUSH4 0x34161658 GT PUSH2 0xF4 JUMPI DUP1 PUSH4 0x34161658 EQ PUSH2 0x187 JUMPI DUP1 PUSH4 0x3F4BA83A EQ PUSH2 0x19A JUMPI DUP1 PUSH4 0x485CC955 EQ PUSH2 0x1A2 JUMPI DUP1 PUSH4 0x5237CF58 EQ PUSH2 0x1B5 JUMPI DUP1 PUSH4 0x5C975ABB EQ PUSH2 0x1DE JUMPI PUSH1 0x0 DUP1 REVERT JUMPDEST DUP1 PUSH4 0x2935432 EQ PUSH2 0x126 JUMPI DUP1 PUSH4 0x18D3AF28 EQ PUSH2 0x13B JUMPI DUP1 PUSH4 0x1A5DA6C8 EQ PUSH2 0x161 JUMPI DUP1 PUSH4 0x2EC0FF6C EQ PUSH2 0x174 JUMPI JUMPDEST PUSH1 0x0 DUP1 REVERT JUMPDEST PUSH2 0x139 PUSH2 0x134 CALLDATASIZE PUSH1 0x4 PUSH2 0x1343 JUMP JUMPDEST PUSH2 0x2CC JUMP JUMPDEST STOP JUMPDEST PUSH2 0x14E PUSH2 0x149 CALLDATASIZE PUSH1 0x4 PUSH2 0x1387 JUMP JUMPDEST PUSH2 0x689 JUMP JUMPDEST PUSH1 0x40 MLOAD SWAP1 DUP2 MSTORE PUSH1 0x20 ADD JUMPDEST PUSH1 0x40 MLOAD DUP1 SWAP2 SUB SWAP1 RETURN JUMPDEST PUSH2 0x139 PUSH2 0x16F CALLDATASIZE PUSH1 0x4 PUSH2 0x13C4 JUMP JUMPDEST PUSH2 0x7BC JUMP JUMPDEST PUSH2 0x139 PUSH2 0x182 CALLDATASIZE PUSH1 0x4 PUSH2 0x13E8 JUMP JUMPDEST PUSH2 0x7E6 JUMP JUMPDEST PUSH2 0x139 PUSH2 0x195 CALLDATASIZE PUSH1 0x4 PUSH2 0x13E8 JUMP JUMPDEST PUSH2 0x87B JUMP JUMPDEST PUSH2 0x139 PUSH2 0x8FB JUMP JUMPDEST PUSH2 0x139 PUSH2 0x1B0 CALLDATASIZE PUSH1 0x4 PUSH2 0x1414 JUMP JUMPDEST PUSH2 0x90D JUMP JUMPDEST PUSH2 0x14E PUSH2 0x1C3 CALLDATASIZE PUSH1 0x4 PUSH2 0x13C4 JUMP JUMPDEST PUSH1 0x1 PUSH1 0x1 PUSH1 0xA0 SHL SUB AND PUSH1 0x0 SWAP1 DUP2 MSTORE PUSH1 0x2 PUSH1 0x20 MSTORE PUSH1 0x40 SWAP1 KECCAK256 SLOAD SWAP1 JUMP JUMPDEST PUSH1 0x0 DUP1 MLOAD PUSH1 0x20 PUSH2 0x1659 DUP4 CODECOPY DUP2 MLOAD SWAP2 MSTORE SLOAD PUSH1 0xFF AND PUSH1 0x40 MLOAD SWAP1 ISZERO ISZERO DUP2 MSTORE PUSH1 0x20 ADD PUSH2 0x158 JUMP JUMPDEST PUSH2 0x14E PUSH2 0x20F CALLDATASIZE PUSH1 0x4 PUSH2 0x144D JUMP JUMPDEST PUSH2 0xA41 JUMP JUMPDEST PUSH2 0x139 PUSH2 0xB5E JUMP JUMPDEST PUSH1 0x0 SLOAD PUSH2 0x22F SWAP1 PUSH1 0x1 PUSH1 0x1 PUSH1 0xA0 SHL SUB AND DUP2 JUMP JUMPDEST PUSH1 0x40 MLOAD PUSH1 0x1 PUSH1 0x1 PUSH1 0xA0 SHL SUB SWAP1 SWAP2 AND DUP2 MSTORE PUSH1 0x20 ADD PUSH2 0x158 JUMP JUMPDEST PUSH2 0x139 PUSH2 0xB70 JUMP JUMPDEST PUSH2 0x139 PUSH2 0x25D CALLDATASIZE PUSH1 0x4 PUSH2 0x1488 JUMP JUMPDEST PUSH2 0xB80 JUMP JUMPDEST PUSH2 0x22F PUSH2 0xD79 JUMP JUMPDEST PUSH2 0x139 PUSH2 0x278 CALLDATASIZE PUSH1 0x4 PUSH2 0x13E8 JUMP JUMPDEST PUSH2 0xDA7 JUMP JUMPDEST PUSH2 0x14E PUSH2 0x28B CALLDATASIZE PUSH1 0x4 PUSH2 0x13C4 JUMP JUMPDEST PUSH1 0x1 PUSH1 0x1 PUSH1 0xA0 SHL SUB AND PUSH1 0x0 SWAP1 DUP2 MSTORE PUSH1 0x1 PUSH1 0x20 MSTORE PUSH1 0x40 SWAP1 KECCAK256 SLOAD SWAP1 JUMP JUMPDEST PUSH2 0x139 PUSH2 0x2B4 CALLDATASIZE PUSH1 0x4 PUSH2 0x13E8 JUMP JUMPDEST PUSH2 0xDCB JUMP JUMPDEST PUSH2 0x139 PUSH2 0x2C7 CALLDATASIZE PUSH1 0x4 PUSH2 0x13C4 JUMP JUMPDEST PUSH2 0xDEF JUMP JUMPDEST PUSH2 0x2D4 PUSH2 0xE32 JUMP JUMPDEST PUSH1 0x40 MLOAD PUSH4 0xC6610657 PUSH1 0xE0 SHL DUP2 MSTORE PUSH1 0x4 DUP2 ADD DUP6 SWAP1 MSTORE PUSH1 0x0 SWAP1 PUSH1 0x1 PUSH1 0x1 PUSH1 0xA0 SHL SUB DUP8 AND SWAP1 PUSH4 0xC6610657 SWAP1 PUSH1 0x24 ADD PUSH1 0x20 PUSH1 0x40 MLOAD DUP1 DUP4 SUB DUP2 DUP7 GAS STATICCALL ISZERO DUP1 ISZERO PUSH2 0x31C JUMPI RETURNDATASIZE PUSH1 0x0 DUP1 RETURNDATACOPY RETURNDATASIZE PUSH1 0x0 REVERT JUMPDEST POP POP POP POP PUSH1 0x40 MLOAD RETURNDATASIZE PUSH1 0x1F NOT PUSH1 0x1F DUP3 ADD AND DUP3 ADD DUP1 PUSH1 0x40 MSTORE POP DUP2 ADD SWAP1 PUSH2 0x340 SWAP2 SWAP1 PUSH2 0x14D0 JUMP JUMPDEST PUSH1 0x40 MLOAD PUSH4 0x23B872DD PUSH1 0xE0 SHL DUP2 MSTORE CALLER PUSH1 0x4 DUP3 ADD MSTORE ADDRESS PUSH1 0x24 DUP3 ADD MSTORE PUSH1 0x44 DUP2 ADD DUP6 SWAP1 MSTORE SWAP1 SWAP2 POP PUSH1 0x1 PUSH1 0x1 PUSH1 0xA0 SHL SUB DUP3 AND SWAP1 PUSH4 0x23B872DD SWAP1 PUSH1 0x64 ADD PUSH1 0x20 PUSH1 0x40 MLOAD DUP1 DUP4 SUB DUP2 PUSH1 0x0 DUP8 GAS CALL ISZERO DUP1 ISZERO PUSH2 0x396 JUMPI RETURNDATASIZE PUSH1 0x0 DUP1 RETURNDATACOPY RETURNDATASIZE PUSH1 0x0 REVERT JUMPDEST POP POP POP POP PUSH1 0x40 MLOAD RETURNDATASIZE PUSH1 0x1F NOT PUSH1 0x1F DUP3 ADD AND DUP3 ADD DUP1 PUSH1 0x40 MSTORE POP DUP2 ADD SWAP1 PUSH2 0x3BA SWAP2 SWAP1 PUSH2 0x14ED JUMP JUMPDEST POP PUSH1 0x40 MLOAD PUSH4 0x95EA7B3 PUSH1 0xE0 SHL DUP2 MSTORE PUSH1 0x1 PUSH1 0x1 PUSH1 0xA0 SHL SUB DUP8 DUP2 AND PUSH1 0x4 DUP4 ADD MSTORE PUSH1 0x24 DUP3 ADD DUP6 SWAP1 MSTORE DUP3 AND SWAP1 PUSH4 0x95EA7B3 SWAP1 PUSH1 0x44 ADD PUSH1 0x20 PUSH1 0x40 MLOAD DUP1 DUP4 SUB DUP2 PUSH1 0x0 DUP8 GAS CALL ISZERO DUP1 ISZERO PUSH2 0x40A JUMPI RETURNDATASIZE PUSH1 0x0 DUP1 RETURNDATACOPY RETURNDATASIZE PUSH1 0x0 REVERT JUMPDEST POP POP POP POP PUSH1 0x40 MLOAD RETURNDATASIZE PUSH1 0x1F NOT PUSH1 0x1F DUP3 ADD AND DUP3 ADD DUP1 PUSH1 0x40 MSTORE POP DUP2 ADD SWAP1 PUSH2 0x42E SWAP2 SWAP1 PUSH2 0x14ED JUMP JUMPDEST POP PUSH1 0x1 PUSH1 0x1 PUSH1 0xA0 SHL SUB DUP2 AND PUSH1 0x0 SWAP1 DUP2 MSTORE PUSH1 0x2 PUSH1 0x20 MSTORE PUSH1 0x40 DUP2 KECCAK256 SLOAD SWAP1 SUB PUSH2 0x4E1 JUMPI PUSH1 0x40 MLOAD PUSH4 0xCE7D6503 PUSH1 0xE0 SHL DUP2 MSTORE PUSH1 0x4 DUP2 ADD DUP7 SWAP1 MSTORE PUSH1 0x24 DUP2 ADD DUP6 SWAP1 MSTORE PUSH1 0x44 DUP2 ADD DUP5 SWAP1 MSTORE PUSH1 0x64 DUP2 ADD DUP4 SWAP1 MSTORE PUSH1 0x0 PUSH1 0x84 DUP3 ADD MSTORE CALLER PUSH1 0xA4 DUP3 ADD MSTORE PUSH1 0x1 PUSH1 0x1 PUSH1 0xA0 SHL SUB DUP8 AND SWAP1 PUSH4 0xCE7D6503 SWAP1 PUSH1 0xC4 ADD PUSH1 0x20 PUSH1 0x40 MLOAD DUP1 DUP4 SUB DUP2 PUSH1 0x0 DUP8 GAS CALL ISZERO DUP1 ISZERO PUSH2 0x4B7 JUMPI RETURNDATASIZE PUSH1 0x0 DUP1 RETURNDATACOPY RETURNDATASIZE PUSH1 0x0 REVERT JUMPDEST POP POP POP POP PUSH1 0x40 MLOAD RETURNDATASIZE PUSH1 0x1F NOT PUSH1 0x1F DUP3 ADD AND DUP3 ADD DUP1 PUSH1 0x40 MSTORE POP DUP2 ADD SWAP1 PUSH2 0x4DB SWAP2 SWAP1 PUSH2 0x150F JUMP JUMPDEST POP PUSH2 0x681 JUMP JUMPDEST PUSH1 0x40 MLOAD PUSH4 0xCE7D6503 PUSH1 0xE0 SHL DUP2 MSTORE PUSH1 0x4 DUP2 ADD DUP7 SWAP1 MSTORE PUSH1 0x24 DUP2 ADD DUP6 SWAP1 MSTORE PUSH1 0x44 DUP2 ADD DUP5 SWAP1 MSTORE PUSH1 0x64 DUP2 ADD DUP4 SWAP1 MSTORE PUSH1 0x0 PUSH1 0x84 DUP3 ADD DUP2 SWAP1 MSTORE ADDRESS PUSH1 0xA4 DUP4 ADD MSTORE SWAP1 PUSH1 0x1 PUSH1 0x1 PUSH1 0xA0 SHL SUB DUP9 AND SWAP1 PUSH4 0xCE7D6503 SWAP1 PUSH1 0xC4 ADD PUSH1 0x20 PUSH1 0x40 MLOAD DUP1 DUP4 SUB DUP2 PUSH1 0x0 DUP8 GAS CALL ISZERO DUP1 ISZERO PUSH2 0x54D JUMPI RETURNDATASIZE PUSH1 0x0 DUP1 RETURNDATACOPY RETURNDATASIZE PUSH1 0x0 REVERT JUMPDEST POP POP POP POP PUSH1 0x40 MLOAD RETURNDATASIZE PUSH1 0x1F NOT PUSH1 0x1F DUP3 ADD AND DUP3 ADD DUP1 PUSH1 0x40 MSTORE POP DUP2 ADD SWAP1 PUSH2 0x571 SWAP2 SWAP1 PUSH2 0x150F JUMP JUMPDEST PUSH1 0x1 PUSH1 0x1 PUSH1 0xA0 SHL SUB DUP4 AND PUSH1 0x0 SWAP1 DUP2 MSTORE PUSH1 0x2 PUSH1 0x20 MSTORE PUSH1 0x40 DUP2 KECCAK256 SLOAD SWAP2 SWAP3 POP SWAP1 PUSH2 0x599 SWAP1 DUP4 SWAP1 PUSH2 0xE63 JUMP JUMPDEST PUSH1 0x40 MLOAD PUSH4 0xC6610657 PUSH1 0xE0 SHL DUP2 MSTORE PUSH1 0x4 DUP2 ADD DUP9 SWAP1 MSTORE SWAP1 SWAP2 POP PUSH1 0x0 SWAP1 PUSH1 0x1 PUSH1 0x1 PUSH1 0xA0 SHL SUB DUP11 AND SWAP1 PUSH4 0xC6610657 SWAP1 PUSH1 0x24 ADD PUSH1 0x20 PUSH1 0x40 MLOAD DUP1 DUP4 SUB DUP2 DUP7 GAS STATICCALL ISZERO DUP1 ISZERO PUSH2 0x5E4 JUMPI RETURNDATASIZE PUSH1 0x0 DUP1 RETURNDATACOPY RETURNDATASIZE PUSH1 0x0 REVERT JUMPDEST POP POP POP POP PUSH1 0x40 MLOAD RETURNDATASIZE PUSH1 0x1F NOT PUSH1 0x1F DUP3 ADD AND DUP3 ADD DUP1 PUSH1 0x40 MSTORE POP DUP2 ADD SWAP1 PUSH2 0x608 SWAP2 SWAP1 PUSH2 0x14D0 JUMP JUMPDEST PUSH1 0x40 MLOAD PUSH4 0xA9059CBB PUSH1 0xE0 SHL DUP2 MSTORE CALLER PUSH1 0x4 DUP3 ADD MSTORE PUSH1 0x24 DUP2 ADD DUP5 SWAP1 MSTORE SWAP1 SWAP2 POP PUSH1 0x1 PUSH1 0x1 PUSH1 0xA0 SHL SUB DUP3 AND SWAP1 PUSH4 0xA9059CBB SWAP1 PUSH1 0x44 ADD PUSH1 0x20 PUSH1 0x40 MLOAD DUP1 DUP4 SUB DUP2 PUSH1 0x0 DUP8 GAS CALL ISZERO DUP1 ISZERO PUSH2 0x658 JUMPI RETURNDATASIZE PUSH1 0x0 DUP1 RETURNDATACOPY RETURNDATASIZE PUSH1 0x0 REVERT JUMPDEST POP POP POP POP PUSH1 0x40 MLOAD RETURNDATASIZE PUSH1 0x1F NOT PUSH1 0x1F DUP3 ADD AND DUP3 ADD DUP1 PUSH1 0x40 MSTORE POP DUP2 ADD SWAP1 PUSH2 0x67C SWAP2 SWAP1 PUSH2 0x14ED JUMP JUMPDEST POP POP POP POP JUMPDEST POP POP POP POP POP POP JUMP JUMPDEST PUSH1 0x0 DUP1 PUSH1 0x0 DUP1 PUSH2 0x69D DUP9 DUP9 DUP9 DUP9 PUSH1 0x0 PUSH2 0xEA7 JUMP JUMPDEST POP SWAP3 POP SWAP3 POP SWAP3 POP PUSH1 0x0 DUP1 PUSH1 0x0 SWAP1 SLOAD SWAP1 PUSH2 0x100 EXP SWAP1 DIV PUSH1 0x1 PUSH1 0x1 PUSH1 0xA0 SHL SUB AND PUSH1 0x1 PUSH1 0x1 PUSH1 0xA0 SHL SUB AND PUSH4 0xB0F479A1 PUSH1 0x40 MLOAD DUP2 PUSH4 0xFFFFFFFF AND PUSH1 0xE0 SHL DUP2 MSTORE PUSH1 0x4 ADD PUSH1 0x20 PUSH1 0x40 MLOAD DUP1 DUP4 SUB DUP2 DUP7 GAS STATICCALL ISZERO DUP1 ISZERO PUSH2 0x6F8 JUMPI RETURNDATASIZE PUSH1 0x0 DUP1 RETURNDATACOPY RETURNDATASIZE PUSH1 0x0 REVERT JUMPDEST POP POP POP POP PUSH1 0x40 MLOAD RETURNDATASIZE PUSH1 0x1F NOT PUSH1 0x1F DUP3 ADD AND DUP3 ADD DUP1 PUSH1 0x40 MSTORE POP DUP2 ADD SWAP1 PUSH2 0x71C SWAP2 SWAP1 PUSH2 0x14D0 JUMP JUMPDEST SWAP1 POP PUSH12 0x33B2E3C9FD0803CE8000000 DUP3 DUP3 PUSH1 0x1 PUSH1 0x1 PUSH1 0xA0 SHL SUB AND PUSH4 0x69DFA6C2 DUP8 DUP8 PUSH1 0x40 MLOAD DUP4 PUSH4 0xFFFFFFFF AND PUSH1 0xE0 SHL DUP2 MSTORE PUSH1 0x4 ADD PUSH2 0x75A SWAP3 SWAP2 SWAP1 PUSH2 0x156E JUMP JUMPDEST PUSH1 0x20 PUSH1 0x40 MLOAD DUP1 DUP4 SUB DUP2 DUP7 GAS STATICCALL ISZERO DUP1 ISZERO PUSH2 0x777 JUMPI RETURNDATASIZE PUSH1 0x0 DUP1 RETURNDATACOPY RETURNDATASIZE PUSH1 0x0 REVERT JUMPDEST POP POP POP POP PUSH1 0x40 MLOAD RETURNDATASIZE PUSH1 0x1F NOT PUSH1 0x1F DUP3 ADD AND DUP3 ADD DUP1 PUSH1 0x40 MSTORE POP DUP2 ADD SWAP1 PUSH2 0x79B SWAP2 SWAP1 PUSH2 0x150F JUMP JUMPDEST PUSH2 0x7A5 SWAP2 SWAP1 PUSH2 0x15F6 JUMP JUMPDEST PUSH2 0x7AF SWAP2 SWAP1 PUSH2 0x160D JUMP JUMPDEST SWAP10 SWAP9 POP POP POP POP POP POP POP POP POP JUMP JUMPDEST PUSH2 0x7C4 PUSH2 0x111F JUMP JUMPDEST PUSH1 0x0 DUP1 SLOAD PUSH1 0x1 PUSH1 0x1 PUSH1 0xA0 SHL SUB NOT AND PUSH1 0x1 PUSH1 0x1 PUSH1 0xA0 SHL SUB SWAP3 SWAP1 SWAP3 AND SWAP2 SWAP1 SWAP2 OR SWAP1 SSTORE JUMP JUMPDEST PUSH2 0x7EE PUSH2 0x111F JUMP JUMPDEST DUP2 PUSH1 0x1 PUSH1 0x1 PUSH1 0xA0 SHL SUB AND PUSH4 0xA9059CBB PUSH2 0x805 PUSH2 0xD79 JUMP JUMPDEST PUSH1 0x40 MLOAD PUSH1 0x1 PUSH1 0x1 PUSH1 0xE0 SHL SUB NOT PUSH1 0xE0 DUP5 SWAP1 SHL AND DUP2 MSTORE PUSH1 0x1 PUSH1 0x1 PUSH1 0xA0 SHL SUB SWAP1 SWAP2 AND PUSH1 0x4 DUP3 ADD MSTORE PUSH1 0x24 DUP2 ADD DUP5 SWAP1 MSTORE PUSH1 0x44 ADD PUSH1 0x20 PUSH1 0x40 MLOAD DUP1 DUP4 SUB DUP2 PUSH1 0x0 DUP8 GAS CALL ISZERO DUP1 ISZERO PUSH2 0x852 JUMPI RETURNDATASIZE PUSH1 0x0 DUP1 RETURNDATACOPY RETURNDATASIZE PUSH1 0x0 REVERT JUMPDEST POP POP POP POP PUSH1 0x40 MLOAD RETURNDATASIZE PUSH1 0x1F NOT PUSH1 0x1F DUP3 ADD AND DUP3 ADD DUP1 PUSH1 0x40 MSTORE POP DUP2 ADD SWAP1 PUSH2 0x876 SWAP2 SWAP1 PUSH2 0x14ED JUMP JUMPDEST POP POP POP JUMP JUMPDEST PUSH2 0x883 PUSH2 0xE32 JUMP JUMPDEST PUSH1 0x40 MLOAD PUSH4 0x5D043B29 PUSH1 0xE1 SHL DUP2 MSTORE PUSH1 0x4 DUP2 ADD DUP3 SWAP1 MSTORE CALLER PUSH1 0x24 DUP3 ADD DUP2 SWAP1 MSTORE PUSH1 0x44 DUP3 ADD MSTORE PUSH1 0x1 PUSH1 0x1 PUSH1 0xA0 SHL SUB DUP4 AND SWAP1 PUSH4 0xBA087652 SWAP1 PUSH1 0x64 ADD PUSH1 0x20 PUSH1 0x40 MLOAD DUP1 DUP4 SUB DUP2 PUSH1 0x0 DUP8 GAS CALL ISZERO DUP1 ISZERO PUSH2 0x8D7 JUMPI RETURNDATASIZE PUSH1 0x0 DUP1 RETURNDATACOPY RETURNDATASIZE PUSH1 0x0 REVERT JUMPDEST POP POP POP POP PUSH1 0x40 MLOAD RETURNDATASIZE PUSH1 0x1F NOT PUSH1 0x1F DUP3 ADD AND DUP3 ADD DUP1 PUSH1 0x40 MSTORE POP DUP2 ADD SWAP1 PUSH2 0x876 SWAP2 SWAP1 PUSH2 0x150F JUMP JUMPDEST PUSH2 0x903 PUSH2 0x111F JUMP JUMPDEST PUSH2 0x90B PUSH2 0x1151 JUMP JUMPDEST JUMP JUMPDEST PUSH32 0xF0C57E16840DF040F15088DC2F81FE391C3923BEC73E23A9662EFC9C229C6A00 DUP1 SLOAD PUSH1 0x1 PUSH1 0x40 SHL DUP2 DIV PUSH1 0xFF AND ISZERO SWAP1 PUSH8 0xFFFFFFFFFFFFFFFF AND PUSH1 0x0 DUP2 ISZERO DUP1 ISZERO PUSH2 0x953 JUMPI POP DUP3 JUMPDEST SWAP1 POP PUSH1 0x0 DUP3 PUSH8 0xFFFFFFFFFFFFFFFF AND PUSH1 0x1 EQ DUP1 ISZERO PUSH2 0x970 JUMPI POP ADDRESS EXTCODESIZE ISZERO JUMPDEST SWAP1 POP DUP2 ISZERO DUP1 ISZERO PUSH2 0x97E JUMPI POP DUP1 ISZERO JUMPDEST ISZERO PUSH2 0x99C JUMPI PUSH1 0x40 MLOAD PUSH4 0xF92EE8A9 PUSH1 0xE0 SHL DUP2 MSTORE PUSH1 0x4 ADD PUSH1 0x40 MLOAD DUP1 SWAP2 SUB SWAP1 REVERT JUMPDEST DUP5 SLOAD PUSH8 0xFFFFFFFFFFFFFFFF NOT AND PUSH1 0x1 OR DUP6 SSTORE DUP4 ISZERO PUSH2 0x9C6 JUMPI DUP5 SLOAD PUSH1 0xFF PUSH1 0x40 SHL NOT AND PUSH1 0x1 PUSH1 0x40 SHL OR DUP6 SSTORE JUMPDEST PUSH2 0x9CE PUSH2 0x11B1 JUMP JUMPDEST PUSH2 0x9D7 DUP8 PUSH2 0x11C1 JUMP JUMPDEST PUSH1 0x0 DUP1 SLOAD PUSH1 0x1 PUSH1 0x1 PUSH1 0xA0 SHL SUB NOT AND PUSH1 0x1 PUSH1 0x1 PUSH1 0xA0 SHL SUB DUP9 AND OR SWAP1 SSTORE DUP4 ISZERO PUSH2 0xA38 JUMPI DUP5 SLOAD PUSH1 0xFF PUSH1 0x40 SHL NOT AND DUP6 SSTORE PUSH1 0x40 MLOAD PUSH1 0x1 DUP2 MSTORE PUSH32 0xC7F505B2F371AE2175EE4913F4499E1F2633A7B5936321EED1CDAEB6115181D2 SWAP1 PUSH1 0x20 ADD PUSH1 0x40 MLOAD DUP1 SWAP2 SUB SWAP1 LOG1 JUMPDEST POP POP POP POP POP POP POP JUMP JUMPDEST PUSH1 0x40 MLOAD PUSH4 0xC6610657 PUSH1 0xE0 SHL DUP2 MSTORE PUSH1 0x4 DUP2 ADD DUP5 SWAP1 MSTORE PUSH1 0x0 SWAP1 DUP2 SWAP1 PUSH1 0x1 PUSH1 0x1 PUSH1 0xA0 SHL SUB DUP8 AND SWAP1 PUSH4 0xC6610657 SWAP1 PUSH1 0x24 ADD PUSH1 0x20 PUSH1 0x40 MLOAD DUP1 DUP4 SUB DUP2 DUP7 GAS STATICCALL ISZERO DUP1 ISZERO PUSH2 0xA8B JUMPI RETURNDATASIZE PUSH1 0x0 DUP1 RETURNDATACOPY RETURNDATASIZE PUSH1 0x0 REVERT JUMPDEST POP POP POP POP PUSH1 0x40 MLOAD RETURNDATASIZE PUSH1 0x1F NOT PUSH1 0x1F DUP3 ADD AND DUP3 ADD DUP1 PUSH1 0x40 MSTORE POP DUP2 ADD SWAP1 PUSH2 0xAAF SWAP2 SWAP1 PUSH2 0x14D0 JUMP JUMPDEST PUSH1 0x40 MLOAD PUSH4 0x556D6E9F PUSH1 0xE0 SHL DUP2 MSTORE PUSH1 0x4 DUP2 ADD DUP8 SWAP1 MSTORE PUSH1 0x24 DUP2 ADD DUP7 SWAP1 MSTORE PUSH1 0x44 DUP2 ADD DUP6 SWAP1 MSTORE SWAP1 SWAP2 POP PUSH1 0x0 SWAP1 PUSH1 0x1 PUSH1 0x1 PUSH1 0xA0 SHL SUB DUP9 AND SWAP1 PUSH4 0x556D6E9F SWAP1 PUSH1 0x64 ADD PUSH1 0x20 PUSH1 0x40 MLOAD DUP1 DUP4 SUB DUP2 DUP7 GAS STATICCALL ISZERO DUP1 ISZERO PUSH2 0xB08 JUMPI RETURNDATASIZE PUSH1 0x0 DUP1 RETURNDATACOPY RETURNDATASIZE PUSH1 0x0 REVERT JUMPDEST POP POP POP POP PUSH1 0x40 MLOAD RETURNDATASIZE PUSH1 0x1F NOT PUSH1 0x1F DUP3 ADD AND DUP3 ADD DUP1 PUSH1 0x40 MSTORE POP DUP2 ADD SWAP1 PUSH2 0xB2C SWAP2 SWAP1 PUSH2 0x150F JUMP JUMPDEST PUSH1 0x1 PUSH1 0x1 PUSH1 0xA0 SHL SUB DUP4 AND PUSH1 0x0 SWAP1 DUP2 MSTORE PUSH1 0x2 PUSH1 0x20 MSTORE PUSH1 0x40 SWAP1 KECCAK256 SLOAD SWAP1 SWAP2 POP PUSH2 0xB53 SWAP1 DUP3 SWAP1 PUSH2 0xE63 JUMP JUMPDEST SWAP8 SWAP7 POP POP POP POP POP POP POP JUMP JUMPDEST PUSH2 0xB66 PUSH2 0x111F JUMP JUMPDEST PUSH2 0x90B PUSH1 0x0 PUSH2 0x11D2 JUMP JUMPDEST PUSH2 0xB78 PUSH2 0x111F JUMP JUMPDEST PUSH2 0x90B PUSH2 0x1243 JUMP JUMPDEST PUSH2 0xB88 PUSH2 0xE32 JUMP JUMPDEST PUSH1 0x0 DUP1 PUSH1 0x0 DUP1 PUSH2 0xB9B DUP10 DUP10 DUP10 DUP10 DUP10 PUSH2 0xEA7 JUMP JUMPDEST PUSH1 0x40 MLOAD PUSH4 0x23B872DD PUSH1 0xE0 SHL DUP2 MSTORE CALLER PUSH1 0x4 DUP3 ADD MSTORE ADDRESS PUSH1 0x24 DUP3 ADD MSTORE PUSH1 0x44 DUP2 ADD DUP15 SWAP1 MSTORE SWAP4 SWAP8 POP SWAP2 SWAP6 POP SWAP4 POP SWAP2 POP PUSH1 0x1 PUSH1 0x1 PUSH1 0xA0 SHL SUB DUP3 AND SWAP1 PUSH4 0x23B872DD SWAP1 PUSH1 0x64 ADD PUSH1 0x20 PUSH1 0x40 MLOAD DUP1 DUP4 SUB DUP2 PUSH1 0x0 DUP8 GAS CALL ISZERO DUP1 ISZERO PUSH2 0xBF8 JUMPI RETURNDATASIZE PUSH1 0x0 DUP1 RETURNDATACOPY RETURNDATASIZE PUSH1 0x0 REVERT JUMPDEST POP POP POP POP PUSH1 0x40 MLOAD RETURNDATASIZE PUSH1 0x1F NOT PUSH1 0x1F DUP3 ADD AND DUP3 ADD DUP1 PUSH1 0x40 MSTORE POP DUP2 ADD SWAP1 PUSH2 0xC1C SWAP2 SWAP1 PUSH2 0x14ED JUMP JUMPDEST POP PUSH1 0x0 DUP1 PUSH1 0x0 SWAP1 SLOAD SWAP1 PUSH2 0x100 EXP SWAP1 DIV PUSH1 0x1 PUSH1 0x1 PUSH1 0xA0 SHL SUB AND PUSH1 0x1 PUSH1 0x1 PUSH1 0xA0 SHL SUB AND PUSH4 0xB0F479A1 PUSH1 0x40 MLOAD DUP2 PUSH4 0xFFFFFFFF AND PUSH1 0xE0 SHL DUP2 MSTORE PUSH1 0x4 ADD PUSH1 0x20 PUSH1 0x40 MLOAD DUP1 DUP4 SUB DUP2 DUP7 GAS STATICCALL ISZERO DUP1 ISZERO PUSH2 0xC71 JUMPI RETURNDATASIZE PUSH1 0x0 DUP1 RETURNDATACOPY RETURNDATASIZE PUSH1 0x0 REVERT JUMPDEST POP POP POP POP PUSH1 0x40 MLOAD RETURNDATASIZE PUSH1 0x1F NOT PUSH1 0x1F DUP3 ADD AND DUP3 ADD DUP1 PUSH1 0x40 MSTORE POP DUP2 ADD SWAP1 PUSH2 0xC95 SWAP2 SWAP1 PUSH2 0x14D0 JUMP JUMPDEST PUSH1 0x40 MLOAD PUSH4 0x95EA7B3 PUSH1 0xE0 SHL DUP2 MSTORE PUSH1 0x1 PUSH1 0x1 PUSH1 0xA0 SHL SUB DUP1 DUP4 AND PUSH1 0x4 DUP4 ADD MSTORE PUSH1 0x24 DUP3 ADD DUP7 SWAP1 MSTORE SWAP2 SWAP3 POP SWAP1 DUP4 AND SWAP1 PUSH4 0x95EA7B3 SWAP1 PUSH1 0x44 ADD PUSH1 0x20 PUSH1 0x40 MLOAD DUP1 DUP4 SUB DUP2 PUSH1 0x0 DUP8 GAS CALL ISZERO DUP1 ISZERO PUSH2 0xCE8 JUMPI RETURNDATASIZE PUSH1 0x0 DUP1 RETURNDATACOPY RETURNDATASIZE PUSH1 0x0 REVERT JUMPDEST POP POP POP POP PUSH1 0x40 MLOAD RETURNDATASIZE PUSH1 0x1F NOT PUSH1 0x1F DUP3 ADD AND DUP3 ADD DUP1 PUSH1 0x40 MSTORE POP DUP2 ADD SWAP1 PUSH2 0xD0C SWAP2 SWAP1 PUSH2 0x14ED JUMP JUMPDEST POP PUSH1 0x40 MLOAD PUSH4 0x24856BC3 PUSH1 0xE0 SHL DUP2 MSTORE PUSH1 0x1 PUSH1 0x1 PUSH1 0xA0 SHL SUB DUP3 AND SWAP1 PUSH4 0x24856BC3 SWAP1 PUSH2 0xD3B SWAP1 DUP9 SWAP1 DUP9 SWAP1 PUSH1 0x4 ADD PUSH2 0x156E JUMP JUMPDEST PUSH1 0x0 PUSH1 0x40 MLOAD DUP1 DUP4 SUB DUP2 PUSH1 0x0 DUP8 DUP1 EXTCODESIZE ISZERO DUP1 ISZERO PUSH2 0xD55 JUMPI PUSH1 0x0 DUP1 REVERT JUMPDEST POP GAS CALL ISZERO DUP1 ISZERO PUSH2 0xD69 JUMPI RETURNDATASIZE PUSH1 0x0 DUP1 RETURNDATACOPY RETURNDATASIZE PUSH1 0x0 REVERT JUMPDEST POP POP POP POP POP POP POP POP POP POP POP POP POP POP JUMP JUMPDEST PUSH32 0x9016D09D72D40FDAE2FD8CEAC6B6234C7706214FD39C1CD1E609A0528C199300 SLOAD PUSH1 0x1 PUSH1 0x1 PUSH1 0xA0 SHL SUB AND SWAP1 JUMP JUMPDEST PUSH2 0xDAF PUSH2 0x111F JUMP JUMPDEST PUSH1 0x1 PUSH1 0x1 PUSH1 0xA0 SHL SUB SWAP1 SWAP2 AND PUSH1 0x0 SWAP1 DUP2 MSTORE PUSH1 0x1 PUSH1 0x20 MSTORE PUSH1 0x40 SWAP1 KECCAK256 SSTORE JUMP JUMPDEST PUSH2 0xDD3 PUSH2 0x111F JUMP JUMPDEST PUSH1 0x1 PUSH1 0x1 PUSH1 0xA0 SHL SUB SWAP1 SWAP2 AND PUSH1 0x0 SWAP1 DUP2 MSTORE PUSH1 0x2 PUSH1 0x20 MSTORE PUSH1 0x40 SWAP1 KECCAK256 SSTORE JUMP JUMPDEST PUSH2 0xDF7 PUSH2 0x111F JUMP JUMPDEST PUSH1 0x1 PUSH1 0x1 PUSH1 0xA0 SHL SUB DUP2 AND PUSH2 0xE26 JUMPI PUSH1 0x40 MLOAD PUSH4 0x1E4FBDF7 PUSH1 0xE0 SHL DUP2 MSTORE PUSH1 0x0 PUSH1 0x4 DUP3 ADD MSTORE PUSH1 0x24 ADD JUMPDEST PUSH1 0x40 MLOAD DUP1 SWAP2 SUB SWAP1 REVERT JUMPDEST PUSH2 0xE2F DUP2 PUSH2 0x11D2 JUMP JUMPDEST POP JUMP JUMPDEST PUSH1 0x0 DUP1 MLOAD PUSH1 0x20 PUSH2 0x1659 DUP4 CODECOPY DUP2 MLOAD SWAP2 MSTORE SLOAD PUSH1 0xFF AND ISZERO PUSH2 0x90B JUMPI PUSH1 0x40 MLOAD PUSH4 0xD93C0665 PUSH1 0xE0 SHL DUP2 MSTORE PUSH1 0x4 ADD PUSH1 0x40 MLOAD DUP1 SWAP2 SUB SWAP1 REVERT JUMPDEST PUSH1 0x0 PUSH8 0xDE0B6B3A7640000 PUSH2 0xE7A DUP4 PUSH2 0x2710 PUSH2 0x162F JUMP JUMPDEST PUSH2 0xE84 SWAP1 DUP6 PUSH2 0x15F6 JUMP JUMPDEST PUSH2 0xE94 SWAP1 PUSH6 0x5AF3107A4000 PUSH2 0x15F6 JUMP JUMPDEST PUSH2 0xE9E SWAP2 SWAP1 PUSH2 0x160D JUMP JUMPDEST SWAP1 POP JUMPDEST SWAP3 SWAP2 POP POP JUMP JUMPDEST PUSH1 0x60 DUP1 PUSH1 0x0 DUP1 PUSH1 0x0 DUP9 PUSH1 0x1 PUSH1 0x1 PUSH1 0xA0 SHL SUB AND PUSH4 0xC6610657 DUP10 PUSH1 0x40 MLOAD DUP3 PUSH4 0xFFFFFFFF AND PUSH1 0xE0 SHL DUP2 MSTORE PUSH1 0x4 ADD PUSH2 0xEDD SWAP2 DUP2 MSTORE PUSH1 0x20 ADD SWAP1 JUMP JUMPDEST PUSH1 0x20 PUSH1 0x40 MLOAD DUP1 DUP4 SUB DUP2 DUP7 GAS STATICCALL ISZERO DUP1 ISZERO PUSH2 0xEFA JUMPI RETURNDATASIZE PUSH1 0x0 DUP1 RETURNDATACOPY RETURNDATASIZE PUSH1 0x0 REVERT JUMPDEST POP POP POP POP PUSH1 0x40 MLOAD RETURNDATASIZE PUSH1 0x1F NOT PUSH1 0x1F DUP3 ADD AND DUP3 ADD DUP1 PUSH1 0x40 MSTORE POP DUP2 ADD SWAP1 PUSH2 0xF1E SWAP2 SWAP1 PUSH2 0x14D0 JUMP JUMPDEST SWAP1 POP DUP1 PUSH1 0x1 PUSH1 0x1 PUSH1 0xA0 SHL SUB AND PUSH4 0x38D52E0F PUSH1 0x40 MLOAD DUP2 PUSH4 0xFFFFFFFF AND PUSH1 0xE0 SHL DUP2 MSTORE PUSH1 0x4 ADD PUSH1 0x20 PUSH1 0x40 MLOAD DUP1 DUP4 SUB DUP2 DUP7 GAS STATICCALL ISZERO DUP1 ISZERO PUSH2 0xF5E JUMPI RETURNDATASIZE PUSH1 0x0 DUP1 RETURNDATACOPY RETURNDATASIZE PUSH1 0x0 REVERT JUMPDEST POP POP POP POP PUSH1 0x40 MLOAD RETURNDATASIZE PUSH1 0x1F NOT PUSH1 0x1F DUP3 ADD AND DUP3 ADD DUP1 PUSH1 0x40 MSTORE POP DUP2 ADD SWAP1 PUSH2 0xF82 SWAP2 SWAP1 PUSH2 0x14D0 JUMP JUMPDEST PUSH1 0x40 MLOAD PUSH1 0x0 PUSH1 0x20 DUP3 ADD MSTORE PUSH1 0x1 PUSH1 0xFA SHL PUSH1 0x21 DUP3 ADD MSTORE PUSH1 0x3 PUSH1 0xF8 SHL PUSH1 0x22 DUP3 ADD MSTORE SWAP1 SWAP3 POP PUSH1 0x23 ADD PUSH1 0x40 DUP1 MLOAD DUP1 DUP4 SUB PUSH1 0x1F NOT ADD DUP2 MSTORE PUSH1 0x3 DUP1 DUP5 MSTORE PUSH1 0x80 DUP5 ADD SWAP1 SWAP3 MSTORE SWAP7 POP DUP2 PUSH1 0x20 ADD JUMPDEST PUSH1 0x60 DUP2 MSTORE PUSH1 0x20 ADD SWAP1 PUSH1 0x1 SWAP1 SUB SWAP1 DUP2 PUSH2 0xFC6 JUMPI POP POP PUSH1 0x1 PUSH1 0x1 PUSH1 0xA0 SHL SUB DUP3 AND PUSH1 0x0 SWAP1 DUP2 MSTORE PUSH1 0x1 PUSH1 0x20 MSTORE PUSH1 0x40 SWAP1 KECCAK256 SLOAD SWAP1 SWAP5 POP PUSH2 0x1001 SWAP1 DUP12 SWAP1 PUSH2 0xE63 JUMP JUMPDEST PUSH1 0x40 DUP1 MLOAD PUSH1 0x1 PUSH1 0x1 PUSH1 0xA0 SHL SUB DUP6 AND PUSH1 0x20 DUP3 ADD MSTORE SWAP1 DUP2 ADD DUP3 SWAP1 MSTORE SWAP1 SWAP4 POP PUSH1 0x60 ADD PUSH1 0x40 MLOAD PUSH1 0x20 DUP2 DUP4 SUB SUB DUP2 MSTORE SWAP1 PUSH1 0x40 MSTORE DUP5 PUSH1 0x0 DUP2 MLOAD DUP2 LT PUSH2 0x1042 JUMPI PUSH2 0x1042 PUSH2 0x1642 JUMP JUMPDEST PUSH1 0x20 SWAP1 DUP2 MUL SWAP2 SWAP1 SWAP2 ADD DUP2 ADD SWAP2 SWAP1 SWAP2 MSTORE PUSH1 0x40 DUP1 MLOAD PUSH1 0x1 PUSH1 0x1 PUSH1 0xA0 SHL SUB DUP5 AND SWAP3 DUP2 ADD SWAP3 SWAP1 SWAP3 MSTORE PUSH1 0x1 PUSH1 0xFF SHL SWAP1 DUP3 ADD MSTORE PUSH1 0xE0 PUSH1 0x60 DUP3 ADD MSTORE PUSH1 0x80 ADD PUSH1 0x40 MLOAD PUSH1 0x20 DUP2 DUP4 SUB SUB DUP2 MSTORE SWAP1 PUSH1 0x40 MSTORE DUP5 PUSH1 0x1 DUP2 MLOAD DUP2 LT PUSH2 0x109B JUMPI PUSH2 0x109B PUSH2 0x1642 JUMP JUMPDEST PUSH1 0x20 SWAP1 DUP2 MUL SWAP2 SWAP1 SWAP2 ADD DUP2 ADD SWAP2 SWAP1 SWAP2 MSTORE PUSH1 0x40 DUP1 MLOAD PUSH1 0x1 PUSH1 0x1 PUSH1 0xA0 SHL SUB DUP13 AND SWAP3 DUP2 ADD SWAP3 SWAP1 SWAP3 MSTORE DUP2 ADD DUP10 SWAP1 MSTORE PUSH1 0x60 DUP2 ADD DUP9 SWAP1 MSTORE PUSH1 0x1 PUSH1 0xFF SHL PUSH1 0x80 DUP3 ADD MSTORE PUSH1 0xA0 DUP2 ADD DUP8 SWAP1 MSTORE CALLER PUSH1 0xC0 DUP3 ADD MSTORE PUSH1 0xE0 ADD PUSH1 0x40 MLOAD PUSH1 0x20 DUP2 DUP4 SUB SUB DUP2 MSTORE SWAP1 PUSH1 0x40 MSTORE DUP5 PUSH1 0x2 DUP2 MLOAD DUP2 LT PUSH2 0x1107 JUMPI PUSH2 0x1107 PUSH2 0x1642 JUMP JUMPDEST PUSH1 0x20 MUL PUSH1 0x20 ADD ADD DUP2 SWAP1 MSTORE POP POP SWAP6 POP SWAP6 POP SWAP6 POP SWAP6 SWAP2 POP POP JUMP JUMPDEST CALLER PUSH2 0x1128 PUSH2 0xD79 JUMP JUMPDEST PUSH1 0x1 PUSH1 0x1 PUSH1 0xA0 SHL SUB AND EQ PUSH2 0x90B JUMPI PUSH1 0x40 MLOAD PUSH4 0x118CDAA7 PUSH1 0xE0 SHL DUP2 MSTORE CALLER PUSH1 0x4 DUP3 ADD MSTORE PUSH1 0x24 ADD PUSH2 0xE1D JUMP JUMPDEST PUSH2 0x1159 PUSH2 0x128C JUMP JUMPDEST PUSH1 0x0 DUP1 MLOAD PUSH1 0x20 PUSH2 0x1659 DUP4 CODECOPY DUP2 MLOAD SWAP2 MSTORE DUP1 SLOAD PUSH1 0xFF NOT AND DUP2 SSTORE PUSH32 0x5DB9EE0A495BF2E6FF9C91A7834C1BA4FDD244A5E8AA4E537BD38AEAE4B073AA CALLER JUMPDEST PUSH1 0x40 MLOAD PUSH1 0x1 PUSH1 0x1 PUSH1 0xA0 SHL SUB SWAP1 SWAP2 AND DUP2 MSTORE PUSH1 0x20 ADD PUSH1 0x40 MLOAD DUP1 SWAP2 SUB SWAP1 LOG1 POP JUMP JUMPDEST PUSH2 0x11B9 PUSH2 0x12BC JUMP JUMPDEST PUSH2 0x90B PUSH2 0x1305 JUMP JUMPDEST PUSH2 0x11C9 PUSH2 0x12BC JUMP JUMPDEST PUSH2 0xE2F DUP2 PUSH2 0x1326 JUMP JUMPDEST PUSH32 0x9016D09D72D40FDAE2FD8CEAC6B6234C7706214FD39C1CD1E609A0528C199300 DUP1 SLOAD PUSH1 0x1 PUSH1 0x1 PUSH1 0xA0 SHL SUB NOT DUP2 AND PUSH1 0x1 PUSH1 0x1 PUSH1 0xA0 SHL SUB DUP5 DUP2 AND SWAP2 DUP3 OR DUP5 SSTORE PUSH1 0x40 MLOAD SWAP3 AND SWAP2 DUP3 SWAP1 PUSH32 0x8BE0079C531659141344CD1FD0A4F28419497F9722A3DAAFE3B4186F6B6457E0 SWAP1 PUSH1 0x0 SWAP1 LOG3 POP POP POP JUMP JUMPDEST PUSH2 0x124B PUSH2 0xE32 JUMP JUMPDEST PUSH1 0x0 DUP1 MLOAD PUSH1 0x20 PUSH2 0x1659 DUP4 CODECOPY DUP2 MLOAD SWAP2 MSTORE DUP1 SLOAD PUSH1 0xFF NOT AND PUSH1 0x1 OR DUP2 SSTORE PUSH32 0x62E78CEA01BEE320CD4E420270B5EA74000D11B0C9F74754EBDBFC544B05A258 CALLER PUSH2 0x1193 JUMP JUMPDEST PUSH1 0x0 DUP1 MLOAD PUSH1 0x20 PUSH2 0x1659 DUP4 CODECOPY DUP2 MLOAD SWAP2 MSTORE SLOAD PUSH1 0xFF AND PUSH2 0x90B JUMPI PUSH1 0x40 MLOAD PUSH4 0x8DFC202B PUSH1 0xE0 SHL DUP2 MSTORE PUSH1 0x4 ADD PUSH1 0x40 MLOAD DUP1 SWAP2 SUB SWAP1 REVERT JUMPDEST PUSH32 0xF0C57E16840DF040F15088DC2F81FE391C3923BEC73E23A9662EFC9C229C6A00 SLOAD PUSH1 0x1 PUSH1 0x40 SHL SWAP1 DIV PUSH1 0xFF AND PUSH2 0x90B JUMPI PUSH1 0x40 MLOAD PUSH4 0x1AFCD79F PUSH1 0xE3 SHL DUP2 MSTORE PUSH1 0x4 ADD PUSH1 0x40 MLOAD DUP1 SWAP2 SUB SWAP1 REVERT JUMPDEST PUSH2 0x130D PUSH2 0x12BC JUMP JUMPDEST PUSH1 0x0 DUP1 MLOAD PUSH1 0x20 PUSH2 0x1659 DUP4 CODECOPY DUP2 MLOAD SWAP2 MSTORE DUP1 SLOAD PUSH1 0xFF NOT AND SWAP1 SSTORE JUMP JUMPDEST PUSH2 0xDF7 PUSH2 0x12BC JUMP JUMPDEST PUSH1 0x1 PUSH1 0x1 PUSH1 0xA0 SHL SUB DUP2 AND DUP2 EQ PUSH2 0xE2F JUMPI PUSH1 0x0 DUP1 REVERT JUMPDEST PUSH1 0x0 DUP1 PUSH1 0x0 DUP1 PUSH1 0x0 PUSH1 0xA0 DUP7 DUP9 SUB SLT ISZERO PUSH2 0x135B JUMPI PUSH1 0x0 DUP1 REVERT JUMPDEST DUP6 CALLDATALOAD PUSH2 0x1366 DUP2 PUSH2 0x132E JUMP JUMPDEST SWAP8 PUSH1 0x20 DUP8 ADD CALLDATALOAD SWAP8 POP PUSH1 0x40 DUP8 ADD CALLDATALOAD SWAP7 PUSH1 0x60 DUP2 ADD CALLDATALOAD SWAP7 POP PUSH1 0x80 ADD CALLDATALOAD SWAP5 POP SWAP3 POP POP POP JUMP JUMPDEST PUSH1 0x0 DUP1 PUSH1 0x0 DUP1 PUSH1 0x80 DUP6 DUP8 SUB SLT ISZERO PUSH2 0x139D JUMPI PUSH1 0x0 DUP1 REVERT JUMPDEST DUP5 CALLDATALOAD SWAP4 POP PUSH1 0x20 DUP6 ADD CALLDATALOAD PUSH2 0x13AF DUP2 PUSH2 0x132E JUMP JUMPDEST SWAP4 SWAP7 SWAP4 SWAP6 POP POP POP POP PUSH1 0x40 DUP3 ADD CALLDATALOAD SWAP2 PUSH1 0x60 ADD CALLDATALOAD SWAP1 JUMP JUMPDEST PUSH1 0x0 PUSH1 0x20 DUP3 DUP5 SUB SLT ISZERO PUSH2 0x13D6 JUMPI PUSH1 0x0 DUP1 REVERT JUMPDEST DUP2 CALLDATALOAD PUSH2 0x13E1 DUP2 PUSH2 0x132E JUMP JUMPDEST SWAP4 SWAP3 POP POP POP JUMP JUMPDEST PUSH1 0x0 DUP1 PUSH1 0x40 DUP4 DUP6 SUB SLT ISZERO PUSH2 0x13FB JUMPI PUSH1 0x0 DUP1 REVERT JUMPDEST DUP3 CALLDATALOAD PUSH2 0x1406 DUP2 PUSH2 0x132E JUMP JUMPDEST SWAP5 PUSH1 0x20 SWAP4 SWAP1 SWAP4 ADD CALLDATALOAD SWAP4 POP POP POP JUMP JUMPDEST PUSH1 0x0 DUP1 PUSH1 0x40 DUP4 DUP6 SUB SLT ISZERO PUSH2 0x1427 JUMPI PUSH1 0x0 DUP1 REVERT JUMPDEST DUP3 CALLDATALOAD PUSH2 0x1432 DUP2 PUSH2 0x132E JUMP JUMPDEST SWAP2 POP PUSH1 0x20 DUP4 ADD CALLDATALOAD PUSH2 0x1442 DUP2 PUSH2 0x132E JUMP JUMPDEST DUP1 SWAP2 POP POP SWAP3 POP SWAP3 SWAP1 POP JUMP JUMPDEST PUSH1 0x0 DUP1 PUSH1 0x0 DUP1 PUSH1 0x80 DUP6 DUP8 SUB SLT ISZERO PUSH2 0x1463 JUMPI PUSH1 0x0 DUP1 REVERT JUMPDEST DUP5 CALLDATALOAD PUSH2 0x146E DUP2 PUSH2 0x132E JUMP JUMPDEST SWAP7 PUSH1 0x20 DUP7 ADD CALLDATALOAD SWAP7 POP PUSH1 0x40 DUP7 ADD CALLDATALOAD SWAP6 PUSH1 0x60 ADD CALLDATALOAD SWAP5 POP SWAP3 POP POP POP JUMP JUMPDEST PUSH1 0x0 DUP1 PUSH1 0x0 DUP1 PUSH1 0x0 PUSH1 0xA0 DUP7 DUP9 SUB SLT ISZERO PUSH2 0x14A0 JUMPI PUSH1 0x0 DUP1 REVERT JUMPDEST DUP6 CALLDATALOAD SWAP5 POP PUSH1 0x20 DUP7 ADD CALLDATALOAD PUSH2 0x14B2 DUP2 PUSH2 0x132E JUMP JUMPDEST SWAP5 SWAP8 SWAP5 SWAP7 POP POP POP POP PUSH1 0x40 DUP4 ADD CALLDATALOAD SWAP3 PUSH1 0x60 DUP2 ADD CALLDATALOAD SWAP3 PUSH1 0x80 SWAP1 SWAP2 ADD CALLDATALOAD SWAP2 POP JUMP JUMPDEST PUSH1 0x0 PUSH1 0x20 DUP3 DUP5 SUB SLT ISZERO PUSH2 0x14E2 JUMPI PUSH1 0x0 DUP1 REVERT JUMPDEST DUP2 MLOAD PUSH2 0x13E1 DUP2 PUSH2 0x132E JUMP JUMPDEST PUSH1 0x0 PUSH1 0x20 DUP3 DUP5 SUB SLT ISZERO PUSH2 0x14FF JUMPI PUSH1 0x0 DUP1 REVERT JUMPDEST DUP2 MLOAD DUP1 ISZERO ISZERO DUP2 EQ PUSH2 0x13E1 JUMPI PUSH1 0x0 DUP1 REVERT JUMPDEST PUSH1 0x0 PUSH1 0x20 DUP3 DUP5 SUB SLT ISZERO PUSH2 0x1521 JUMPI PUSH1 0x0 DUP1 REVERT JUMPDEST POP MLOAD SWAP2 SWAP1 POP JUMP JUMPDEST PUSH1 0x0 DUP2 MLOAD DUP1 DUP5 MSTORE PUSH1 0x0 JUMPDEST DUP2 DUP2 LT ISZERO PUSH2 0x154E JUMPI PUSH1 0x20 DUP2 DUP6 ADD DUP2 ADD MLOAD DUP7 DUP4 ADD DUP3 ADD MSTORE ADD PUSH2 0x1532 JUMP JUMPDEST POP PUSH1 0x0 PUSH1 0x20 DUP3 DUP7 ADD ADD MSTORE PUSH1 0x20 PUSH1 0x1F NOT PUSH1 0x1F DUP4 ADD AND DUP6 ADD ADD SWAP2 POP POP SWAP3 SWAP2 POP POP JUMP JUMPDEST PUSH1 0x40 DUP2 MSTORE PUSH1 0x0 PUSH2 0x1581 PUSH1 0x40 DUP4 ADD DUP6 PUSH2 0x1528 JUMP JUMPDEST PUSH1 0x20 DUP4 DUP3 SUB DUP2 DUP6 ADD MSTORE DUP2 DUP6 MLOAD DUP1 DUP5 MSTORE DUP3 DUP5 ADD SWAP2 POP DUP3 DUP2 PUSH1 0x5 SHL DUP6 ADD ADD DUP4 DUP9 ADD PUSH1 0x0 JUMPDEST DUP4 DUP2 LT ISZERO PUSH2 0x15D1 JUMPI PUSH1 0x1F NOT DUP8 DUP5 SUB ADD DUP6 MSTORE PUSH2 0x15BF DUP4 DUP4 MLOAD PUSH2 0x1528 JUMP JUMPDEST SWAP5 DUP7 ADD SWAP5 SWAP3 POP SWAP1 DUP6 ADD SWAP1 PUSH1 0x1 ADD PUSH2 0x15A3 JUMP JUMPDEST POP SWAP1 SWAP10 SWAP9 POP POP POP POP POP POP POP POP POP JUMP JUMPDEST PUSH4 0x4E487B71 PUSH1 0xE0 SHL PUSH1 0x0 MSTORE PUSH1 0x11 PUSH1 0x4 MSTORE PUSH1 0x24 PUSH1 0x0 REVERT JUMPDEST DUP1 DUP3 MUL DUP2 ISZERO DUP3 DUP3 DIV DUP5 EQ OR PUSH2 0xEA1 JUMPI PUSH2 0xEA1 PUSH2 0x15E0 JUMP JUMPDEST PUSH1 0x0 DUP3 PUSH2 0x162A JUMPI PUSH4 0x4E487B71 PUSH1 0xE0 SHL PUSH1 0x0 MSTORE PUSH1 0x12 PUSH1 0x4 MSTORE PUSH1 0x24 PUSH1 0x0 REVERT JUMPDEST POP DIV SWAP1 JUMP JUMPDEST DUP2 DUP2 SUB DUP2 DUP2 GT ISZERO PUSH2 0xEA1 JUMPI PUSH2 0xEA1 PUSH2 0x15E0 JUMP JUMPDEST PUSH4 0x4E487B71 PUSH1 0xE0 SHL PUSH1 0x0 MSTORE PUSH1 0x32 PUSH1 0x4 MSTORE PUSH1 0x24 PUSH1 0x0 REVERT INVALID 0xCD MCOPY 0xD1 TLOAD PUSH15 0x187E77E9AEE88184C21F4F2182AB58 0x27 0xCB EXTCODESIZE PUSH31 0x7FBEDCD63F03300A264697066735822122077AA3520B3C429D09DF916D491 0xFC PUSH14 0x110E100AE09419B835E417127769 DUP4 PUSH26 0xFF64736F6C634300081800330000000000000000000000000000 "},"methodIdentifiers":{"buyDiscountedAsset(uint256,address,uint256,uint256,uint256)":"8662fac2","claimPTEarly(address,uint256,uint256,uint256,uint256)":"02935432","collectFee(address,uint256)":"2ec0ff6c","getBuyFee(address)":"cbdadba0","getSellEarlyFee(address)":"5237cf58","initialize(address,address)":"485cc955","owner()":"8da5cb5b","pause()":"8456cb59","paused()":"5c975abb","previewBuyDiscountedAsset(uint256,address,uint256,uint256)":"18d3af28","previewClaimPTEarly(address,uint256,uint256,uint256)":"637777ef","redeemDiscountedAsset(address,uint256)":"34161658","registry()":"7b103999","renounceOwnership()":"715018a6","setBuyFee(address,uint256)":"9f325406","setSellEarlyFee(address,uint256)":"ee63250f","transferOwnership(address)":"f2fde38b","unpause()":"3f4ba83a","updateRegistry(address)":"1a5da6c8"}},"storageLayout":{"storage":[{"astId":1033,"contract":"contracts/DiscountV1.sol:DiscountV1","label":"registry","offset":0,"slot":"0","type":"t_contract(IRegistry)2617"},{"astId":1037,"contract":"contracts/DiscountV1.sol:DiscountV1","label":"buyFee","offset":0,"slot":"1","type":"t_mapping(t_address,t_uint256)"},{"astId":1041,"contract":"contracts/DiscountV1.sol:DiscountV1","label":"sellEarlyFee","offset":0,"slot":"2","type":"t_mapping(t_address,t_uint256)"}],"types":{"t_address":{"encoding":"inplace","label":"address","numberOfBytes":"20"},"t_contract(IRegistry)2617":{"encoding":"inplace","label":"contract IRegistry","numberOfBytes":"20"},"t_mapping(t_address,t_uint256)":{"encoding":"mapping","key":"t_address","label":"mapping(address => uint256)","numberOfBytes":"32","value":"t_uint256"},"t_uint256":{"encoding":"inplace","label":"uint256","numberOfBytes":"32"}}}}}}