{
  "_format": "hh-sol-artifact-1",
  "contractName": "DiscountV1",
  "sourceName": "contracts/DiscountV1.sol",
  "abi": [
    {
      "inputs": [],
      "stateMutability": "nonpayable",
      "type": "constructor"
    },
    {
      "inputs": [],
      "name": "EnforcedPause",
      "type": "error"
    },
    {
      "inputs": [],
      "name": "ExpectedPause",
      "type": "error"
    },
    {
      "inputs": [],
      "name": "InvalidInitialization",
      "type": "error"
    },
    {
      "inputs": [],
      "name": "NotInitializing",
      "type": "error"
    },
    {
      "inputs": [
        {
          "internalType": "address",
          "name": "owner",
          "type": "address"
        }
      ],
      "name": "OwnableInvalidOwner",
      "type": "error"
    },
    {
      "inputs": [
        {
          "internalType": "address",
          "name": "account",
          "type": "address"
        }
      ],
      "name": "OwnableUnauthorizedAccount",
      "type": "error"
    },
    {
      "anonymous": false,
      "inputs": [
        {
          "indexed": false,
          "internalType": "uint64",
          "name": "version",
          "type": "uint64"
        }
      ],
      "name": "Initialized",
      "type": "event"
    },
    {
      "anonymous": false,
      "inputs": [
        {
          "indexed": true,
          "internalType": "address",
          "name": "previousOwner",
          "type": "address"
        },
        {
          "indexed": true,
          "internalType": "address",
          "name": "newOwner",
          "type": "address"
        }
      ],
      "name": "OwnershipTransferred",
      "type": "event"
    },
    {
      "anonymous": false,
      "inputs": [
        {
          "indexed": false,
          "internalType": "address",
          "name": "account",
          "type": "address"
        }
      ],
      "name": "Paused",
      "type": "event"
    },
    {
      "anonymous": false,
      "inputs": [
        {
          "indexed": false,
          "internalType": "address",
          "name": "account",
          "type": "address"
        }
      ],
      "name": "Unpaused",
      "type": "event"
    },
    {
      "inputs": [
        {
          "internalType": "uint256",
          "name": "_amount",
          "type": "uint256"
        },
        {
          "internalType": "address",
          "name": "_curvePoolAddress",
          "type": "address"
        },
        {
          "internalType": "uint256",
          "name": "_IBTindexInCurve",
          "type": "uint256"
        },
        {
          "internalType": "uint256",
          "name": "_PTindexInCurve",
          "type": "uint256"
        }
      ],
      "name": "buyDiscountedAsset",
      "outputs": [],
      "stateMutability": "nonpayable",
      "type": "function"
    },
    {
      "inputs": [
        {
          "internalType": "address",
          "name": "_curvePool",
          "type": "address"
        },
        {
          "internalType": "uint256",
          "name": "_inputTokenIndex",
          "type": "uint256"
        },
        {
          "internalType": "uint256",
          "name": "_outputTokenIndex",
          "type": "uint256"
        },
        {
          "internalType": "uint256",
          "name": "_dx",
          "type": "uint256"
        },
        {
          "internalType": "uint256",
          "name": "_min_dy",
          "type": "uint256"
        }
      ],
      "name": "claimPTEarly",
      "outputs": [],
      "stateMutability": "nonpayable",
      "type": "function"
    },
    {
      "inputs": [
        {
          "internalType": "address",
          "name": "_token",
          "type": "address"
        },
        {
          "internalType": "uint256",
          "name": "_amount",
          "type": "uint256"
        }
      ],
      "name": "collectFee",
      "outputs": [],
      "stateMutability": "nonpayable",
      "type": "function"
    },
    {
      "inputs": [
        {
          "internalType": "address",
          "name": "_IBT",
          "type": "address"
        }
      ],
      "name": "getBuyFee",
      "outputs": [
        {
          "internalType": "uint256",
          "name": "",
          "type": "uint256"
        }
      ],
      "stateMutability": "view",
      "type": "function"
    },
    {
      "inputs": [
        {
          "internalType": "address",
          "name": "_PT",
          "type": "address"
        }
      ],
      "name": "getSellEarlyFee",
      "outputs": [
        {
          "internalType": "uint256",
          "name": "",
          "type": "uint256"
        }
      ],
      "stateMutability": "view",
      "type": "function"
    },
    {
      "inputs": [
        {
          "internalType": "address",
          "name": "_PT",
          "type": "address"
        }
      ],
      "name": "getSellFee",
      "outputs": [
        {
          "internalType": "uint256",
          "name": "",
          "type": "uint256"
        }
      ],
      "stateMutability": "view",
      "type": "function"
    },
    {
      "inputs": [
        {
          "internalType": "address",
          "name": "initialOwner",
          "type": "address"
        }
      ],
      "name": "initialize",
      "outputs": [],
      "stateMutability": "nonpayable",
      "type": "function"
    },
    {
      "inputs": [],
      "name": "owner",
      "outputs": [
        {
          "internalType": "address",
          "name": "",
          "type": "address"
        }
      ],
      "stateMutability": "view",
      "type": "function"
    },
    {
      "inputs": [],
      "name": "pause",
      "outputs": [],
      "stateMutability": "nonpayable",
      "type": "function"
    },
    {
      "inputs": [],
      "name": "paused",
      "outputs": [
        {
          "internalType": "bool",
          "name": "",
          "type": "bool"
        }
      ],
      "stateMutability": "view",
      "type": "function"
    },
    {
      "inputs": [
        {
          "internalType": "uint256",
          "name": "_amount",
          "type": "uint256"
        },
        {
          "internalType": "address",
          "name": "_curvePoolAddress",
          "type": "address"
        },
        {
          "internalType": "uint256",
          "name": "_IBTindexInCurve",
          "type": "uint256"
        },
        {
          "internalType": "uint256",
          "name": "_PTindexInCurve",
          "type": "uint256"
        }
      ],
      "name": "previewBuyDiscountedAsset",
      "outputs": [
        {
          "internalType": "uint256",
          "name": "",
          "type": "uint256"
        }
      ],
      "stateMutability": "view",
      "type": "function"
    },
    {
      "inputs": [
        {
          "internalType": "address",
          "name": "_ptToken",
          "type": "address"
        },
        {
          "internalType": "uint256",
          "name": "_amount",
          "type": "uint256"
        }
      ],
      "name": "redeemDiscountedAsset",
      "outputs": [],
      "stateMutability": "nonpayable",
      "type": "function"
    },
    {
      "inputs": [],
      "name": "registry",
      "outputs": [
        {
          "internalType": "contract IRegistry",
          "name": "",
          "type": "address"
        }
      ],
      "stateMutability": "view",
      "type": "function"
    },
    {
      "inputs": [],
      "name": "renounceOwnership",
      "outputs": [],
      "stateMutability": "nonpayable",
      "type": "function"
    },
    {
      "inputs": [
        {
          "internalType": "address",
          "name": "_IBT",
          "type": "address"
        },
        {
          "internalType": "uint256",
          "name": "_newFee",
          "type": "uint256"
        }
      ],
      "name": "setBuyFee",
      "outputs": [],
      "stateMutability": "nonpayable",
      "type": "function"
    },
    {
      "inputs": [
        {
          "internalType": "address",
          "name": "_PT",
          "type": "address"
        },
        {
          "internalType": "uint256",
          "name": "_newFee",
          "type": "uint256"
        }
      ],
      "name": "setSellEarlyFee",
      "outputs": [],
      "stateMutability": "nonpayable",
      "type": "function"
    },
    {
      "inputs": [
        {
          "internalType": "address",
          "name": "_PT",
          "type": "address"
        },
        {
          "internalType": "uint256",
          "name": "_newFee",
          "type": "uint256"
        }
      ],
      "name": "setSellFee",
      "outputs": [],
      "stateMutability": "nonpayable",
      "type": "function"
    },
    {
      "inputs": [
        {
          "internalType": "address",
          "name": "newOwner",
          "type": "address"
        }
      ],
      "name": "transferOwnership",
      "outputs": [],
      "stateMutability": "nonpayable",
      "type": "function"
    },
    {
      "inputs": [],
      "name": "unpause",
      "outputs": [],
      "stateMutability": "nonpayable",
      "type": "function"
    },
    {
      "inputs": [
        {
          "internalType": "address",
          "name": "_newRegistry",
          "type": "address"
        }
      ],
      "name": "updateRegistry",
      "outputs": [],
      "stateMutability": "nonpayable",
      "type": "function"
    }
  ],
  "bytecode": "0x608060405234801561001057600080fd5b5061001961001e565b6100d0565b7ff0c57e16840df040f15088dc2f81fe391c3923bec73e23a9662efc9c229c6a00805468010000000000000000900460ff161561006e5760405163f92ee8a960e01b815260040160405180910390fd5b80546001600160401b03908116146100cd5780546001600160401b0319166001600160401b0390811782556040519081527fc7f505b2f371ae2175ee4913f4499e1f2633a7b5936321eed1cdaeb6115181d29060200160405180910390a15b50565b61186d806100df6000396000f3fe608060405234801561001057600080fd5b506004361061012b5760003560e01c80637b103999116100ad578063c4d66de811610071578063c4d66de81461028a578063cbdadba01461029d578063ee63250f146102c6578063f2fde38b146102d9578063f8213bc6146102ec57600080fd5b80637b103999146102135780638456cb591461023e5780638da5cb5b146102465780639f3254061461024e578063b76393a61461026157600080fd5b806334161658116100f457806334161658146101a45780633f4ba83a146101b75780635237cf58146101bf5780635c975abb146101e8578063715018a61461020b57600080fd5b8062547a3d14610130578063029354321461014557806318d3af28146101585780631a5da6c81461017e5780632ec0ff6c14610191575b600080fd5b61014361013e366004611583565b6102ff565b005b6101436101533660046115af565b610323565b61016b6101663660046115f3565b6106d8565b6040519081526020015b60405180910390f35b61014361018c366004611630565b6109f8565b61014361019f366004611583565b610a22565b6101436101b2366004611583565b610ab7565b610143610cc7565b61016b6101cd366004611630565b6001600160a01b031660009081526003602052604090205490565b6000805160206118188339815191525460ff166040519015158152602001610175565b610143610cd9565b600054610226906001600160a01b031681565b6040516001600160a01b039091168152602001610175565b610143610ceb565b610226610cfb565b61014361025c366004611583565b610d29565b61016b61026f366004611630565b6001600160a01b031660009081526002602052604090205490565b610143610298366004611630565b610d4d565b61016b6102ab366004611630565b6001600160a01b031660009081526001602052604090205490565b6101436102d4366004611583565b610e8a565b6101436102e7366004611630565b610eae565b6101436102fa3660046115f3565b610ef1565b6103076112ea565b6001600160a01b03909116600090815260026020526040902055565b60405163c661065760e01b8152600481018590526000906001600160a01b0387169063c661065790602401602060405180830381865afa15801561036b573d6000803e3d6000fd5b505050506040513d601f19601f8201168201806040525081019061038f9190611654565b6040516323b872dd60e01b8152336004820152306024820152604481018590529091506001600160a01b038216906323b872dd906064016020604051808303816000875af11580156103e5573d6000803e3d6000fd5b505050506040513d601f19601f820116820180604052508101906104099190611671565b5060405163095ea7b360e01b81526001600160a01b0387811660048301526024820185905282169063095ea7b3906044016020604051808303816000875af1158015610459573d6000803e3d6000fd5b505050506040513d601f19601f8201168201806040525081019061047d9190611671565b506001600160a01b03811660009081526003602052604081205490036105305760405163ce7d650360e01b815260048101869052602481018590526044810184905260648101839052600060848201523360a48201526001600160a01b0387169063ce7d65039060c4016020604051808303816000875af1158015610506573d6000803e3d6000fd5b505050506040513d601f19601f8201168201806040525081019061052a9190611693565b506106d0565b60405163ce7d650360e01b8152600481018690526024810185905260448101849052606481018390526000608482018190523060a4830152906001600160a01b0388169063ce7d65039060c4016020604051808303816000875af115801561059c573d6000803e3d6000fd5b505050506040513d601f19601f820116820180604052508101906105c09190611693565b6001600160a01b038316600090815260036020526040812054919250906105e890839061131c565b60405163c661065760e01b8152600481018890529091506000906001600160a01b038a169063c661065790602401602060405180830381865afa158015610633573d6000803e3d6000fd5b505050506040513d601f19601f820116820180604052508101906106579190611654565b60405163a9059cbb60e01b8152336004820152602481018490529091506001600160a01b0382169063a9059cbb906044016020604051808303816000875af11580156106a7573d6000803e3d6000fd5b505050506040513d601f19601f820116820180604052508101906106cb9190611671565b505050505b505050505050565b60006106e2611360565b60405163c661065760e01b8152600481018490526000906001600160a01b0386169063c661065790602401602060405180830381865afa15801561072a573d6000803e3d6000fd5b505050506040513d601f19601f8201168201806040525081019061074e9190611654565b90506000816001600160a01b03166338d52e0f6040518163ffffffff1660e01b8152600401602060405180830381865afa158015610790573d6000803e3d6000fd5b505050506040513d601f19601f820116820180604052508101906107b49190611654565b60408051600060208201819052600160fa1b6021830152600360f81b602283015282516003818403810182526023840181815260a38501909552949550939092916043015b60608152602001906001900390816107f957905050604080516001600160a01b03861660208201529081018b90529091506060016040516020818303038152906040528160008151811061084f5761084f6116ac565b602090810291909101810191909152604080516001600160a01b03871692810192909252600160ff1b9082015260e06060820152608001604051602081830303815290604052816001815181106108a8576108a86116ac565b6020026020010181905250878787600160ff1b6000336040516020016108d3969594939291906116c2565b604051602081830303815290604052816002815181106108f5576108f56116ac565b602002602001018190525060008060009054906101000a90046001600160a01b03166001600160a01b031663b0f479a16040518163ffffffff1660e01b8152600401602060405180830381865afa158015610954573d6000803e3d6000fd5b505050506040513d601f19601f820116820180604052508101906109789190611654565b6040516334efd36160e11b81529091506001600160a01b038216906369dfa6c2906109a99086908690600401611743565b602060405180830381865afa1580156109c6573d6000803e3d6000fd5b505050506040513d601f19601f820116820180604052508101906109ea9190611693565b9a9950505050505050505050565b610a006112ea565b600080546001600160a01b0319166001600160a01b0392909216919091179055565b610a2a6112ea565b816001600160a01b031663a9059cbb610a41610cfb565b6040516001600160e01b031960e084901b1681526001600160a01b039091166004820152602481018490526044016020604051808303816000875af1158015610a8e573d6000803e3d6000fd5b505050506040513d601f19601f82011682018060405250810190610ab29190611671565b505050565b6001600160a01b0382166000908152600260205260408120549003610b4e57604051635d043b2960e11b815260048101829052336024820181905260448201526001600160a01b0383169063ba087652906064016020604051808303816000875af1158015610b2a573d6000803e3d6000fd5b505050506040513d601f19601f82011682018060405250810190610ab29190611693565b604051635d043b2960e11b8152600481018290523060248201523360448201526001600160a01b0383169063ba087652906064016020604051808303816000875af1158015610ba1573d6000803e3d6000fd5b505050506040513d601f19601f82011682018060405250810190610bc59190611693565b506001600160a01b038216600090815260026020526040812054610bea90839061131c565b9050826001600160a01b0316636f307dc36040518163ffffffff1660e01b8152600401602060405180830381865afa158015610c2a573d6000803e3d6000fd5b505050506040513d601f19601f82011682018060405250810190610c4e9190611654565b60405163a9059cbb60e01b8152336004820152602481018390526001600160a01b03919091169063a9059cbb906044016020604051808303816000875af1158015610c9d573d6000803e3d6000fd5b505050506040513d601f19601f82011682018060405250810190610cc19190611671565b50505050565b610ccf6112ea565b610cd7611391565b565b610ce16112ea565b610cd760006113f1565b610cf36112ea565b610cd7611462565b7f9016d09d72d40fdae2fd8ceac6b6234c7706214fd39c1cd1e609a0528c199300546001600160a01b031690565b610d316112ea565b6001600160a01b03909116600090815260016020526040902055565b7ff0c57e16840df040f15088dc2f81fe391c3923bec73e23a9662efc9c229c6a008054600160401b810460ff16159067ffffffffffffffff16600081158015610d935750825b905060008267ffffffffffffffff166001148015610db05750303b155b905081158015610dbe575080155b15610ddc5760405163f92ee8a960e01b815260040160405180910390fd5b845467ffffffffffffffff191660011785558315610e0657845460ff60401b1916600160401b1785555b610e0e6114ab565b610e17866114bb565b600080546001600160a01b03191673a2e793bac100975c8cf84b2bb72d8c9a26f03bab17905583156106d057845460ff60401b19168555604051600181527fc7f505b2f371ae2175ee4913f4499e1f2633a7b5936321eed1cdaeb6115181d29060200160405180910390a1505050505050565b610e926112ea565b6001600160a01b03909116600090815260036020526040902055565b610eb66112ea565b6001600160a01b038116610ee557604051631e4fbdf760e01b8152600060048201526024015b60405180910390fd5b610eee816113f1565b50565b610ef9611360565b60405163c661065760e01b8152600481018390526000906001600160a01b0385169063c661065790602401602060405180830381865afa158015610f41573d6000803e3d6000fd5b505050506040513d601f19601f82011682018060405250810190610f659190611654565b90506000816001600160a01b03166338d52e0f6040518163ffffffff1660e01b8152600401602060405180830381865afa158015610fa7573d6000803e3d6000fd5b505050506040513d601f19601f82011682018060405250810190610fcb9190611654565b6040516323b872dd60e01b8152336004820152306024820152604481018890529091506001600160a01b038216906323b872dd906064016020604051808303816000875af1158015611021573d6000803e3d6000fd5b505050506040513d601f19601f820116820180604052508101906110459190611671565b5060408051600060208201819052600160fa1b6021830152600360f81b602283015282516003818403810182526023840181815260a38501909552909391926043015b606081526020019060019003908161108857905050604080516001600160a01b03861660208201529081018a9052909150606001604051602081830303815290604052816000815181106110de576110de6116ac565b602090810291909101810191909152604080516001600160a01b03871692810192909252600160ff1b9082015260e0606082015260800160405160208183030381529060405281600181518110611137576111376116ac565b6020026020010181905250868686600160ff1b600033604051602001611162969594939291906116c2565b60405160208183030381529060405281600281518110611184576111846116ac565b602002602001018190525060008060009054906101000a90046001600160a01b03166001600160a01b031663b0f479a16040518163ffffffff1660e01b8152600401602060405180830381865afa1580156111e3573d6000803e3d6000fd5b505050506040513d601f19601f820116820180604052508101906112079190611654565b60405163095ea7b360e01b81526001600160a01b038083166004830152602482018c90529192509085169063095ea7b3906044016020604051808303816000875af115801561125a573d6000803e3d6000fd5b505050506040513d601f19601f8201168201806040525081019061127e9190611671565b506040516324856bc360e01b81526001600160a01b038216906324856bc3906112ad9086908690600401611743565b600060405180830381600087803b1580156112c757600080fd5b505af11580156112db573d6000803e3d6000fd5b50505050505050505050505050565b336112f3610cfb565b6001600160a01b031614610cd75760405163118cdaa760e01b8152336004820152602401610edc565b6000670de0b6b3a7640000611333836127106117cb565b61133d90856117de565b61134d90655af3107a40006117de565b61135791906117f5565b90505b92915050565b6000805160206118188339815191525460ff1615610cd75760405163d93c066560e01b815260040160405180910390fd5b6113996114cc565b600080516020611818833981519152805460ff191681557f5db9ee0a495bf2e6ff9c91a7834c1ba4fdd244a5e8aa4e537bd38aeae4b073aa335b6040516001600160a01b03909116815260200160405180910390a150565b7f9016d09d72d40fdae2fd8ceac6b6234c7706214fd39c1cd1e609a0528c19930080546001600160a01b031981166001600160a01b03848116918217845560405192169182907f8be0079c531659141344cd1fd0a4f28419497f9722a3daafe3b4186f6b6457e090600090a3505050565b61146a611360565b600080516020611818833981519152805460ff191660011781557f62e78cea01bee320cd4e420270b5ea74000d11b0c9f74754ebdbfc544b05a258336113d3565b6114b36114fc565b610cd7611545565b6114c36114fc565b610eee81611566565b6000805160206118188339815191525460ff16610cd757604051638dfc202b60e01b815260040160405180910390fd5b7ff0c57e16840df040f15088dc2f81fe391c3923bec73e23a9662efc9c229c6a0054600160401b900460ff16610cd757604051631afcd79f60e31b815260040160405180910390fd5b61154d6114fc565b600080516020611818833981519152805460ff19169055565b610eb66114fc565b6001600160a01b0381168114610eee57600080fd5b6000806040838503121561159657600080fd5b82356115a18161156e565b946020939093013593505050565b600080600080600060a086880312156115c757600080fd5b85356115d28161156e565b97602087013597506040870135966060810135965060800135945092505050565b6000806000806080858703121561160957600080fd5b84359350602085013561161b8161156e565b93969395505050506040820135916060013590565b60006020828403121561164257600080fd5b813561164d8161156e565b9392505050565b60006020828403121561166657600080fd5b815161164d8161156e565b60006020828403121561168357600080fd5b8151801515811461164d57600080fd5b6000602082840312156116a557600080fd5b5051919050565b634e487b7160e01b600052603260045260246000fd5b6001600160a01b03968716815260208101959095526040850193909352606084019190915260ff16608083015290911660a082015260c00190565b6000815180845260005b8181101561172357602081850181015186830182015201611707565b506000602082860101526020601f19601f83011685010191505092915050565b60408152600061175660408301856116fd565b6020838203818501528185518084528284019150828160051b85010183880160005b838110156117a657601f198784030185526117948383516116fd565b94860194925090850190600101611778565b50909998505050505050505050565b634e487b7160e01b600052601160045260246000fd5b8181038181111561135a5761135a6117b5565b808202811582820484141761135a5761135a6117b5565b60008261181257634e487b7160e01b600052601260045260246000fd5b50049056fecd5ed15c6e187e77e9aee88184c21f4f2182ab5827cb3b7e07fbedcd63f03300a2646970667358221220f20a2edce36db490b2180ab7975086876d697a4c87c9a71962f48d25d02ad6e664736f6c63430008180033",
  "linkReferences": {},
  "deployedLinkReferences": {}
}