{
  "_format": "hh-sol-artifact-1",
  "contractName": "DiscountV1",
  "sourceName": "contracts/DiscountV1.sol",
  "abi": [
    {
      "inputs": [],
      "stateMutability": "nonpayable",
      "type": "constructor"
    },
    {
      "inputs": [],
      "name": "EnforcedPause",
      "type": "error"
    },
    {
      "inputs": [],
      "name": "ExpectedPause",
      "type": "error"
    },
    {
      "inputs": [],
      "name": "InvalidInitialization",
      "type": "error"
    },
    {
      "inputs": [],
      "name": "NotInitializing",
      "type": "error"
    },
    {
      "inputs": [
        {
          "internalType": "address",
          "name": "owner",
          "type": "address"
        }
      ],
      "name": "OwnableInvalidOwner",
      "type": "error"
    },
    {
      "inputs": [
        {
          "internalType": "address",
          "name": "account",
          "type": "address"
        }
      ],
      "name": "OwnableUnauthorizedAccount",
      "type": "error"
    },
    {
      "anonymous": false,
      "inputs": [
        {
          "indexed": false,
          "internalType": "uint64",
          "name": "version",
          "type": "uint64"
        }
      ],
      "name": "Initialized",
      "type": "event"
    },
    {
      "anonymous": false,
      "inputs": [
        {
          "indexed": true,
          "internalType": "address",
          "name": "previousOwner",
          "type": "address"
        },
        {
          "indexed": true,
          "internalType": "address",
          "name": "newOwner",
          "type": "address"
        }
      ],
      "name": "OwnershipTransferred",
      "type": "event"
    },
    {
      "anonymous": false,
      "inputs": [
        {
          "indexed": false,
          "internalType": "address",
          "name": "account",
          "type": "address"
        }
      ],
      "name": "Paused",
      "type": "event"
    },
    {
      "anonymous": false,
      "inputs": [
        {
          "indexed": false,
          "internalType": "address",
          "name": "account",
          "type": "address"
        }
      ],
      "name": "Unpaused",
      "type": "event"
    },
    {
      "inputs": [
        {
          "internalType": "uint256",
          "name": "_amount",
          "type": "uint256"
        },
        {
          "internalType": "address",
          "name": "_curvePoolAddress",
          "type": "address"
        },
        {
          "internalType": "uint256",
          "name": "_IBTindexInCurve",
          "type": "uint256"
        },
        {
          "internalType": "uint256",
          "name": "_PTindexInCurve",
          "type": "uint256"
        }
      ],
      "name": "buyDiscountedAsset",
      "outputs": [],
      "stateMutability": "nonpayable",
      "type": "function"
    },
    {
      "inputs": [
        {
          "internalType": "address",
          "name": "_curvePool",
          "type": "address"
        },
        {
          "internalType": "uint256",
          "name": "_inputTokenIndex",
          "type": "uint256"
        },
        {
          "internalType": "uint256",
          "name": "_outputTokenIndex",
          "type": "uint256"
        },
        {
          "internalType": "uint256",
          "name": "_dx",
          "type": "uint256"
        },
        {
          "internalType": "uint256",
          "name": "_min_dy",
          "type": "uint256"
        }
      ],
      "name": "claimPTEarly",
      "outputs": [],
      "stateMutability": "nonpayable",
      "type": "function"
    },
    {
      "inputs": [
        {
          "internalType": "address",
          "name": "_token",
          "type": "address"
        },
        {
          "internalType": "uint256",
          "name": "_amount",
          "type": "uint256"
        }
      ],
      "name": "collectFee",
      "outputs": [],
      "stateMutability": "nonpayable",
      "type": "function"
    },
    {
      "inputs": [
        {
          "internalType": "address",
          "name": "_IBT",
          "type": "address"
        }
      ],
      "name": "getBuyFee",
      "outputs": [
        {
          "internalType": "uint256",
          "name": "",
          "type": "uint256"
        }
      ],
      "stateMutability": "view",
      "type": "function"
    },
    {
      "inputs": [
        {
          "internalType": "address",
          "name": "_PT",
          "type": "address"
        }
      ],
      "name": "getSellEarlyFee",
      "outputs": [
        {
          "internalType": "uint256",
          "name": "",
          "type": "uint256"
        }
      ],
      "stateMutability": "view",
      "type": "function"
    },
    {
      "inputs": [
        {
          "internalType": "address",
          "name": "_PT",
          "type": "address"
        }
      ],
      "name": "getSellFee",
      "outputs": [
        {
          "internalType": "uint256",
          "name": "",
          "type": "uint256"
        }
      ],
      "stateMutability": "view",
      "type": "function"
    },
    {
      "inputs": [
        {
          "internalType": "address",
          "name": "initialOwner",
          "type": "address"
        }
      ],
      "name": "initialize",
      "outputs": [],
      "stateMutability": "nonpayable",
      "type": "function"
    },
    {
      "inputs": [],
      "name": "owner",
      "outputs": [
        {
          "internalType": "address",
          "name": "",
          "type": "address"
        }
      ],
      "stateMutability": "view",
      "type": "function"
    },
    {
      "inputs": [],
      "name": "pause",
      "outputs": [],
      "stateMutability": "nonpayable",
      "type": "function"
    },
    {
      "inputs": [],
      "name": "paused",
      "outputs": [
        {
          "internalType": "bool",
          "name": "",
          "type": "bool"
        }
      ],
      "stateMutability": "view",
      "type": "function"
    },
    {
      "inputs": [
        {
          "internalType": "uint256",
          "name": "_amount",
          "type": "uint256"
        },
        {
          "internalType": "address",
          "name": "_curvePoolAddress",
          "type": "address"
        },
        {
          "internalType": "uint256",
          "name": "_IBTindexInCurve",
          "type": "uint256"
        },
        {
          "internalType": "uint256",
          "name": "_PTindexInCurve",
          "type": "uint256"
        }
      ],
      "name": "previewBuyDiscountedAsset",
      "outputs": [
        {
          "internalType": "uint256",
          "name": "",
          "type": "uint256"
        }
      ],
      "stateMutability": "view",
      "type": "function"
    },
    {
      "inputs": [
        {
          "internalType": "address",
          "name": "_curvePool",
          "type": "address"
        },
        {
          "internalType": "uint256",
          "name": "_inputTokenIndex",
          "type": "uint256"
        },
        {
          "internalType": "uint256",
          "name": "_outputTokenIndex",
          "type": "uint256"
        },
        {
          "internalType": "uint256",
          "name": "_dx",
          "type": "uint256"
        }
      ],
      "name": "previewClaimPTEarly",
      "outputs": [
        {
          "internalType": "uint256",
          "name": "",
          "type": "uint256"
        }
      ],
      "stateMutability": "view",
      "type": "function"
    },
    {
      "inputs": [
        {
          "internalType": "address",
          "name": "_ptToken",
          "type": "address"
        },
        {
          "internalType": "uint256",
          "name": "_amount",
          "type": "uint256"
        }
      ],
      "name": "redeemDiscountedAsset",
      "outputs": [],
      "stateMutability": "nonpayable",
      "type": "function"
    },
    {
      "inputs": [],
      "name": "registry",
      "outputs": [
        {
          "internalType": "contract IRegistry",
          "name": "",
          "type": "address"
        }
      ],
      "stateMutability": "view",
      "type": "function"
    },
    {
      "inputs": [],
      "name": "renounceOwnership",
      "outputs": [],
      "stateMutability": "nonpayable",
      "type": "function"
    },
    {
      "inputs": [
        {
          "internalType": "address",
          "name": "_IBT",
          "type": "address"
        },
        {
          "internalType": "uint256",
          "name": "_newFee",
          "type": "uint256"
        }
      ],
      "name": "setBuyFee",
      "outputs": [],
      "stateMutability": "nonpayable",
      "type": "function"
    },
    {
      "inputs": [
        {
          "internalType": "address",
          "name": "_PT",
          "type": "address"
        },
        {
          "internalType": "uint256",
          "name": "_newFee",
          "type": "uint256"
        }
      ],
      "name": "setSellEarlyFee",
      "outputs": [],
      "stateMutability": "nonpayable",
      "type": "function"
    },
    {
      "inputs": [
        {
          "internalType": "address",
          "name": "_PT",
          "type": "address"
        },
        {
          "internalType": "uint256",
          "name": "_newFee",
          "type": "uint256"
        }
      ],
      "name": "setSellFee",
      "outputs": [],
      "stateMutability": "nonpayable",
      "type": "function"
    },
    {
      "inputs": [
        {
          "internalType": "address",
          "name": "newOwner",
          "type": "address"
        }
      ],
      "name": "transferOwnership",
      "outputs": [],
      "stateMutability": "nonpayable",
      "type": "function"
    },
    {
      "inputs": [],
      "name": "unpause",
      "outputs": [],
      "stateMutability": "nonpayable",
      "type": "function"
    },
    {
      "inputs": [
        {
          "internalType": "address",
          "name": "_newRegistry",
          "type": "address"
        }
      ],
      "name": "updateRegistry",
      "outputs": [],
      "stateMutability": "nonpayable",
      "type": "function"
    }
  ],
  "bytecode": "0x608060405234801561001057600080fd5b5061001961001e565b6100d0565b7ff0c57e16840df040f15088dc2f81fe391c3923bec73e23a9662efc9c229c6a00805468010000000000000000900460ff161561006e5760405163f92ee8a960e01b815260040160405180910390fd5b80546001600160401b03908116146100cd5780546001600160401b0319166001600160401b0390811782556040519081527fc7f505b2f371ae2175ee4913f4499e1f2633a7b5936321eed1cdaeb6115181d29060200160405180910390a15b50565b611a54806100df6000396000f3fe608060405234801561001057600080fd5b50600436106101365760003560e01c8063715018a6116100b8578063b76393a61161007c578063b76393a61461027f578063c4d66de8146102a8578063cbdadba0146102bb578063ee63250f146102e4578063f2fde38b146102f7578063f8213bc61461030a57600080fd5b8063715018a6146102295780637b103999146102315780638456cb591461025c5780638da5cb5b146102645780639f3254061461026c57600080fd5b806334161658116100ff57806334161658146101af5780633f4ba83a146101c25780635237cf58146101ca5780635c975abb146101f3578063637777ef1461021657600080fd5b8062547a3d1461013b578063029354321461015057806318d3af28146101635780631a5da6c8146101895780632ec0ff6c1461019c575b600080fd5b61014e61014936600461172f565b61031d565b005b61014e61015e36600461175b565b610341565b61017661017136600461179f565b6106f6565b6040519081526020015b60405180910390f35b61014e6101973660046117dc565b610a5f565b61014e6101aa36600461172f565b610a89565b61014e6101bd36600461172f565b610b1e565b61014e610d2e565b6101766101d83660046117dc565b6001600160a01b031660009081526003602052604090205490565b6000805160206119ff8339815191525460ff166040519015158152602001610180565b610176610224366004611800565b610d40565b61014e610e5d565b600054610244906001600160a01b031681565b6040516001600160a01b039091168152602001610180565b61014e610e6f565b610244610e7f565b61014e61027a36600461172f565b610ead565b61017661028d3660046117dc565b6001600160a01b031660009081526002602052604090205490565b61014e6102b63660046117dc565b610ed1565b6101766102c93660046117dc565b6001600160a01b031660009081526001602052604090205490565b61014e6102f236600461172f565b61100e565b61014e6103053660046117dc565b611032565b61014e61031836600461179f565b611075565b610325611496565b6001600160a01b03909116600090815260026020526040902055565b60405163c661065760e01b8152600481018590526000906001600160a01b0387169063c661065790602401602060405180830381865afa158015610389573d6000803e3d6000fd5b505050506040513d601f19601f820116820180604052508101906103ad919061183b565b6040516323b872dd60e01b8152336004820152306024820152604481018590529091506001600160a01b038216906323b872dd906064016020604051808303816000875af1158015610403573d6000803e3d6000fd5b505050506040513d601f19601f820116820180604052508101906104279190611858565b5060405163095ea7b360e01b81526001600160a01b0387811660048301526024820185905282169063095ea7b3906044016020604051808303816000875af1158015610477573d6000803e3d6000fd5b505050506040513d601f19601f8201168201806040525081019061049b9190611858565b506001600160a01b038116600090815260036020526040812054900361054e5760405163ce7d650360e01b815260048101869052602481018590526044810184905260648101839052600060848201523360a48201526001600160a01b0387169063ce7d65039060c4016020604051808303816000875af1158015610524573d6000803e3d6000fd5b505050506040513d601f19601f82011682018060405250810190610548919061187a565b506106ee565b60405163ce7d650360e01b8152600481018690526024810185905260448101849052606481018390526000608482018190523060a4830152906001600160a01b0388169063ce7d65039060c4016020604051808303816000875af11580156105ba573d6000803e3d6000fd5b505050506040513d601f19601f820116820180604052508101906105de919061187a565b6001600160a01b038316600090815260036020526040812054919250906106069083906114c8565b60405163c661065760e01b8152600481018890529091506000906001600160a01b038a169063c661065790602401602060405180830381865afa158015610651573d6000803e3d6000fd5b505050506040513d601f19601f82011682018060405250810190610675919061183b565b60405163a9059cbb60e01b8152336004820152602481018490529091506001600160a01b0382169063a9059cbb906044016020604051808303816000875af11580156106c5573d6000803e3d6000fd5b505050506040513d601f19601f820116820180604052508101906106e99190611858565b505050505b505050505050565b600061070061150c565b60405163c661065760e01b8152600481018490526000906001600160a01b0386169063c661065790602401602060405180830381865afa158015610748573d6000803e3d6000fd5b505050506040513d601f19601f8201168201806040525081019061076c919061183b565b90506000816001600160a01b03166338d52e0f6040518163ffffffff1660e01b8152600401602060405180830381865afa1580156107ae573d6000803e3d6000fd5b505050506040513d601f19601f820116820180604052508101906107d2919061183b565b60408051600060208201819052600160fa1b6021830152600360f81b602283015282516003818403810182526023840181815260a38501909552949550939092916043015b60608152602001906001900390816108175750506001600160a01b03851660009081526001602052604081205491925090610853908b906114c8565b604080516001600160a01b03871660208201529081018290529091506060016040516020818303038152906040528260008151811061089457610894611893565b602090810291909101810191909152604080516001600160a01b03881692810192909252600160ff1b9082015260e06060820152608001604051602081830303815290604052826001815181106108ed576108ed611893565b6020026020010181905250888888600160ff1b600033604051602001610918969594939291906118a9565b6040516020818303038152906040528260028151811061093a5761093a611893565b602002602001018190525060008060009054906101000a90046001600160a01b03166001600160a01b031663b0f479a16040518163ffffffff1660e01b8152600401602060405180830381865afa158015610999573d6000803e3d6000fd5b505050506040513d601f19601f820116820180604052508101906109bd919061183b565b90506b033b2e3c9fd0803ce800000082826001600160a01b03166369dfa6c287876040518363ffffffff1660e01b81526004016109fb92919061192a565b602060405180830381865afa158015610a18573d6000803e3d6000fd5b505050506040513d601f19601f82011682018060405250810190610a3c919061187a565b610a4691906119b2565b610a5091906119c9565b9b9a5050505050505050505050565b610a67611496565b600080546001600160a01b0319166001600160a01b0392909216919091179055565b610a91611496565b816001600160a01b031663a9059cbb610aa8610e7f565b6040516001600160e01b031960e084901b1681526001600160a01b039091166004820152602481018490526044016020604051808303816000875af1158015610af5573d6000803e3d6000fd5b505050506040513d601f19601f82011682018060405250810190610b199190611858565b505050565b6001600160a01b0382166000908152600260205260408120549003610bb557604051635d043b2960e11b815260048101829052336024820181905260448201526001600160a01b0383169063ba087652906064016020604051808303816000875af1158015610b91573d6000803e3d6000fd5b505050506040513d601f19601f82011682018060405250810190610b19919061187a565b604051635d043b2960e11b8152600481018290523060248201523360448201526001600160a01b0383169063ba087652906064016020604051808303816000875af1158015610c08573d6000803e3d6000fd5b505050506040513d601f19601f82011682018060405250810190610c2c919061187a565b506001600160a01b038216600090815260026020526040812054610c519083906114c8565b9050826001600160a01b0316636f307dc36040518163ffffffff1660e01b8152600401602060405180830381865afa158015610c91573d6000803e3d6000fd5b505050506040513d601f19601f82011682018060405250810190610cb5919061183b565b60405163a9059cbb60e01b8152336004820152602481018390526001600160a01b03919091169063a9059cbb906044016020604051808303816000875af1158015610d04573d6000803e3d6000fd5b505050506040513d601f19601f82011682018060405250810190610d289190611858565b50505050565b610d36611496565b610d3e61153d565b565b60405163c661065760e01b81526004810184905260009081906001600160a01b0387169063c661065790602401602060405180830381865afa158015610d8a573d6000803e3d6000fd5b505050506040513d601f19601f82011682018060405250810190610dae919061183b565b60405163556d6e9f60e01b81526004810187905260248101869052604481018590529091506000906001600160a01b0388169063556d6e9f90606401602060405180830381865afa158015610e07573d6000803e3d6000fd5b505050506040513d601f19601f82011682018060405250810190610e2b919061187a565b6001600160a01b038316600090815260036020526040902054909150610e529082906114c8565b979650505050505050565b610e65611496565b610d3e600061159d565b610e77611496565b610d3e61160e565b7f9016d09d72d40fdae2fd8ceac6b6234c7706214fd39c1cd1e609a0528c199300546001600160a01b031690565b610eb5611496565b6001600160a01b03909116600090815260016020526040902055565b7ff0c57e16840df040f15088dc2f81fe391c3923bec73e23a9662efc9c229c6a008054600160401b810460ff16159067ffffffffffffffff16600081158015610f175750825b905060008267ffffffffffffffff166001148015610f345750303b155b905081158015610f42575080155b15610f605760405163f92ee8a960e01b815260040160405180910390fd5b845467ffffffffffffffff191660011785558315610f8a57845460ff60401b1916600160401b1785555b610f92611657565b610f9b86611667565b600080546001600160a01b03191673a2e793bac100975c8cf84b2bb72d8c9a26f03bab17905583156106ee57845460ff60401b19168555604051600181527fc7f505b2f371ae2175ee4913f4499e1f2633a7b5936321eed1cdaeb6115181d29060200160405180910390a1505050505050565b611016611496565b6001600160a01b03909116600090815260036020526040902055565b61103a611496565b6001600160a01b03811661106957604051631e4fbdf760e01b8152600060048201526024015b60405180910390fd5b6110728161159d565b50565b61107d61150c565b60405163c661065760e01b8152600481018390526000906001600160a01b0385169063c661065790602401602060405180830381865afa1580156110c5573d6000803e3d6000fd5b505050506040513d601f19601f820116820180604052508101906110e9919061183b565b90506000816001600160a01b03166338d52e0f6040518163ffffffff1660e01b8152600401602060405180830381865afa15801561112b573d6000803e3d6000fd5b505050506040513d601f19601f8201168201806040525081019061114f919061183b565b6040516323b872dd60e01b8152336004820152306024820152604481018890529091506001600160a01b038216906323b872dd906064016020604051808303816000875af11580156111a5573d6000803e3d6000fd5b505050506040513d601f19601f820116820180604052508101906111c99190611858565b506001600160a01b0382166000908152600160205260408120546111ee9088906114c8565b60408051600060208201819052600160fa1b6021830152600360f81b602283015282516003818403810182526023840181815260a38501909552949550939092916043015b606081526020019060019003908161123357905050604080516001600160a01b03871660208201529081018590529091506060016040516020818303038152906040528160008151811061128957611289611893565b602090810291909101810191909152604080516001600160a01b03881692810192909252600160ff1b9082015260e06060820152608001604051602081830303815290604052816001815181106112e2576112e2611893565b6020026020010181905250878787600160ff1b60003360405160200161130d969594939291906118a9565b6040516020818303038152906040528160028151811061132f5761132f611893565b602002602001018190525060008060009054906101000a90046001600160a01b03166001600160a01b031663b0f479a16040518163ffffffff1660e01b8152600401602060405180830381865afa15801561138e573d6000803e3d6000fd5b505050506040513d601f19601f820116820180604052508101906113b2919061183b565b60405163095ea7b360e01b81526001600160a01b038083166004830152602482018790529192509086169063095ea7b3906044016020604051808303816000875af1158015611405573d6000803e3d6000fd5b505050506040513d601f19601f820116820180604052508101906114299190611858565b506040516324856bc360e01b81526001600160a01b038216906324856bc390611458908690869060040161192a565b600060405180830381600087803b15801561147257600080fd5b505af1158015611486573d6000803e3d6000fd5b5050505050505050505050505050565b3361149f610e7f565b6001600160a01b031614610d3e5760405163118cdaa760e01b8152336004820152602401611060565b6000670de0b6b3a76400006114df836127106119eb565b6114e990856119b2565b6114f990655af3107a40006119b2565b61150391906119c9565b90505b92915050565b6000805160206119ff8339815191525460ff1615610d3e5760405163d93c066560e01b815260040160405180910390fd5b611545611678565b6000805160206119ff833981519152805460ff191681557f5db9ee0a495bf2e6ff9c91a7834c1ba4fdd244a5e8aa4e537bd38aeae4b073aa335b6040516001600160a01b03909116815260200160405180910390a150565b7f9016d09d72d40fdae2fd8ceac6b6234c7706214fd39c1cd1e609a0528c19930080546001600160a01b031981166001600160a01b03848116918217845560405192169182907f8be0079c531659141344cd1fd0a4f28419497f9722a3daafe3b4186f6b6457e090600090a3505050565b61161661150c565b6000805160206119ff833981519152805460ff191660011781557f62e78cea01bee320cd4e420270b5ea74000d11b0c9f74754ebdbfc544b05a2583361157f565b61165f6116a8565b610d3e6116f1565b61166f6116a8565b61107281611712565b6000805160206119ff8339815191525460ff16610d3e57604051638dfc202b60e01b815260040160405180910390fd5b7ff0c57e16840df040f15088dc2f81fe391c3923bec73e23a9662efc9c229c6a0054600160401b900460ff16610d3e57604051631afcd79f60e31b815260040160405180910390fd5b6116f96116a8565b6000805160206119ff833981519152805460ff19169055565b61103a6116a8565b6001600160a01b038116811461107257600080fd5b6000806040838503121561174257600080fd5b823561174d8161171a565b946020939093013593505050565b600080600080600060a0868803121561177357600080fd5b853561177e8161171a565b97602087013597506040870135966060810135965060800135945092505050565b600080600080608085870312156117b557600080fd5b8435935060208501356117c78161171a565b93969395505050506040820135916060013590565b6000602082840312156117ee57600080fd5b81356117f98161171a565b9392505050565b6000806000806080858703121561181657600080fd5b84356118218161171a565b966020860135965060408601359560600135945092505050565b60006020828403121561184d57600080fd5b81516117f98161171a565b60006020828403121561186a57600080fd5b815180151581146117f957600080fd5b60006020828403121561188c57600080fd5b5051919050565b634e487b7160e01b600052603260045260246000fd5b6001600160a01b03968716815260208101959095526040850193909352606084019190915260ff16608083015290911660a082015260c00190565b6000815180845260005b8181101561190a576020818501810151868301820152016118ee565b506000602082860101526020601f19601f83011685010191505092915050565b60408152600061193d60408301856118e4565b6020838203818501528185518084528284019150828160051b85010183880160005b8381101561198d57601f1987840301855261197b8383516118e4565b9486019492509085019060010161195f565b50909998505050505050505050565b634e487b7160e01b600052601160045260246000fd5b80820281158282048414176115065761150661199c565b6000826119e657634e487b7160e01b600052601260045260246000fd5b500490565b818103818111156115065761150661199c56fecd5ed15c6e187e77e9aee88184c21f4f2182ab5827cb3b7e07fbedcd63f03300a26469706673582212206c4e56410f5f04138b378c2a85531182c4aab05a3ab6c760eb8efa3b9ecfa68a64736f6c63430008180033",
  "linkReferences": {},
  "deployedLinkReferences": {}
}