{
  "_format": "hh-sol-artifact-1",
  "contractName": "DiscountV1",
  "sourceName": "contracts/DiscountV1.sol",
  "abi": [
    {
      "inputs": [],
      "stateMutability": "nonpayable",
      "type": "constructor"
    },
    {
      "inputs": [],
      "name": "EnforcedPause",
      "type": "error"
    },
    {
      "inputs": [],
      "name": "ExpectedPause",
      "type": "error"
    },
    {
      "inputs": [],
      "name": "InvalidInitialization",
      "type": "error"
    },
    {
      "inputs": [],
      "name": "NotInitializing",
      "type": "error"
    },
    {
      "inputs": [
        {
          "internalType": "address",
          "name": "owner",
          "type": "address"
        }
      ],
      "name": "OwnableInvalidOwner",
      "type": "error"
    },
    {
      "inputs": [
        {
          "internalType": "address",
          "name": "account",
          "type": "address"
        }
      ],
      "name": "OwnableUnauthorizedAccount",
      "type": "error"
    },
    {
      "anonymous": false,
      "inputs": [
        {
          "indexed": false,
          "internalType": "uint64",
          "name": "version",
          "type": "uint64"
        }
      ],
      "name": "Initialized",
      "type": "event"
    },
    {
      "anonymous": false,
      "inputs": [
        {
          "indexed": true,
          "internalType": "address",
          "name": "previousOwner",
          "type": "address"
        },
        {
          "indexed": true,
          "internalType": "address",
          "name": "newOwner",
          "type": "address"
        }
      ],
      "name": "OwnershipTransferred",
      "type": "event"
    },
    {
      "anonymous": false,
      "inputs": [
        {
          "indexed": false,
          "internalType": "address",
          "name": "account",
          "type": "address"
        }
      ],
      "name": "Paused",
      "type": "event"
    },
    {
      "anonymous": false,
      "inputs": [
        {
          "indexed": false,
          "internalType": "address",
          "name": "account",
          "type": "address"
        }
      ],
      "name": "Unpaused",
      "type": "event"
    },
    {
      "inputs": [
        {
          "internalType": "uint256",
          "name": "amount",
          "type": "uint256"
        },
        {
          "internalType": "address",
          "name": "curvePoolAddress",
          "type": "address"
        },
        {
          "internalType": "uint256",
          "name": "minAmountOut",
          "type": "uint256"
        }
      ],
      "name": "buyDiscountedAsset",
      "outputs": [],
      "stateMutability": "nonpayable",
      "type": "function"
    },
    {
      "inputs": [
        {
          "internalType": "address",
          "name": "curvePool",
          "type": "address"
        },
        {
          "internalType": "uint256",
          "name": "amount",
          "type": "uint256"
        },
        {
          "internalType": "uint256",
          "name": "minAmountOut",
          "type": "uint256"
        }
      ],
      "name": "claimPTEarly",
      "outputs": [],
      "stateMutability": "nonpayable",
      "type": "function"
    },
    {
      "inputs": [
        {
          "internalType": "address",
          "name": "token",
          "type": "address"
        },
        {
          "internalType": "uint256",
          "name": "amount",
          "type": "uint256"
        }
      ],
      "name": "collectFee",
      "outputs": [],
      "stateMutability": "nonpayable",
      "type": "function"
    },
    {
      "inputs": [
        {
          "internalType": "address",
          "name": "iBT",
          "type": "address"
        }
      ],
      "name": "getBuyFee",
      "outputs": [
        {
          "internalType": "uint256",
          "name": "",
          "type": "uint256"
        }
      ],
      "stateMutability": "view",
      "type": "function"
    },
    {
      "inputs": [
        {
          "internalType": "address",
          "name": "pT",
          "type": "address"
        }
      ],
      "name": "getSellEarlyFee",
      "outputs": [
        {
          "internalType": "uint256",
          "name": "",
          "type": "uint256"
        }
      ],
      "stateMutability": "view",
      "type": "function"
    },
    {
      "inputs": [
        {
          "internalType": "address",
          "name": "_initialOwner",
          "type": "address"
        },
        {
          "internalType": "address",
          "name": "_router",
          "type": "address"
        }
      ],
      "name": "initialize",
      "outputs": [],
      "stateMutability": "nonpayable",
      "type": "function"
    },
    {
      "inputs": [],
      "name": "owner",
      "outputs": [
        {
          "internalType": "address",
          "name": "",
          "type": "address"
        }
      ],
      "stateMutability": "view",
      "type": "function"
    },
    {
      "inputs": [],
      "name": "pause",
      "outputs": [],
      "stateMutability": "nonpayable",
      "type": "function"
    },
    {
      "inputs": [],
      "name": "paused",
      "outputs": [
        {
          "internalType": "bool",
          "name": "",
          "type": "bool"
        }
      ],
      "stateMutability": "view",
      "type": "function"
    },
    {
      "inputs": [
        {
          "internalType": "uint256",
          "name": "amount",
          "type": "uint256"
        },
        {
          "internalType": "address",
          "name": "curvePoolAddress",
          "type": "address"
        }
      ],
      "name": "previewBuyDiscountedAsset",
      "outputs": [
        {
          "internalType": "uint256",
          "name": "",
          "type": "uint256"
        }
      ],
      "stateMutability": "view",
      "type": "function"
    },
    {
      "inputs": [
        {
          "internalType": "address",
          "name": "curvePool",
          "type": "address"
        },
        {
          "internalType": "uint256",
          "name": "amount",
          "type": "uint256"
        }
      ],
      "name": "previewClaimPTEarly",
      "outputs": [
        {
          "internalType": "uint256",
          "name": "",
          "type": "uint256"
        }
      ],
      "stateMutability": "view",
      "type": "function"
    },
    {
      "inputs": [
        {
          "internalType": "address",
          "name": "ptToken",
          "type": "address"
        },
        {
          "internalType": "uint256",
          "name": "amount",
          "type": "uint256"
        }
      ],
      "name": "redeemDiscountedAsset",
      "outputs": [],
      "stateMutability": "nonpayable",
      "type": "function"
    },
    {
      "inputs": [],
      "name": "renounceOwnership",
      "outputs": [],
      "stateMutability": "nonpayable",
      "type": "function"
    },
    {
      "inputs": [],
      "name": "router",
      "outputs": [
        {
          "internalType": "contract IRouter",
          "name": "",
          "type": "address"
        }
      ],
      "stateMutability": "view",
      "type": "function"
    },
    {
      "inputs": [
        {
          "internalType": "address",
          "name": "iBT",
          "type": "address"
        },
        {
          "internalType": "uint256",
          "name": "newFee",
          "type": "uint256"
        }
      ],
      "name": "setBuyFee",
      "outputs": [],
      "stateMutability": "nonpayable",
      "type": "function"
    },
    {
      "inputs": [
        {
          "internalType": "address",
          "name": "pT",
          "type": "address"
        },
        {
          "internalType": "uint256",
          "name": "newFee",
          "type": "uint256"
        }
      ],
      "name": "setSellEarlyFee",
      "outputs": [],
      "stateMutability": "nonpayable",
      "type": "function"
    },
    {
      "inputs": [
        {
          "internalType": "address",
          "name": "newOwner",
          "type": "address"
        }
      ],
      "name": "transferOwnership",
      "outputs": [],
      "stateMutability": "nonpayable",
      "type": "function"
    },
    {
      "inputs": [],
      "name": "unpause",
      "outputs": [],
      "stateMutability": "nonpayable",
      "type": "function"
    },
    {
      "inputs": [
        {
          "internalType": "address",
          "name": "newRouter",
          "type": "address"
        }
      ],
      "name": "updateRouter",
      "outputs": [],
      "stateMutability": "nonpayable",
      "type": "function"
    }
  ],
  "bytecode": "0x608060405234801561001057600080fd5b5061001961001e565b6100d0565b7ff0c57e16840df040f15088dc2f81fe391c3923bec73e23a9662efc9c229c6a00805468010000000000000000900460ff161561006e5760405163f92ee8a960e01b815260040160405180910390fd5b80546001600160401b03908116146100cd5780546001600160401b0319166001600160401b0390811782556040519081527fc7f505b2f371ae2175ee4913f4499e1f2633a7b5936321eed1cdaeb6115181d29060200160405180910390a15b50565b611817806100df6000396000f3fe608060405234801561001057600080fd5b50600436106101215760003560e01c80638da5cb5b116100ad578063cbdadba011610071578063cbdadba014610257578063e005226114610280578063ee63250f14610293578063f2fde38b146102a6578063f887ea40146102b957600080fd5b80638da5cb5b146101eb5780639f3254061461020b578063a82d0db41461021e578063c851cc3214610231578063cb66e1631461024457600080fd5b8063485cc955116100f4578063485cc9551461017c5780635237cf581461018f5780635c975abb146101b8578063715018a6146101db5780638456cb59146101e357600080fd5b80630143c068146101265780632ec0ff6c1461014c57806334161658146101615780633f4ba83a14610174575b600080fd5b610139610134366004611525565b6102cc565b6040519081526020015b60405180910390f35b61015f61015a366004611555565b610388565b005b61015f61016f366004611555565b61041d565b61015f61049d565b61015f61018a366004611581565b6104af565b61013961019d3660046115af565b6001600160a01b031660009081526002602052604090205490565b6000805160206117c28339815191525460ff166040519015158152602001610143565b61015f6105ed565b61015f6105ff565b6101f361060f565b6040516001600160a01b039091168152602001610143565b61015f610219366004611555565b61063d565b61015f61022c3660046115cc565b610661565b61015f61023f3660046115af565b6107e1565b610139610252366004611555565b61080b565b6101396102653660046115af565b6001600160a01b031660009081526001602052604090205490565b61015f61028e366004611604565b6108ef565b61015f6102a1366004611555565b610c87565b61015f6102b43660046115af565b610cab565b6000546101f3906001600160a01b031681565b6000806000806102de86866000610ce9565b506000546040516334efd36160e11b815293965091945092506b033b2e3c9fd0803ce80000009183916001600160a01b0316906369dfa6c290610327908890889060040161167f565b602060405180830381865afa158015610344573d6000803e3d6000fd5b505050506040513d601f19601f8201168201806040525081019061036891906116f1565b6103729190611720565b61037c9190611737565b93505050505b92915050565b610390610f65565b816001600160a01b031663a9059cbb6103a761060f565b6040516001600160e01b031960e084901b1681526001600160a01b039091166004820152602481018490526044016020604051808303816000875af11580156103f4573d6000803e3d6000fd5b505050506040513d601f19601f820116820180604052508101906104189190611759565b505050565b610425610f97565b604051635d043b2960e11b815260048101829052336024820181905260448201526001600160a01b0383169063ba087652906064016020604051808303816000875af1158015610479573d6000803e3d6000fd5b505050506040513d601f19601f8201168201806040525081019061041891906116f1565b6104a5610f65565b6104ad610fc8565b565b7ff0c57e16840df040f15088dc2f81fe391c3923bec73e23a9662efc9c229c6a008054600160401b810460ff16159067ffffffffffffffff166000811580156104f55750825b905060008267ffffffffffffffff1660011480156105125750303b155b905081158015610520575080155b1561053e5760405163f92ee8a960e01b815260040160405180910390fd5b845467ffffffffffffffff19166001178555831561056857845460ff60401b1916600160401b1785555b610570611028565b61057987611038565b60006003819055600160045580546001600160a01b0319166001600160a01b03881617905583156105e457845460ff60401b19168555604051600181527fc7f505b2f371ae2175ee4913f4499e1f2633a7b5936321eed1cdaeb6115181d29060200160405180910390a15b50505050505050565b6105f5610f65565b6104ad6000611049565b610607610f65565b6104ad6110ba565b7f9016d09d72d40fdae2fd8ceac6b6234c7706214fd39c1cd1e609a0528c199300546001600160a01b031690565b610645610f65565b6001600160a01b03909116600090815260016020526040902055565b610669610f97565b60008060008061067a878787610ce9565b6040516323b872dd60e01b8152336004820152306024820152604481018c9052939750919550935091506001600160a01b038216906323b872dd906064016020604051808303816000875af11580156106d7573d6000803e3d6000fd5b505050506040513d601f19601f820116820180604052508101906106fb9190611759565b5060005460405163095ea7b360e01b81526001600160a01b039182166004820152602481018490529082169063095ea7b3906044016020604051808303816000875af115801561074f573d6000803e3d6000fd5b505050506040513d601f19601f820116820180604052508101906107739190611759565b506000546040516324856bc360e01b81526001600160a01b03909116906324856bc3906107a6908790879060040161167f565b600060405180830381600087803b1580156107c057600080fd5b505af11580156107d4573d6000803e3d6000fd5b5050505050505050505050565b6107e9610f65565b600080546001600160a01b0319166001600160a01b0392909216919091179055565b60008060008061081b8686611103565b600080546040516334efd36160e11b8152949750929550909350916b033b2e3c9fd0803ce80000009188916001600160a01b03909116906369dfa6c290610868908990899060040161167f565b602060405180830381865afa158015610885573d6000803e3d6000fd5b505050506040513d601f19601f820116820180604052508101906108a991906116f1565b6108b39190611720565b6108bd9190611737565b6001600160a01b0383166000908152600260205260409020549091506108e490829061142c565b979650505050505050565b6108f7610f97565b60008060006109068686611103565b9250925092506000816001600160a01b0316636f307dc36040518163ffffffff1660e01b8152600401602060405180830381865afa15801561094c573d6000803e3d6000fd5b505050506040513d601f19601f82011682018060405250810190610970919061177b565b6040516370a0823160e01b81523060048201529091506000906001600160a01b038316906370a0823190602401602060405180830381865afa1580156109ba573d6000803e3d6000fd5b505050506040513d601f19601f820116820180604052508101906109de91906116f1565b6040516323b872dd60e01b8152336004820152306024820152604481018990529091506001600160a01b038416906323b872dd906064016020604051808303816000875af1158015610a34573d6000803e3d6000fd5b505050506040513d601f19601f82011682018060405250810190610a589190611759565b5060005460405163095ea7b360e01b81526001600160a01b039182166004820152602481018990529084169063095ea7b3906044016020604051808303816000875af1158015610aac573d6000803e3d6000fd5b505050506040513d601f19601f82011682018060405250810190610ad09190611759565b506000546040516324856bc360e01b81526001600160a01b03909116906324856bc390610b03908890889060040161167f565b600060405180830381600087803b158015610b1d57600080fd5b505af1158015610b31573d6000803e3d6000fd5b50506040516370a0823160e01b8152306004820152600092508391506001600160a01b038516906370a0823190602401602060405180830381865afa158015610b7e573d6000803e3d6000fd5b505050506040513d601f19601f82011682018060405250810190610ba291906116f1565b610bac9190611798565b6001600160a01b03851660009081526002602052604081205491925090610bd490839061142c565b905087811015610c165760405162461bcd60e51b8152602060048201526008602482015267536c69707061676560c01b60448201526064015b60405180910390fd5b60405163a9059cbb60e01b8152336004820152602481018290526001600160a01b0385169063a9059cbb906044016020604051808303816000875af1158015610c63573d6000803e3d6000fd5b505050506040513d601f19601f820116820180604052508101906107d49190611759565b610c8f610f65565b6001600160a01b03909116600090815260026020526040902055565b610cb3610f65565b6001600160a01b038116610cdd57604051631e4fbdf760e01b815260006004820152602401610c0d565b610ce681611049565b50565b6060806000806000866001600160a01b031663c66106576003546040518263ffffffff1660e01b8152600401610d2191815260200190565b602060405180830381865afa158015610d3e573d6000803e3d6000fd5b505050506040513d601f19601f82011682018060405250810190610d62919061177b565b9050806001600160a01b03166338d52e0f6040518163ffffffff1660e01b8152600401602060405180830381865afa158015610da2573d6000803e3d6000fd5b505050506040513d601f19601f82011682018060405250810190610dc6919061177b565b60405160006020820152600160fa1b6021820152600360f81b602282015290925060230160408051808303601f190181526003808452608084019092529650816020015b6060815260200190600190039081610e0a5750506001600160a01b038216600090815260016020526040902054909450610e4590899061142c565b604080516001600160a01b038516602082015290810182905290935060600160405160208183030381529060405284600081518110610e8657610e866117ab565b602090810291909101810191909152604080516001600160a01b03841692810192909252600160ff1b9082015260e0606082015260800160405160208183030381529060405284600181518110610edf57610edf6117ab565b602090810291909101810191909152600354600454604080516001600160a01b038c16948101949094528301919091526060820152600160ff1b608082015260a081018790523360c082015260e00160405160208183030381529060405284600281518110610f5057610f506117ab565b60200260200101819052505093509350935093565b33610f6e61060f565b6001600160a01b0316146104ad5760405163118cdaa760e01b8152336004820152602401610c0d565b6000805160206117c28339815191525460ff16156104ad5760405163d93c066560e01b815260040160405180910390fd5b610fd061146e565b6000805160206117c2833981519152805460ff191681557f5db9ee0a495bf2e6ff9c91a7834c1ba4fdd244a5e8aa4e537bd38aeae4b073aa335b6040516001600160a01b03909116815260200160405180910390a150565b61103061149e565b6104ad6114e7565b61104061149e565b610ce681611508565b7f9016d09d72d40fdae2fd8ceac6b6234c7706214fd39c1cd1e609a0528c19930080546001600160a01b031981166001600160a01b03848116918217845560405192169182907f8be0079c531659141344cd1fd0a4f28419497f9722a3daafe3b4186f6b6457e090600090a3505050565b6110c2610f97565b6000805160206117c2833981519152805460ff191660011781557f62e78cea01bee320cd4e420270b5ea74000d11b0c9f74754ebdbfc544b05a2583361100a565b6060806000846001600160a01b031663c66106576004546040518263ffffffff1660e01b815260040161113891815260200190565b602060405180830381865afa158015611155573d6000803e3d6000fd5b505050506040513d601f19601f82011682018060405250810190611179919061177b565b90506000816001600160a01b0316636f307dc36040518163ffffffff1660e01b8152600401602060405180830381865afa1580156111bb573d6000803e3d6000fd5b505050506040513d601f19601f820116820180604052508101906111df919061177b565b90506000866001600160a01b031663c66106576003546040518263ffffffff1660e01b815260040161121391815260200190565b602060405180830381865afa158015611230573d6000803e3d6000fd5b505050506040513d601f19601f82011682018060405250810190611254919061177b565b60405160006020820152600360f81b6021820152600760f81b6022820152600160f91b602382015290915060240160408051808303601f19018152600480845260a084019092529650816020015b60608152602001906001900390816112a257905050604080516001600160a01b0386166020820152908101889052909450606001604051602081830303815290604052846000815181106112f8576112f86117ab565b602090810291909101810191909152600454600354604080516001600160a01b038c1694810194909452830191909152606082015260808101879052600060a082015260e060c082018190520160405160208183030381529060405284600181518110611367576113676117ab565b602090810291909101810191909152604080516001600160a01b03841692810192909252600160ff1b9082015260e06060820152608001604051602081830303815290604052846002815181106113c0576113c06117ab565b602090810291909101810191909152604080516001600160a01b038516928101929092523090820152600160ff1b606082015260800160405160208183030381529060405284600381518110611418576114186117ab565b602002602001018190525050509250925092565b6000670de0b6b3a764000061144383612710611798565b61144d9085611720565b61145d90655af3107a4000611720565b6114679190611737565b9392505050565b6000805160206117c28339815191525460ff166104ad57604051638dfc202b60e01b815260040160405180910390fd5b7ff0c57e16840df040f15088dc2f81fe391c3923bec73e23a9662efc9c229c6a0054600160401b900460ff166104ad57604051631afcd79f60e31b815260040160405180910390fd5b6114ef61149e565b6000805160206117c2833981519152805460ff19169055565b610cb361149e565b6001600160a01b0381168114610ce657600080fd5b6000806040838503121561153857600080fd5b82359150602083013561154a81611510565b809150509250929050565b6000806040838503121561156857600080fd5b823561157381611510565b946020939093013593505050565b6000806040838503121561159457600080fd5b823561159f81611510565b9150602083013561154a81611510565b6000602082840312156115c157600080fd5b813561146781611510565b6000806000606084860312156115e157600080fd5b8335925060208401356115f381611510565b929592945050506040919091013590565b60008060006060848603121561161957600080fd5b833561162481611510565b95602085013595506040909401359392505050565b6000815180845260005b8181101561165f57602081850181015186830182015201611643565b506000602082860101526020601f19601f83011685010191505092915050565b6040815260006116926040830185611639565b6020838203818501528185518084528284019150828160051b85010183880160005b838110156116e257601f198784030185526116d0838351611639565b948601949250908501906001016116b4565b50909998505050505050505050565b60006020828403121561170357600080fd5b5051919050565b634e487b7160e01b600052601160045260246000fd5b80820281158282048414176103825761038261170a565b60008261175457634e487b7160e01b600052601260045260246000fd5b500490565b60006020828403121561176b57600080fd5b8151801515811461146757600080fd5b60006020828403121561178d57600080fd5b815161146781611510565b818103818111156103825761038261170a565b634e487b7160e01b600052603260045260246000fdfecd5ed15c6e187e77e9aee88184c21f4f2182ab5827cb3b7e07fbedcd63f03300a2646970667358221220c856949d961eae63c46f70a79e5e85128646291ebb4ab210dd584e6560aed6b664736f6c63430008180033",
  "linkReferences": {},
  "deployedLinkReferences": {}
}