{
  "_format": "hh-sol-artifact-1",
  "contractName": "DiscountV1",
  "sourceName": "contracts/DiscountV1.sol",
  "abi": [
    {
      "inputs": [],
      "stateMutability": "nonpayable",
      "type": "constructor"
    },
    {
      "inputs": [],
      "name": "EnforcedPause",
      "type": "error"
    },
    {
      "inputs": [],
      "name": "ExpectedPause",
      "type": "error"
    },
    {
      "inputs": [],
      "name": "InvalidInitialization",
      "type": "error"
    },
    {
      "inputs": [],
      "name": "NotInitializing",
      "type": "error"
    },
    {
      "inputs": [
        {
          "internalType": "address",
          "name": "owner",
          "type": "address"
        }
      ],
      "name": "OwnableInvalidOwner",
      "type": "error"
    },
    {
      "inputs": [
        {
          "internalType": "address",
          "name": "account",
          "type": "address"
        }
      ],
      "name": "OwnableUnauthorizedAccount",
      "type": "error"
    },
    {
      "anonymous": false,
      "inputs": [
        {
          "indexed": false,
          "internalType": "uint64",
          "name": "version",
          "type": "uint64"
        }
      ],
      "name": "Initialized",
      "type": "event"
    },
    {
      "anonymous": false,
      "inputs": [
        {
          "indexed": true,
          "internalType": "address",
          "name": "previousOwner",
          "type": "address"
        },
        {
          "indexed": true,
          "internalType": "address",
          "name": "newOwner",
          "type": "address"
        }
      ],
      "name": "OwnershipTransferred",
      "type": "event"
    },
    {
      "anonymous": false,
      "inputs": [
        {
          "indexed": false,
          "internalType": "address",
          "name": "account",
          "type": "address"
        }
      ],
      "name": "Paused",
      "type": "event"
    },
    {
      "anonymous": false,
      "inputs": [
        {
          "indexed": false,
          "internalType": "address",
          "name": "account",
          "type": "address"
        }
      ],
      "name": "Unpaused",
      "type": "event"
    },
    {
      "inputs": [
        {
          "internalType": "uint256",
          "name": "_amount",
          "type": "uint256"
        },
        {
          "internalType": "address",
          "name": "_curvePoolAddress",
          "type": "address"
        },
        {
          "internalType": "uint256",
          "name": "_IBTindexInCurve",
          "type": "uint256"
        },
        {
          "internalType": "uint256",
          "name": "_PTindexInCurve",
          "type": "uint256"
        },
        {
          "internalType": "uint256",
          "name": "_minAmountOut",
          "type": "uint256"
        }
      ],
      "name": "buyDiscountedAsset",
      "outputs": [],
      "stateMutability": "nonpayable",
      "type": "function"
    },
    {
      "inputs": [
        {
          "internalType": "address",
          "name": "_curvePool",
          "type": "address"
        },
        {
          "internalType": "uint256",
          "name": "_inputTokenIndex",
          "type": "uint256"
        },
        {
          "internalType": "uint256",
          "name": "_outputTokenIndex",
          "type": "uint256"
        },
        {
          "internalType": "uint256",
          "name": "_dx",
          "type": "uint256"
        },
        {
          "internalType": "uint256",
          "name": "_min_dy",
          "type": "uint256"
        }
      ],
      "name": "claimPTEarly",
      "outputs": [],
      "stateMutability": "nonpayable",
      "type": "function"
    },
    {
      "inputs": [
        {
          "internalType": "address",
          "name": "_token",
          "type": "address"
        },
        {
          "internalType": "uint256",
          "name": "_amount",
          "type": "uint256"
        }
      ],
      "name": "collectFee",
      "outputs": [],
      "stateMutability": "nonpayable",
      "type": "function"
    },
    {
      "inputs": [
        {
          "internalType": "address",
          "name": "_IBT",
          "type": "address"
        }
      ],
      "name": "getBuyFee",
      "outputs": [
        {
          "internalType": "uint256",
          "name": "",
          "type": "uint256"
        }
      ],
      "stateMutability": "view",
      "type": "function"
    },
    {
      "inputs": [
        {
          "internalType": "address",
          "name": "_PT",
          "type": "address"
        }
      ],
      "name": "getSellEarlyFee",
      "outputs": [
        {
          "internalType": "uint256",
          "name": "",
          "type": "uint256"
        }
      ],
      "stateMutability": "view",
      "type": "function"
    },
    {
      "inputs": [
        {
          "internalType": "address",
          "name": "_initialOwner",
          "type": "address"
        },
        {
          "internalType": "address",
          "name": "_registry",
          "type": "address"
        }
      ],
      "name": "initialize",
      "outputs": [],
      "stateMutability": "nonpayable",
      "type": "function"
    },
    {
      "inputs": [],
      "name": "owner",
      "outputs": [
        {
          "internalType": "address",
          "name": "",
          "type": "address"
        }
      ],
      "stateMutability": "view",
      "type": "function"
    },
    {
      "inputs": [],
      "name": "pause",
      "outputs": [],
      "stateMutability": "nonpayable",
      "type": "function"
    },
    {
      "inputs": [],
      "name": "paused",
      "outputs": [
        {
          "internalType": "bool",
          "name": "",
          "type": "bool"
        }
      ],
      "stateMutability": "view",
      "type": "function"
    },
    {
      "inputs": [
        {
          "internalType": "uint256",
          "name": "_amount",
          "type": "uint256"
        },
        {
          "internalType": "address",
          "name": "_curvePoolAddress",
          "type": "address"
        },
        {
          "internalType": "uint256",
          "name": "_IBTindexInCurve",
          "type": "uint256"
        },
        {
          "internalType": "uint256",
          "name": "_PTindexInCurve",
          "type": "uint256"
        }
      ],
      "name": "previewBuyDiscountedAsset",
      "outputs": [
        {
          "internalType": "uint256",
          "name": "",
          "type": "uint256"
        }
      ],
      "stateMutability": "view",
      "type": "function"
    },
    {
      "inputs": [
        {
          "internalType": "address",
          "name": "_curvePool",
          "type": "address"
        },
        {
          "internalType": "uint256",
          "name": "_inputTokenIndex",
          "type": "uint256"
        },
        {
          "internalType": "uint256",
          "name": "_outputTokenIndex",
          "type": "uint256"
        },
        {
          "internalType": "uint256",
          "name": "_dx",
          "type": "uint256"
        }
      ],
      "name": "previewClaimPTEarly",
      "outputs": [
        {
          "internalType": "uint256",
          "name": "",
          "type": "uint256"
        }
      ],
      "stateMutability": "view",
      "type": "function"
    },
    {
      "inputs": [
        {
          "internalType": "address",
          "name": "_ptToken",
          "type": "address"
        },
        {
          "internalType": "uint256",
          "name": "_amount",
          "type": "uint256"
        }
      ],
      "name": "redeemDiscountedAsset",
      "outputs": [],
      "stateMutability": "nonpayable",
      "type": "function"
    },
    {
      "inputs": [],
      "name": "registry",
      "outputs": [
        {
          "internalType": "contract IRegistry",
          "name": "",
          "type": "address"
        }
      ],
      "stateMutability": "view",
      "type": "function"
    },
    {
      "inputs": [],
      "name": "renounceOwnership",
      "outputs": [],
      "stateMutability": "nonpayable",
      "type": "function"
    },
    {
      "inputs": [
        {
          "internalType": "address",
          "name": "_IBT",
          "type": "address"
        },
        {
          "internalType": "uint256",
          "name": "_newFee",
          "type": "uint256"
        }
      ],
      "name": "setBuyFee",
      "outputs": [],
      "stateMutability": "nonpayable",
      "type": "function"
    },
    {
      "inputs": [
        {
          "internalType": "address",
          "name": "_PT",
          "type": "address"
        },
        {
          "internalType": "uint256",
          "name": "_newFee",
          "type": "uint256"
        }
      ],
      "name": "setSellEarlyFee",
      "outputs": [],
      "stateMutability": "nonpayable",
      "type": "function"
    },
    {
      "inputs": [
        {
          "internalType": "address",
          "name": "newOwner",
          "type": "address"
        }
      ],
      "name": "transferOwnership",
      "outputs": [],
      "stateMutability": "nonpayable",
      "type": "function"
    },
    {
      "inputs": [],
      "name": "unpause",
      "outputs": [],
      "stateMutability": "nonpayable",
      "type": "function"
    },
    {
      "inputs": [
        {
          "internalType": "address",
          "name": "_newRegistry",
          "type": "address"
        }
      ],
      "name": "updateRegistry",
      "outputs": [],
      "stateMutability": "nonpayable",
      "type": "function"
    }
  ],
  "bytecode": "0x608060405234801561001057600080fd5b5061001961001e565b6100d0565b7ff0c57e16840df040f15088dc2f81fe391c3923bec73e23a9662efc9c229c6a00805468010000000000000000900460ff161561006e5760405163f92ee8a960e01b815260040160405180910390fd5b80546001600160401b03908116146100cd5780546001600160401b0319166001600160401b0390811782556040519081527fc7f505b2f371ae2175ee4913f4499e1f2633a7b5936321eed1cdaeb6115181d29060200160405180910390a15b50565b6116ae806100df6000396000f3fe608060405234801561001057600080fd5b50600436106101215760003560e01c8063637777ef116100ad5780638da5cb5b116100715780638da5cb5b146102625780639f3254061461026a578063cbdadba01461027d578063ee63250f146102a6578063f2fde38b146102b957600080fd5b8063637777ef14610201578063715018a6146102145780637b1039991461021c5780638456cb59146102475780638662fac21461024f57600080fd5b806334161658116100f457806334161658146101875780633f4ba83a1461019a578063485cc955146101a25780635237cf58146101b55780635c975abb146101de57600080fd5b8063029354321461012657806318d3af281461013b5780631a5da6c8146101615780632ec0ff6c14610174575b600080fd5b610139610134366004611343565b6102cc565b005b61014e610149366004611387565b610689565b6040519081526020015b60405180910390f35b61013961016f3660046113c4565b6107bc565b6101396101823660046113e8565b6107e6565b6101396101953660046113e8565b61087b565b6101396108fb565b6101396101b0366004611414565b61090d565b61014e6101c33660046113c4565b6001600160a01b031660009081526002602052604090205490565b6000805160206116598339815191525460ff166040519015158152602001610158565b61014e61020f36600461144d565b610a41565b610139610b5e565b60005461022f906001600160a01b031681565b6040516001600160a01b039091168152602001610158565b610139610b70565b61013961025d366004611488565b610b80565b61022f610d79565b6101396102783660046113e8565b610da7565b61014e61028b3660046113c4565b6001600160a01b031660009081526001602052604090205490565b6101396102b43660046113e8565b610dcb565b6101396102c73660046113c4565b610def565b6102d4610e32565b60405163c661065760e01b8152600481018590526000906001600160a01b0387169063c661065790602401602060405180830381865afa15801561031c573d6000803e3d6000fd5b505050506040513d601f19601f8201168201806040525081019061034091906114d0565b6040516323b872dd60e01b8152336004820152306024820152604481018590529091506001600160a01b038216906323b872dd906064016020604051808303816000875af1158015610396573d6000803e3d6000fd5b505050506040513d601f19601f820116820180604052508101906103ba91906114ed565b5060405163095ea7b360e01b81526001600160a01b0387811660048301526024820185905282169063095ea7b3906044016020604051808303816000875af115801561040a573d6000803e3d6000fd5b505050506040513d601f19601f8201168201806040525081019061042e91906114ed565b506001600160a01b03811660009081526002602052604081205490036104e15760405163ce7d650360e01b815260048101869052602481018590526044810184905260648101839052600060848201523360a48201526001600160a01b0387169063ce7d65039060c4016020604051808303816000875af11580156104b7573d6000803e3d6000fd5b505050506040513d601f19601f820116820180604052508101906104db919061150f565b50610681565b60405163ce7d650360e01b8152600481018690526024810185905260448101849052606481018390526000608482018190523060a4830152906001600160a01b0388169063ce7d65039060c4016020604051808303816000875af115801561054d573d6000803e3d6000fd5b505050506040513d601f19601f82011682018060405250810190610571919061150f565b6001600160a01b03831660009081526002602052604081205491925090610599908390610e63565b60405163c661065760e01b8152600481018890529091506000906001600160a01b038a169063c661065790602401602060405180830381865afa1580156105e4573d6000803e3d6000fd5b505050506040513d601f19601f8201168201806040525081019061060891906114d0565b60405163a9059cbb60e01b8152336004820152602481018490529091506001600160a01b0382169063a9059cbb906044016020604051808303816000875af1158015610658573d6000803e3d6000fd5b505050506040513d601f19601f8201168201806040525081019061067c91906114ed565b505050505b505050505050565b60008060008061069d888888886000610ea7565b5092509250925060008060009054906101000a90046001600160a01b03166001600160a01b031663b0f479a16040518163ffffffff1660e01b8152600401602060405180830381865afa1580156106f8573d6000803e3d6000fd5b505050506040513d601f19601f8201168201806040525081019061071c91906114d0565b90506b033b2e3c9fd0803ce800000082826001600160a01b03166369dfa6c287876040518363ffffffff1660e01b815260040161075a92919061156e565b602060405180830381865afa158015610777573d6000803e3d6000fd5b505050506040513d601f19601f8201168201806040525081019061079b919061150f565b6107a591906115f6565b6107af919061160d565b9998505050505050505050565b6107c461111f565b600080546001600160a01b0319166001600160a01b0392909216919091179055565b6107ee61111f565b816001600160a01b031663a9059cbb610805610d79565b6040516001600160e01b031960e084901b1681526001600160a01b039091166004820152602481018490526044016020604051808303816000875af1158015610852573d6000803e3d6000fd5b505050506040513d601f19601f8201168201806040525081019061087691906114ed565b505050565b610883610e32565b604051635d043b2960e11b815260048101829052336024820181905260448201526001600160a01b0383169063ba087652906064016020604051808303816000875af11580156108d7573d6000803e3d6000fd5b505050506040513d601f19601f82011682018060405250810190610876919061150f565b61090361111f565b61090b611151565b565b7ff0c57e16840df040f15088dc2f81fe391c3923bec73e23a9662efc9c229c6a008054600160401b810460ff16159067ffffffffffffffff166000811580156109535750825b905060008267ffffffffffffffff1660011480156109705750303b155b90508115801561097e575080155b1561099c5760405163f92ee8a960e01b815260040160405180910390fd5b845467ffffffffffffffff1916600117855583156109c657845460ff60401b1916600160401b1785555b6109ce6111b1565b6109d7876111c1565b600080546001600160a01b0319166001600160a01b0388161790558315610a3857845460ff60401b19168555604051600181527fc7f505b2f371ae2175ee4913f4499e1f2633a7b5936321eed1cdaeb6115181d29060200160405180910390a15b50505050505050565b60405163c661065760e01b81526004810184905260009081906001600160a01b0387169063c661065790602401602060405180830381865afa158015610a8b573d6000803e3d6000fd5b505050506040513d601f19601f82011682018060405250810190610aaf91906114d0565b60405163556d6e9f60e01b81526004810187905260248101869052604481018590529091506000906001600160a01b0388169063556d6e9f90606401602060405180830381865afa158015610b08573d6000803e3d6000fd5b505050506040513d601f19601f82011682018060405250810190610b2c919061150f565b6001600160a01b038316600090815260026020526040902054909150610b53908290610e63565b979650505050505050565b610b6661111f565b61090b60006111d2565b610b7861111f565b61090b611243565b610b88610e32565b600080600080610b9b8989898989610ea7565b6040516323b872dd60e01b8152336004820152306024820152604481018e9052939750919550935091506001600160a01b038216906323b872dd906064016020604051808303816000875af1158015610bf8573d6000803e3d6000fd5b505050506040513d601f19601f82011682018060405250810190610c1c91906114ed565b5060008060009054906101000a90046001600160a01b03166001600160a01b031663b0f479a16040518163ffffffff1660e01b8152600401602060405180830381865afa158015610c71573d6000803e3d6000fd5b505050506040513d601f19601f82011682018060405250810190610c9591906114d0565b60405163095ea7b360e01b81526001600160a01b038083166004830152602482018690529192509083169063095ea7b3906044016020604051808303816000875af1158015610ce8573d6000803e3d6000fd5b505050506040513d601f19601f82011682018060405250810190610d0c91906114ed565b506040516324856bc360e01b81526001600160a01b038216906324856bc390610d3b908890889060040161156e565b600060405180830381600087803b158015610d5557600080fd5b505af1158015610d69573d6000803e3d6000fd5b5050505050505050505050505050565b7f9016d09d72d40fdae2fd8ceac6b6234c7706214fd39c1cd1e609a0528c199300546001600160a01b031690565b610daf61111f565b6001600160a01b03909116600090815260016020526040902055565b610dd361111f565b6001600160a01b03909116600090815260026020526040902055565b610df761111f565b6001600160a01b038116610e2657604051631e4fbdf760e01b8152600060048201526024015b60405180910390fd5b610e2f816111d2565b50565b6000805160206116598339815191525460ff161561090b5760405163d93c066560e01b815260040160405180910390fd5b6000670de0b6b3a7640000610e7a8361271061162f565b610e8490856115f6565b610e9490655af3107a40006115f6565b610e9e919061160d565b90505b92915050565b6060806000806000886001600160a01b031663c6610657896040518263ffffffff1660e01b8152600401610edd91815260200190565b602060405180830381865afa158015610efa573d6000803e3d6000fd5b505050506040513d601f19601f82011682018060405250810190610f1e91906114d0565b9050806001600160a01b03166338d52e0f6040518163ffffffff1660e01b8152600401602060405180830381865afa158015610f5e573d6000803e3d6000fd5b505050506040513d601f19601f82011682018060405250810190610f8291906114d0565b60405160006020820152600160fa1b6021820152600360f81b602282015290925060230160408051808303601f190181526003808452608084019092529650816020015b6060815260200190600190039081610fc65750506001600160a01b038216600090815260016020526040902054909450611001908b90610e63565b604080516001600160a01b03851660208201529081018290529093506060016040516020818303038152906040528460008151811061104257611042611642565b602090810291909101810191909152604080516001600160a01b03841692810192909252600160ff1b9082015260e060608201526080016040516020818303038152906040528460018151811061109b5761109b611642565b602090810291909101810191909152604080516001600160a01b038c1692810192909252810189905260608101889052600160ff1b608082015260a081018790523360c082015260e0016040516020818303038152906040528460028151811061110757611107611642565b60200260200101819052505095509550955095915050565b33611128610d79565b6001600160a01b03161461090b5760405163118cdaa760e01b8152336004820152602401610e1d565b61115961128c565b600080516020611659833981519152805460ff191681557f5db9ee0a495bf2e6ff9c91a7834c1ba4fdd244a5e8aa4e537bd38aeae4b073aa335b6040516001600160a01b03909116815260200160405180910390a150565b6111b96112bc565b61090b611305565b6111c96112bc565b610e2f81611326565b7f9016d09d72d40fdae2fd8ceac6b6234c7706214fd39c1cd1e609a0528c19930080546001600160a01b031981166001600160a01b03848116918217845560405192169182907f8be0079c531659141344cd1fd0a4f28419497f9722a3daafe3b4186f6b6457e090600090a3505050565b61124b610e32565b600080516020611659833981519152805460ff191660011781557f62e78cea01bee320cd4e420270b5ea74000d11b0c9f74754ebdbfc544b05a25833611193565b6000805160206116598339815191525460ff1661090b57604051638dfc202b60e01b815260040160405180910390fd5b7ff0c57e16840df040f15088dc2f81fe391c3923bec73e23a9662efc9c229c6a0054600160401b900460ff1661090b57604051631afcd79f60e31b815260040160405180910390fd5b61130d6112bc565b600080516020611659833981519152805460ff19169055565b610df76112bc565b6001600160a01b0381168114610e2f57600080fd5b600080600080600060a0868803121561135b57600080fd5b85356113668161132e565b97602087013597506040870135966060810135965060800135945092505050565b6000806000806080858703121561139d57600080fd5b8435935060208501356113af8161132e565b93969395505050506040820135916060013590565b6000602082840312156113d657600080fd5b81356113e18161132e565b9392505050565b600080604083850312156113fb57600080fd5b82356114068161132e565b946020939093013593505050565b6000806040838503121561142757600080fd5b82356114328161132e565b915060208301356114428161132e565b809150509250929050565b6000806000806080858703121561146357600080fd5b843561146e8161132e565b966020860135965060408601359560600135945092505050565b600080600080600060a086880312156114a057600080fd5b8535945060208601356114b28161132e565b94979496505050506040830135926060810135926080909101359150565b6000602082840312156114e257600080fd5b81516113e18161132e565b6000602082840312156114ff57600080fd5b815180151581146113e157600080fd5b60006020828403121561152157600080fd5b5051919050565b6000815180845260005b8181101561154e57602081850181015186830182015201611532565b506000602082860101526020601f19601f83011685010191505092915050565b6040815260006115816040830185611528565b6020838203818501528185518084528284019150828160051b85010183880160005b838110156115d157601f198784030185526115bf838351611528565b948601949250908501906001016115a3565b50909998505050505050505050565b634e487b7160e01b600052601160045260246000fd5b8082028115828204841417610ea157610ea16115e0565b60008261162a57634e487b7160e01b600052601260045260246000fd5b500490565b81810381811115610ea157610ea16115e0565b634e487b7160e01b600052603260045260246000fdfecd5ed15c6e187e77e9aee88184c21f4f2182ab5827cb3b7e07fbedcd63f03300a264697066735822122077aa3520b3c429d09df916d491fc6d110e100ae09419b835e4171277698379ff64736f6c63430008180033",
  "linkReferences": {},
  "deployedLinkReferences": {}
}