{
  "_format": "hh-sol-artifact-1",
  "contractName": "DiscountV1",
  "sourceName": "contracts/DiscountV1.sol",
  "abi": [
    {
      "inputs": [],
      "stateMutability": "nonpayable",
      "type": "constructor"
    },
    {
      "inputs": [],
      "name": "EnforcedPause",
      "type": "error"
    },
    {
      "inputs": [],
      "name": "ExpectedPause",
      "type": "error"
    },
    {
      "inputs": [],
      "name": "InvalidInitialization",
      "type": "error"
    },
    {
      "inputs": [],
      "name": "NotInitializing",
      "type": "error"
    },
    {
      "inputs": [
        {
          "internalType": "address",
          "name": "owner",
          "type": "address"
        }
      ],
      "name": "OwnableInvalidOwner",
      "type": "error"
    },
    {
      "inputs": [
        {
          "internalType": "address",
          "name": "account",
          "type": "address"
        }
      ],
      "name": "OwnableUnauthorizedAccount",
      "type": "error"
    },
    {
      "anonymous": false,
      "inputs": [
        {
          "indexed": false,
          "internalType": "uint64",
          "name": "version",
          "type": "uint64"
        }
      ],
      "name": "Initialized",
      "type": "event"
    },
    {
      "anonymous": false,
      "inputs": [
        {
          "indexed": true,
          "internalType": "address",
          "name": "previousOwner",
          "type": "address"
        },
        {
          "indexed": true,
          "internalType": "address",
          "name": "newOwner",
          "type": "address"
        }
      ],
      "name": "OwnershipTransferred",
      "type": "event"
    },
    {
      "anonymous": false,
      "inputs": [
        {
          "indexed": false,
          "internalType": "address",
          "name": "account",
          "type": "address"
        }
      ],
      "name": "Paused",
      "type": "event"
    },
    {
      "anonymous": false,
      "inputs": [
        {
          "indexed": false,
          "internalType": "address",
          "name": "account",
          "type": "address"
        }
      ],
      "name": "Unpaused",
      "type": "event"
    },
    {
      "inputs": [
        {
          "internalType": "uint256",
          "name": "_amount",
          "type": "uint256"
        },
        {
          "internalType": "address",
          "name": "_curvePoolAddress",
          "type": "address"
        },
        {
          "internalType": "uint256",
          "name": "_IBTindexInCurve",
          "type": "uint256"
        },
        {
          "internalType": "uint256",
          "name": "_PTindexInCurve",
          "type": "uint256"
        },
        {
          "internalType": "uint256",
          "name": "_minAmountOut",
          "type": "uint256"
        }
      ],
      "name": "buyDiscountedAsset",
      "outputs": [],
      "stateMutability": "nonpayable",
      "type": "function"
    },
    {
      "inputs": [
        {
          "internalType": "address",
          "name": "_curvePool",
          "type": "address"
        },
        {
          "internalType": "uint256",
          "name": "_PTindexInCurve",
          "type": "uint256"
        },
        {
          "internalType": "uint256",
          "name": "_IBTindexInCurve",
          "type": "uint256"
        },
        {
          "internalType": "uint256",
          "name": "_amount",
          "type": "uint256"
        },
        {
          "internalType": "uint256",
          "name": "_minAmountOut",
          "type": "uint256"
        }
      ],
      "name": "claimPTEarly",
      "outputs": [],
      "stateMutability": "nonpayable",
      "type": "function"
    },
    {
      "inputs": [
        {
          "internalType": "address",
          "name": "_token",
          "type": "address"
        },
        {
          "internalType": "uint256",
          "name": "_amount",
          "type": "uint256"
        }
      ],
      "name": "collectFee",
      "outputs": [],
      "stateMutability": "nonpayable",
      "type": "function"
    },
    {
      "inputs": [
        {
          "internalType": "address",
          "name": "_IBT",
          "type": "address"
        }
      ],
      "name": "getBuyFee",
      "outputs": [
        {
          "internalType": "uint256",
          "name": "",
          "type": "uint256"
        }
      ],
      "stateMutability": "view",
      "type": "function"
    },
    {
      "inputs": [
        {
          "internalType": "address",
          "name": "_PT",
          "type": "address"
        }
      ],
      "name": "getSellEarlyFee",
      "outputs": [
        {
          "internalType": "uint256",
          "name": "",
          "type": "uint256"
        }
      ],
      "stateMutability": "view",
      "type": "function"
    },
    {
      "inputs": [
        {
          "internalType": "address",
          "name": "_initialOwner",
          "type": "address"
        },
        {
          "internalType": "address",
          "name": "_registry",
          "type": "address"
        }
      ],
      "name": "initialize",
      "outputs": [],
      "stateMutability": "nonpayable",
      "type": "function"
    },
    {
      "inputs": [],
      "name": "owner",
      "outputs": [
        {
          "internalType": "address",
          "name": "",
          "type": "address"
        }
      ],
      "stateMutability": "view",
      "type": "function"
    },
    {
      "inputs": [],
      "name": "pause",
      "outputs": [],
      "stateMutability": "nonpayable",
      "type": "function"
    },
    {
      "inputs": [],
      "name": "paused",
      "outputs": [
        {
          "internalType": "bool",
          "name": "",
          "type": "bool"
        }
      ],
      "stateMutability": "view",
      "type": "function"
    },
    {
      "inputs": [
        {
          "internalType": "uint256",
          "name": "_amount",
          "type": "uint256"
        },
        {
          "internalType": "address",
          "name": "_curvePoolAddress",
          "type": "address"
        },
        {
          "internalType": "uint256",
          "name": "_IBTindexInCurve",
          "type": "uint256"
        },
        {
          "internalType": "uint256",
          "name": "_PTindexInCurve",
          "type": "uint256"
        }
      ],
      "name": "previewBuyDiscountedAsset",
      "outputs": [
        {
          "internalType": "uint256",
          "name": "",
          "type": "uint256"
        }
      ],
      "stateMutability": "view",
      "type": "function"
    },
    {
      "inputs": [
        {
          "internalType": "address",
          "name": "_curvePool",
          "type": "address"
        },
        {
          "internalType": "uint256",
          "name": "_PTindexInCurve",
          "type": "uint256"
        },
        {
          "internalType": "uint256",
          "name": "_IBTindexInCurve",
          "type": "uint256"
        },
        {
          "internalType": "uint256",
          "name": "_amount",
          "type": "uint256"
        }
      ],
      "name": "previewClaimPTEarly",
      "outputs": [
        {
          "internalType": "uint256",
          "name": "",
          "type": "uint256"
        }
      ],
      "stateMutability": "view",
      "type": "function"
    },
    {
      "inputs": [
        {
          "internalType": "address",
          "name": "_ptToken",
          "type": "address"
        },
        {
          "internalType": "uint256",
          "name": "_amount",
          "type": "uint256"
        }
      ],
      "name": "redeemDiscountedAsset",
      "outputs": [],
      "stateMutability": "nonpayable",
      "type": "function"
    },
    {
      "inputs": [],
      "name": "registry",
      "outputs": [
        {
          "internalType": "contract IRegistry",
          "name": "",
          "type": "address"
        }
      ],
      "stateMutability": "view",
      "type": "function"
    },
    {
      "inputs": [],
      "name": "renounceOwnership",
      "outputs": [],
      "stateMutability": "nonpayable",
      "type": "function"
    },
    {
      "inputs": [
        {
          "internalType": "address",
          "name": "_IBT",
          "type": "address"
        },
        {
          "internalType": "uint256",
          "name": "_newFee",
          "type": "uint256"
        }
      ],
      "name": "setBuyFee",
      "outputs": [],
      "stateMutability": "nonpayable",
      "type": "function"
    },
    {
      "inputs": [
        {
          "internalType": "address",
          "name": "_PT",
          "type": "address"
        },
        {
          "internalType": "uint256",
          "name": "_newFee",
          "type": "uint256"
        }
      ],
      "name": "setSellEarlyFee",
      "outputs": [],
      "stateMutability": "nonpayable",
      "type": "function"
    },
    {
      "inputs": [
        {
          "internalType": "address",
          "name": "newOwner",
          "type": "address"
        }
      ],
      "name": "transferOwnership",
      "outputs": [],
      "stateMutability": "nonpayable",
      "type": "function"
    },
    {
      "inputs": [],
      "name": "unpause",
      "outputs": [],
      "stateMutability": "nonpayable",
      "type": "function"
    },
    {
      "inputs": [
        {
          "internalType": "address",
          "name": "_newRegistry",
          "type": "address"
        }
      ],
      "name": "updateRegistry",
      "outputs": [],
      "stateMutability": "nonpayable",
      "type": "function"
    }
  ],
  "bytecode": "0x608060405234801561001057600080fd5b5061001961001e565b6100d0565b7ff0c57e16840df040f15088dc2f81fe391c3923bec73e23a9662efc9c229c6a00805468010000000000000000900460ff161561006e5760405163f92ee8a960e01b815260040160405180910390fd5b80546001600160401b03908116146100cd5780546001600160401b0319166001600160401b0390811782556040519081527fc7f505b2f371ae2175ee4913f4499e1f2633a7b5936321eed1cdaeb6115181d29060200160405180910390a15b50565b611a51806100df6000396000f3fe608060405234801561001057600080fd5b50600436106101215760003560e01c8063637777ef116100ad5780638da5cb5b116100715780638da5cb5b146102625780639f3254061461026a578063cbdadba01461027d578063ee63250f146102a6578063f2fde38b146102b957600080fd5b8063637777ef14610201578063715018a6146102145780637b1039991461021c5780638456cb59146102475780638662fac21461024f57600080fd5b806334161658116100f457806334161658146101875780633f4ba83a1461019a578063485cc955146101a25780635237cf58146101b55780635c975abb146101de57600080fd5b8063029354321461012657806318d3af281461013b5780631a5da6c8146101615780632ec0ff6c14610174575b600080fd5b6101396101343660046116e6565b6102cc565b005b61014e61014936600461172a565b6106e8565b6040519081526020015b60405180910390f35b61013961016f366004611767565b61081b565b61013961018236600461178b565b610845565b61013961019536600461178b565b6108da565b61013961095a565b6101396101b03660046117b7565b61096c565b61014e6101c3366004611767565b6001600160a01b031660009081526002602052604090205490565b6000805160206119fc8339815191525460ff166040519015158152602001610158565b61014e61020f3660046117f0565b610aa0565b610139610bfa565b60005461022f906001600160a01b031681565b6040516001600160a01b039091168152602001610158565b610139610c0c565b61013961025d36600461182b565b610c1c565b61022f610e02565b61013961027836600461178b565b610e30565b61014e61028b366004611767565b6001600160a01b031660009081526001602052604090205490565b6101396102b436600461178b565b610e54565b6101396102c7366004611767565b610e78565b6102d4610eb6565b60008060006102e588888888610ee7565b9250925092506000816001600160a01b0316636f307dc36040518163ffffffff1660e01b8152600401602060405180830381865afa15801561032b573d6000803e3d6000fd5b505050506040513d601f19601f8201168201806040525081019061034f9190611873565b6040516370a0823160e01b81523060048201529091506000906001600160a01b038316906370a0823190602401602060405180830381865afa158015610399573d6000803e3d6000fd5b505050506040513d601f19601f820116820180604052508101906103bd9190611890565b905060008060009054906101000a90046001600160a01b03166001600160a01b031663b0f479a16040518163ffffffff1660e01b8152600401602060405180830381865afa158015610413573d6000803e3d6000fd5b505050506040513d601f19601f820116820180604052508101906104379190611873565b6040516323b872dd60e01b8152336004820152306024820152604481018a90529091506001600160a01b038516906323b872dd906064016020604051808303816000875af115801561048d573d6000803e3d6000fd5b505050506040513d601f19601f820116820180604052508101906104b191906118a9565b5060405163095ea7b360e01b81526001600160a01b038281166004830152602482018a905285169063095ea7b3906044016020604051808303816000875af1158015610501573d6000803e3d6000fd5b505050506040513d601f19601f8201168201806040525081019061052591906118a9565b506040516324856bc360e01b81526001600160a01b038216906324856bc3906105549089908990600401611911565b600060405180830381600087803b15801561056e57600080fd5b505af1158015610582573d6000803e3d6000fd5b50506040516370a0823160e01b8152306004820152600092508491506001600160a01b038616906370a0823190602401602060405180830381865afa1580156105cf573d6000803e3d6000fd5b505050506040513d601f19601f820116820180604052508101906105f39190611890565b6105fd9190611999565b6001600160a01b03861660009081526002602052604081205491925090610625908390611206565b9050888110156106675760405162461bcd60e51b8152602060048201526008602482015267536c69707061676560c01b60448201526064015b60405180910390fd5b60405163a9059cbb60e01b8152336004820152602481018290526001600160a01b0386169063a9059cbb906044016020604051808303816000875af11580156106b4573d6000803e3d6000fd5b505050506040513d601f19601f820116820180604052508101906106d891906118a9565b5050505050505050505050505050565b6000806000806106fc88888888600061124a565b5092509250925060008060009054906101000a90046001600160a01b03166001600160a01b031663b0f479a16040518163ffffffff1660e01b8152600401602060405180830381865afa158015610757573d6000803e3d6000fd5b505050506040513d601f19601f8201168201806040525081019061077b9190611873565b90506b033b2e3c9fd0803ce800000082826001600160a01b03166369dfa6c287876040518363ffffffff1660e01b81526004016107b9929190611911565b602060405180830381865afa1580156107d6573d6000803e3d6000fd5b505050506040513d601f19601f820116820180604052508101906107fa9190611890565b61080491906119ac565b61080e91906119c3565b9998505050505050505050565b6108236114c2565b600080546001600160a01b0319166001600160a01b0392909216919091179055565b61084d6114c2565b816001600160a01b031663a9059cbb610864610e02565b6040516001600160e01b031960e084901b1681526001600160a01b039091166004820152602481018490526044016020604051808303816000875af11580156108b1573d6000803e3d6000fd5b505050506040513d601f19601f820116820180604052508101906108d591906118a9565b505050565b6108e2610eb6565b604051635d043b2960e11b815260048101829052336024820181905260448201526001600160a01b0383169063ba087652906064016020604051808303816000875af1158015610936573d6000803e3d6000fd5b505050506040513d601f19601f820116820180604052508101906108d59190611890565b6109626114c2565b61096a6114f4565b565b7ff0c57e16840df040f15088dc2f81fe391c3923bec73e23a9662efc9c229c6a008054600160401b810460ff16159067ffffffffffffffff166000811580156109b25750825b905060008267ffffffffffffffff1660011480156109cf5750303b155b9050811580156109dd575080155b156109fb5760405163f92ee8a960e01b815260040160405180910390fd5b845467ffffffffffffffff191660011785558315610a2557845460ff60401b1916600160401b1785555b610a2d611554565b610a3687611564565b600080546001600160a01b0319166001600160a01b0388161790558315610a9757845460ff60401b19168555604051600181527fc7f505b2f371ae2175ee4913f4499e1f2633a7b5936321eed1cdaeb6115181d29060200160405180910390a15b50505050505050565b600080600080610ab288888888610ee7565b92509250925060008060009054906101000a90046001600160a01b03166001600160a01b031663b0f479a16040518163ffffffff1660e01b8152600401602060405180830381865afa158015610b0c573d6000803e3d6000fd5b505050506040513d601f19601f82011682018060405250810190610b309190611873565b905060006b033b2e3c9fd0803ce800000087836001600160a01b03166369dfa6c288886040518363ffffffff1660e01b8152600401610b70929190611911565b602060405180830381865afa158015610b8d573d6000803e3d6000fd5b505050506040513d601f19601f82011682018060405250810190610bb19190611890565b610bbb91906119ac565b610bc591906119c3565b6001600160a01b038416600090815260026020526040902054909150610bec908290611206565b9a9950505050505050505050565b610c026114c2565b61096a6000611575565b610c146114c2565b61096a6115e6565b610c24610eb6565b600080600080610c37898989898961124a565b935093509350935060008060009054906101000a90046001600160a01b03166001600160a01b031663b0f479a16040518163ffffffff1660e01b8152600401602060405180830381865afa158015610c93573d6000803e3d6000fd5b505050506040513d601f19601f82011682018060405250810190610cb79190611873565b6040516323b872dd60e01b8152336004820152306024820152604481018c90529091506001600160a01b038316906323b872dd906064016020604051808303816000875af1158015610d0d573d6000803e3d6000fd5b505050506040513d601f19601f82011682018060405250810190610d3191906118a9565b5060405163095ea7b360e01b81526001600160a01b0382811660048301526024820185905283169063095ea7b3906044016020604051808303816000875af1158015610d81573d6000803e3d6000fd5b505050506040513d601f19601f82011682018060405250810190610da591906118a9565b506040516324856bc360e01b81526001600160a01b038216906324856bc390610dd49088908890600401611911565b600060405180830381600087803b158015610dee57600080fd5b505af11580156106d8573d6000803e3d6000fd5b7f9016d09d72d40fdae2fd8ceac6b6234c7706214fd39c1cd1e609a0528c199300546001600160a01b031690565b610e386114c2565b6001600160a01b03909116600090815260016020526040902055565b610e5c6114c2565b6001600160a01b03909116600090815260026020526040902055565b610e806114c2565b6001600160a01b038116610eaa57604051631e4fbdf760e01b81526000600482015260240161065e565b610eb381611575565b50565b6000805160206119fc8339815191525460ff161561096a5760405163d93c066560e01b815260040160405180910390fd5b6060806000866001600160a01b031663c6610657876040518263ffffffff1660e01b8152600401610f1a91815260200190565b602060405180830381865afa158015610f37573d6000803e3d6000fd5b505050506040513d601f19601f82011682018060405250810190610f5b9190611873565b90506000816001600160a01b0316636f307dc36040518163ffffffff1660e01b8152600401602060405180830381865afa158015610f9d573d6000803e3d6000fd5b505050506040513d601f19601f82011682018060405250810190610fc19190611873565b60405163c661065760e01b8152600481018890529091506000906001600160a01b038a169063c661065790602401602060405180830381865afa15801561100c573d6000803e3d6000fd5b505050506040513d601f19601f820116820180604052508101906110309190611873565b60405160006020820152600360f81b6021820152600760f81b6022820152600160f91b602382015290915060240160408051808303601f19018152600480845260a084019092529650816020015b606081526020019060019003908161107e57905050604080516001600160a01b0386166020820152908101889052909450606001604051602081830303815290604052846000815181106110d4576110d46119e5565b602090810291909101810191909152604080516001600160a01b038c169281019290925281018990526060810188905260808101879052600060a082015260e060c08201819052016040516020818303038152906040528460018151811061113e5761113e6119e5565b602090810291909101810191909152604080516001600160a01b03841692810192909252600160ff1b9082015260e0606082015260800160405160208183030381529060405284600281518110611197576111976119e5565b602090810291909101810191909152604080516001600160a01b038516928101929092523090820152600160ff1b6060820152608001604051602081830303815290604052846003815181106111ef576111ef6119e5565b602002602001018190525050509450945094915050565b6000670de0b6b3a764000061121d83612710611999565b61122790856119ac565b61123790655af3107a40006119ac565b61124191906119c3565b90505b92915050565b6060806000806000886001600160a01b031663c6610657896040518263ffffffff1660e01b815260040161128091815260200190565b602060405180830381865afa15801561129d573d6000803e3d6000fd5b505050506040513d601f19601f820116820180604052508101906112c19190611873565b9050806001600160a01b03166338d52e0f6040518163ffffffff1660e01b8152600401602060405180830381865afa158015611301573d6000803e3d6000fd5b505050506040513d601f19601f820116820180604052508101906113259190611873565b60405160006020820152600160fa1b6021820152600360f81b602282015290925060230160408051808303601f190181526003808452608084019092529650816020015b60608152602001906001900390816113695750506001600160a01b0382166000908152600160205260409020549094506113a4908b90611206565b604080516001600160a01b0385166020820152908101829052909350606001604051602081830303815290604052846000815181106113e5576113e56119e5565b602090810291909101810191909152604080516001600160a01b03841692810192909252600160ff1b9082015260e060608201526080016040516020818303038152906040528460018151811061143e5761143e6119e5565b602090810291909101810191909152604080516001600160a01b038c1692810192909252810189905260608101889052600160ff1b608082015260a081018790523360c082015260e001604051602081830303815290604052846002815181106114aa576114aa6119e5565b60200260200101819052505095509550955095915050565b336114cb610e02565b6001600160a01b03161461096a5760405163118cdaa760e01b815233600482015260240161065e565b6114fc61162f565b6000805160206119fc833981519152805460ff191681557f5db9ee0a495bf2e6ff9c91a7834c1ba4fdd244a5e8aa4e537bd38aeae4b073aa335b6040516001600160a01b03909116815260200160405180910390a150565b61155c61165f565b61096a6116a8565b61156c61165f565b610eb3816116c9565b7f9016d09d72d40fdae2fd8ceac6b6234c7706214fd39c1cd1e609a0528c19930080546001600160a01b031981166001600160a01b03848116918217845560405192169182907f8be0079c531659141344cd1fd0a4f28419497f9722a3daafe3b4186f6b6457e090600090a3505050565b6115ee610eb6565b6000805160206119fc833981519152805460ff191660011781557f62e78cea01bee320cd4e420270b5ea74000d11b0c9f74754ebdbfc544b05a25833611536565b6000805160206119fc8339815191525460ff1661096a57604051638dfc202b60e01b815260040160405180910390fd5b7ff0c57e16840df040f15088dc2f81fe391c3923bec73e23a9662efc9c229c6a0054600160401b900460ff1661096a57604051631afcd79f60e31b815260040160405180910390fd5b6116b061165f565b6000805160206119fc833981519152805460ff19169055565b610e8061165f565b6001600160a01b0381168114610eb357600080fd5b600080600080600060a086880312156116fe57600080fd5b8535611709816116d1565b97602087013597506040870135966060810135965060800135945092505050565b6000806000806080858703121561174057600080fd5b843593506020850135611752816116d1565b93969395505050506040820135916060013590565b60006020828403121561177957600080fd5b8135611784816116d1565b9392505050565b6000806040838503121561179e57600080fd5b82356117a9816116d1565b946020939093013593505050565b600080604083850312156117ca57600080fd5b82356117d5816116d1565b915060208301356117e5816116d1565b809150509250929050565b6000806000806080858703121561180657600080fd5b8435611811816116d1565b966020860135965060408601359560600135945092505050565b600080600080600060a0868803121561184357600080fd5b853594506020860135611855816116d1565b94979496505050506040830135926060810135926080909101359150565b60006020828403121561188557600080fd5b8151611784816116d1565b6000602082840312156118a257600080fd5b5051919050565b6000602082840312156118bb57600080fd5b8151801515811461178457600080fd5b6000815180845260005b818110156118f1576020818501810151868301820152016118d5565b506000602082860101526020601f19601f83011685010191505092915050565b60408152600061192460408301856118cb565b6020838203818501528185518084528284019150828160051b85010183880160005b8381101561197457601f198784030185526119628383516118cb565b94860194925090850190600101611946565b50909998505050505050505050565b634e487b7160e01b600052601160045260246000fd5b8181038181111561124457611244611983565b808202811582820484141761124457611244611983565b6000826119e057634e487b7160e01b600052601260045260246000fd5b500490565b634e487b7160e01b600052603260045260246000fdfecd5ed15c6e187e77e9aee88184c21f4f2182ab5827cb3b7e07fbedcd63f03300a2646970667358221220cf6b04e9b12526c319ad4e27a7f2d8d8b65687b5280017a5b2befa3a3f18df4d64736f6c63430008180033",
  "linkReferences": {},
  "deployedLinkReferences": {}
}