{
  "_format": "hh-sol-artifact-1",
  "contractName": "DiscountV1",
  "sourceName": "contracts/DiscountV1.sol",
  "abi": [
    {
      "inputs": [],
      "stateMutability": "nonpayable",
      "type": "constructor"
    },
    {
      "inputs": [],
      "name": "EnforcedPause",
      "type": "error"
    },
    {
      "inputs": [],
      "name": "ExpectedPause",
      "type": "error"
    },
    {
      "inputs": [],
      "name": "InvalidInitialization",
      "type": "error"
    },
    {
      "inputs": [],
      "name": "NotInitializing",
      "type": "error"
    },
    {
      "inputs": [
        {
          "internalType": "address",
          "name": "owner",
          "type": "address"
        }
      ],
      "name": "OwnableInvalidOwner",
      "type": "error"
    },
    {
      "inputs": [
        {
          "internalType": "address",
          "name": "account",
          "type": "address"
        }
      ],
      "name": "OwnableUnauthorizedAccount",
      "type": "error"
    },
    {
      "anonymous": false,
      "inputs": [
        {
          "indexed": false,
          "internalType": "uint64",
          "name": "version",
          "type": "uint64"
        }
      ],
      "name": "Initialized",
      "type": "event"
    },
    {
      "anonymous": false,
      "inputs": [
        {
          "indexed": true,
          "internalType": "address",
          "name": "previousOwner",
          "type": "address"
        },
        {
          "indexed": true,
          "internalType": "address",
          "name": "newOwner",
          "type": "address"
        }
      ],
      "name": "OwnershipTransferred",
      "type": "event"
    },
    {
      "anonymous": false,
      "inputs": [
        {
          "indexed": false,
          "internalType": "address",
          "name": "account",
          "type": "address"
        }
      ],
      "name": "Paused",
      "type": "event"
    },
    {
      "anonymous": false,
      "inputs": [
        {
          "indexed": false,
          "internalType": "address",
          "name": "account",
          "type": "address"
        }
      ],
      "name": "Unpaused",
      "type": "event"
    },
    {
      "inputs": [
        {
          "internalType": "address",
          "name": "_underlyingToken",
          "type": "address"
        },
        {
          "internalType": "uint256",
          "name": "_amount",
          "type": "uint256"
        },
        {
          "internalType": "uint256",
          "name": "_IBT",
          "type": "uint256"
        },
        {
          "internalType": "address",
          "name": "_curvePoolAddress",
          "type": "address"
        },
        {
          "internalType": "uint256",
          "name": "_IBTindexInCurve",
          "type": "uint256"
        },
        {
          "internalType": "uint256",
          "name": "_PTindexInCurve",
          "type": "uint256"
        }
      ],
      "name": "buyDiscountedAsset",
      "outputs": [],
      "stateMutability": "nonpayable",
      "type": "function"
    },
    {
      "inputs": [
        {
          "internalType": "address",
          "name": "_curvePool",
          "type": "address"
        },
        {
          "internalType": "uint256",
          "name": "_inputTokenIndex",
          "type": "uint256"
        },
        {
          "internalType": "uint256",
          "name": "_outputTokenIndex",
          "type": "uint256"
        },
        {
          "internalType": "uint256",
          "name": "_dx",
          "type": "uint256"
        },
        {
          "internalType": "uint256",
          "name": "_min_dy",
          "type": "uint256"
        }
      ],
      "name": "claimPTEarly",
      "outputs": [],
      "stateMutability": "nonpayable",
      "type": "function"
    },
    {
      "inputs": [
        {
          "internalType": "address",
          "name": "_token",
          "type": "address"
        },
        {
          "internalType": "uint256",
          "name": "_amount",
          "type": "uint256"
        }
      ],
      "name": "collectFee",
      "outputs": [],
      "stateMutability": "nonpayable",
      "type": "function"
    },
    {
      "inputs": [
        {
          "internalType": "address",
          "name": "_IBT",
          "type": "address"
        }
      ],
      "name": "getBuyFee",
      "outputs": [
        {
          "internalType": "uint256",
          "name": "",
          "type": "uint256"
        }
      ],
      "stateMutability": "view",
      "type": "function"
    },
    {
      "inputs": [
        {
          "internalType": "address",
          "name": "_PT",
          "type": "address"
        }
      ],
      "name": "getSellEarlyFee",
      "outputs": [
        {
          "internalType": "uint256",
          "name": "",
          "type": "uint256"
        }
      ],
      "stateMutability": "view",
      "type": "function"
    },
    {
      "inputs": [
        {
          "internalType": "address",
          "name": "_PT",
          "type": "address"
        }
      ],
      "name": "getSellFee",
      "outputs": [
        {
          "internalType": "uint256",
          "name": "",
          "type": "uint256"
        }
      ],
      "stateMutability": "view",
      "type": "function"
    },
    {
      "inputs": [
        {
          "internalType": "address",
          "name": "initialOwner",
          "type": "address"
        }
      ],
      "name": "initialize",
      "outputs": [],
      "stateMutability": "nonpayable",
      "type": "function"
    },
    {
      "inputs": [],
      "name": "owner",
      "outputs": [
        {
          "internalType": "address",
          "name": "",
          "type": "address"
        }
      ],
      "stateMutability": "view",
      "type": "function"
    },
    {
      "inputs": [],
      "name": "pause",
      "outputs": [],
      "stateMutability": "nonpayable",
      "type": "function"
    },
    {
      "inputs": [],
      "name": "paused",
      "outputs": [
        {
          "internalType": "bool",
          "name": "",
          "type": "bool"
        }
      ],
      "stateMutability": "view",
      "type": "function"
    },
    {
      "inputs": [
        {
          "internalType": "address",
          "name": "_ptToken",
          "type": "address"
        },
        {
          "internalType": "uint256",
          "name": "_amount",
          "type": "uint256"
        }
      ],
      "name": "redeemDiscountedAsset",
      "outputs": [],
      "stateMutability": "nonpayable",
      "type": "function"
    },
    {
      "inputs": [],
      "name": "registry",
      "outputs": [
        {
          "internalType": "contract IRegistry",
          "name": "",
          "type": "address"
        }
      ],
      "stateMutability": "view",
      "type": "function"
    },
    {
      "inputs": [],
      "name": "renounceOwnership",
      "outputs": [],
      "stateMutability": "nonpayable",
      "type": "function"
    },
    {
      "inputs": [
        {
          "internalType": "address",
          "name": "_IBT",
          "type": "address"
        },
        {
          "internalType": "uint256",
          "name": "_newFee",
          "type": "uint256"
        }
      ],
      "name": "setBuyFee",
      "outputs": [],
      "stateMutability": "nonpayable",
      "type": "function"
    },
    {
      "inputs": [
        {
          "internalType": "address",
          "name": "_PT",
          "type": "address"
        },
        {
          "internalType": "uint256",
          "name": "_newFee",
          "type": "uint256"
        }
      ],
      "name": "setSellEarlyFee",
      "outputs": [],
      "stateMutability": "nonpayable",
      "type": "function"
    },
    {
      "inputs": [
        {
          "internalType": "address",
          "name": "_PT",
          "type": "address"
        },
        {
          "internalType": "uint256",
          "name": "_newFee",
          "type": "uint256"
        }
      ],
      "name": "setSellFee",
      "outputs": [],
      "stateMutability": "nonpayable",
      "type": "function"
    },
    {
      "inputs": [
        {
          "internalType": "address",
          "name": "newOwner",
          "type": "address"
        }
      ],
      "name": "transferOwnership",
      "outputs": [],
      "stateMutability": "nonpayable",
      "type": "function"
    },
    {
      "inputs": [],
      "name": "unpause",
      "outputs": [],
      "stateMutability": "nonpayable",
      "type": "function"
    },
    {
      "inputs": [
        {
          "internalType": "address",
          "name": "_newRegistry",
          "type": "address"
        }
      ],
      "name": "updateRegistry",
      "outputs": [],
      "stateMutability": "nonpayable",
      "type": "function"
    }
  ],
  "bytecode": "0x608060405234801561001057600080fd5b5061001961001e565b6100d0565b7ff0c57e16840df040f15088dc2f81fe391c3923bec73e23a9662efc9c229c6a00805468010000000000000000900460ff161561006e5760405163f92ee8a960e01b815260040160405180910390fd5b80546001600160401b03908116146100cd5780546001600160401b0319166001600160401b0390811782556040519081527fc7f505b2f371ae2175ee4913f4499e1f2633a7b5936321eed1cdaeb6115181d29060200160405180910390a15b50565b61144b806100df6000396000f3fe608060405234801561001057600080fd5b50600436106101205760003560e01c8063715018a6116100ad578063b76393a611610071578063b76393a614610256578063c4d66de81461027f578063cbdadba014610292578063ee63250f146102bb578063f2fde38b146102ce57600080fd5b8063715018a6146102005780637b103999146102085780638456cb59146102335780638da5cb5b1461023b5780639f3254061461024357600080fd5b80632ec0ff6c116100f45780632ec0ff6c1461017357806334161658146101865780633f4ba83a146101995780635237cf58146101a15780635c975abb146101dd57600080fd5b8062547a3d14610125578063029354321461013a5780631a5da6c81461014d5780631ed364eb14610160575b600080fd5b61013861013336600461117d565b6102e1565b005b6101386101483660046111a9565b610305565b61013861015b3660046111ed565b6106ba565b61013861016e366004611211565b6106e4565b61013861018136600461117d565b610a15565b61013861019436600461117d565b610aaa565b610138610cba565b6101ca6101af3660046111ed565b6001600160a01b031660009081526003602052604090205490565b6040519081526020015b60405180910390f35b6000805160206113f68339815191525460ff1660405190151581526020016101d4565b610138610ccc565b60005461021b906001600160a01b031681565b6040516001600160a01b0390911681526020016101d4565b610138610cde565b61021b610cee565b61013861025136600461117d565b610d1c565b6101ca6102643660046111ed565b6001600160a01b031660009081526002602052604090205490565b61013861028d3660046111ed565b610d40565b6101ca6102a03660046111ed565b6001600160a01b031660009081526001602052604090205490565b6101386102c936600461117d565b610e7d565b6101386102dc3660046111ed565b610ea1565b6102e9610ee4565b6001600160a01b03909116600090815260026020526040902055565b60405163c661065760e01b8152600481018590526000906001600160a01b0387169063c661065790602401602060405180830381865afa15801561034d573d6000803e3d6000fd5b505050506040513d601f19601f82011682018060405250810190610371919061126d565b6040516323b872dd60e01b8152336004820152306024820152604481018590529091506001600160a01b038216906323b872dd906064016020604051808303816000875af11580156103c7573d6000803e3d6000fd5b505050506040513d601f19601f820116820180604052508101906103eb919061128a565b5060405163095ea7b360e01b81526001600160a01b0387811660048301526024820185905282169063095ea7b3906044016020604051808303816000875af115801561043b573d6000803e3d6000fd5b505050506040513d601f19601f8201168201806040525081019061045f919061128a565b506001600160a01b03811660009081526003602052604081205490036105125760405163ce7d650360e01b815260048101869052602481018590526044810184905260648101839052600060848201523360a48201526001600160a01b0387169063ce7d65039060c4016020604051808303816000875af11580156104e8573d6000803e3d6000fd5b505050506040513d601f19601f8201168201806040525081019061050c91906112ac565b506106b2565b60405163ce7d650360e01b8152600481018690526024810185905260448101849052606481018390526000608482018190523060a4830152906001600160a01b0388169063ce7d65039060c4016020604051808303816000875af115801561057e573d6000803e3d6000fd5b505050506040513d601f19601f820116820180604052508101906105a291906112ac565b6001600160a01b038316600090815260036020526040812054919250906105ca908390610f16565b60405163c661065760e01b8152600481018890529091506000906001600160a01b038a169063c661065790602401602060405180830381865afa158015610615573d6000803e3d6000fd5b505050506040513d601f19601f82011682018060405250810190610639919061126d565b60405163a9059cbb60e01b8152336004820152602481018490529091506001600160a01b0382169063a9059cbb906044016020604051808303816000875af1158015610689573d6000803e3d6000fd5b505050506040513d601f19601f820116820180604052508101906106ad919061128a565b505050505b505050505050565b6106c2610ee4565b600080546001600160a01b0319166001600160a01b0392909216919091179055565b6106ec610f5a565b6040516323b872dd60e01b8152336004820152306024820152604481018690526001600160a01b038716906323b872dd906064016020604051808303816000875af115801561073f573d6000803e3d6000fd5b505050506040513d601f19601f82011682018060405250810190610763919061128a565b5060408051600060208201819052600160fa1b6021830152600360f81b602283015282516003818403810182526023840181815260a38501909552909391926043015b60608152602001906001900390816107a657905050604080516001600160a01b038b166020820152908101899052909150606001604051602081830303815290604052816000815181106107fc576107fc6112c5565b60209081029190910181019190915260408051918201889052810188905260e0606082015260800160405160208183030381529060405281600181518110610846576108466112c5565b602090810291909101810191909152604080516001600160a01b0388169281019290925281018590526060810184905260808101889052600060a08201523360c082015260e001604051602081830303815290604052816002815181106108af576108af6112c5565b602002602001018190525060008060009054906101000a90046001600160a01b03166001600160a01b031663b0f479a16040518163ffffffff1660e01b8152600401602060405180830381865afa15801561090e573d6000803e3d6000fd5b505050506040513d601f19601f82011682018060405250810190610932919061126d565b60405163095ea7b360e01b81526001600160a01b038083166004830152602482018b9052919250908a169063095ea7b3906044016020604051808303816000875af1158015610985573d6000803e3d6000fd5b505050506040513d601f19601f820116820180604052508101906109a9919061128a565b506040516324856bc360e01b81526001600160a01b038216906324856bc3906109d89086908690600401611321565b600060405180830381600087803b1580156109f257600080fd5b505af1158015610a06573d6000803e3d6000fd5b50505050505050505050505050565b610a1d610ee4565b816001600160a01b031663a9059cbb610a34610cee565b6040516001600160e01b031960e084901b1681526001600160a01b039091166004820152602481018490526044016020604051808303816000875af1158015610a81573d6000803e3d6000fd5b505050506040513d601f19601f82011682018060405250810190610aa5919061128a565b505050565b6001600160a01b0382166000908152600260205260408120549003610b4157604051635d043b2960e11b815260048101829052336024820181905260448201526001600160a01b0383169063ba087652906064016020604051808303816000875af1158015610b1d573d6000803e3d6000fd5b505050506040513d601f19601f82011682018060405250810190610aa591906112ac565b604051635d043b2960e11b8152600481018290523060248201523360448201526001600160a01b0383169063ba087652906064016020604051808303816000875af1158015610b94573d6000803e3d6000fd5b505050506040513d601f19601f82011682018060405250810190610bb891906112ac565b506001600160a01b038216600090815260026020526040812054610bdd908390610f16565b9050826001600160a01b0316636f307dc36040518163ffffffff1660e01b8152600401602060405180830381865afa158015610c1d573d6000803e3d6000fd5b505050506040513d601f19601f82011682018060405250810190610c41919061126d565b60405163a9059cbb60e01b8152336004820152602481018390526001600160a01b03919091169063a9059cbb906044016020604051808303816000875af1158015610c90573d6000803e3d6000fd5b505050506040513d601f19601f82011682018060405250810190610cb4919061128a565b50505050565b610cc2610ee4565b610cca610f8b565b565b610cd4610ee4565b610cca6000610feb565b610ce6610ee4565b610cca61105c565b7f9016d09d72d40fdae2fd8ceac6b6234c7706214fd39c1cd1e609a0528c199300546001600160a01b031690565b610d24610ee4565b6001600160a01b03909116600090815260016020526040902055565b7ff0c57e16840df040f15088dc2f81fe391c3923bec73e23a9662efc9c229c6a008054600160401b810460ff16159067ffffffffffffffff16600081158015610d865750825b905060008267ffffffffffffffff166001148015610da35750303b155b905081158015610db1575080155b15610dcf5760405163f92ee8a960e01b815260040160405180910390fd5b845467ffffffffffffffff191660011785558315610df957845460ff60401b1916600160401b1785555b610e016110a5565b610e0a866110b5565b600080546001600160a01b03191673a2e793bac100975c8cf84b2bb72d8c9a26f03bab17905583156106b257845460ff60401b19168555604051600181527fc7f505b2f371ae2175ee4913f4499e1f2633a7b5936321eed1cdaeb6115181d29060200160405180910390a1505050505050565b610e85610ee4565b6001600160a01b03909116600090815260036020526040902055565b610ea9610ee4565b6001600160a01b038116610ed857604051631e4fbdf760e01b8152600060048201526024015b60405180910390fd5b610ee181610feb565b50565b33610eed610cee565b6001600160a01b031614610cca5760405163118cdaa760e01b8152336004820152602401610ecf565b6000670de0b6b3a7640000610f2d836127106113a9565b610f3790856113bc565b610f4790655af3107a40006113bc565b610f5191906113d3565b90505b92915050565b6000805160206113f68339815191525460ff1615610cca5760405163d93c066560e01b815260040160405180910390fd5b610f936110c6565b6000805160206113f6833981519152805460ff191681557f5db9ee0a495bf2e6ff9c91a7834c1ba4fdd244a5e8aa4e537bd38aeae4b073aa335b6040516001600160a01b03909116815260200160405180910390a150565b7f9016d09d72d40fdae2fd8ceac6b6234c7706214fd39c1cd1e609a0528c19930080546001600160a01b031981166001600160a01b03848116918217845560405192169182907f8be0079c531659141344cd1fd0a4f28419497f9722a3daafe3b4186f6b6457e090600090a3505050565b611064610f5a565b6000805160206113f6833981519152805460ff191660011781557f62e78cea01bee320cd4e420270b5ea74000d11b0c9f74754ebdbfc544b05a25833610fcd565b6110ad6110f6565b610cca61113f565b6110bd6110f6565b610ee181611160565b6000805160206113f68339815191525460ff16610cca57604051638dfc202b60e01b815260040160405180910390fd5b7ff0c57e16840df040f15088dc2f81fe391c3923bec73e23a9662efc9c229c6a0054600160401b900460ff16610cca57604051631afcd79f60e31b815260040160405180910390fd5b6111476110f6565b6000805160206113f6833981519152805460ff19169055565b610ea96110f6565b6001600160a01b0381168114610ee157600080fd5b6000806040838503121561119057600080fd5b823561119b81611168565b946020939093013593505050565b600080600080600060a086880312156111c157600080fd5b85356111cc81611168565b97602087013597506040870135966060810135965060800135945092505050565b6000602082840312156111ff57600080fd5b813561120a81611168565b9392505050565b60008060008060008060c0878903121561122a57600080fd5b863561123581611168565b95506020870135945060408701359350606087013561125381611168565b9598949750929560808101359460a0909101359350915050565b60006020828403121561127f57600080fd5b815161120a81611168565b60006020828403121561129c57600080fd5b8151801515811461120a57600080fd5b6000602082840312156112be57600080fd5b5051919050565b634e487b7160e01b600052603260045260246000fd5b6000815180845260005b81811015611301576020818501810151868301820152016112e5565b506000602082860101526020601f19601f83011685010191505092915050565b60408152600061133460408301856112db565b6020838203818501528185518084528284019150828160051b85010183880160005b8381101561138457601f198784030185526113728383516112db565b94860194925090850190600101611356565b50909998505050505050505050565b634e487b7160e01b600052601160045260246000fd5b81810381811115610f5457610f54611393565b8082028115828204841417610f5457610f54611393565b6000826113f057634e487b7160e01b600052601260045260246000fd5b50049056fecd5ed15c6e187e77e9aee88184c21f4f2182ab5827cb3b7e07fbedcd63f03300a2646970667358221220327cc6e67e31f45df94ddd844bfdcfd91357b4e2ef0ea167056eb58bf89b352e64736f6c63430008180033",
  "linkReferences": {},
  "deployedLinkReferences": {}
}